:02000002D0002C
:1040000000400D00588C0D00000006000C0005015A
:084010000401E70500000000B7
:044018001C7B0D0000
:10401C0009480A49884208B505D0094A824202D0AB
:10402C00121A03F015FD0748074A0021121A03F073
:10403C001AFD014808BD00BF98DD032074870D00F0
:10404C0054E2032054E20320F0E7032070B502F0A1
:10405C0009FC074C074BE41AA40800251E46A54290
:10406C0004D056F8253098470135F8E770BD00BFED
:10407C0064870D0010870D0000F040B908B500F002
:10408C00B7FCBDE8084002F0AFBB02F0D5B802F0B7
:10409C00DBB802F0D9B8000008B5034A00210C20A7
:1040AC0002F026F8FEE700BFDD5E0D000078B0FAE6
:1040BC0080F040097047012303707047704700007F
:1040CC0008B5164A1648137883F00103137063B1D0
:1040DC0001F00EF80221124801F07CFB2821142279
:1040EC000F4801F074FB0F490BE001F001F81422AA
:1040FC001E210B4801F06BFB0221094801F06AFB01
:10410C000949074802F0E5FA054801F02BF940F29D
:10411C00DC50BDE8084002F019BB00BFA0E2032050
:10412C00ACE20320407B0D00457B0D00104B1A7850
:10413C000132D2B2052A88BF00221A701B78052BD7
:10414C0014D8DFE803F0030507090B0D094B08E051
:10415C00094B06E0094B04E0094B02E0094B00E077
:10416C00094BB3F90010094801F01CBE704700BFA1
:10417C0082E20320D8DD0320C8DD0320A8DD032064
:10418C00A0DD0320D0DD0320D4DD032058E2032082
:10419C000E4A1378013BDBB21370052B14D8DFE801
:1041AC0003F0030507090B0D094B08E0094B06E06A
:1041BC00094B04E0094B02E0094B00E0094BB3F951
:1041CC000010094801F0EEBD704700BF82E20320E9
:1041DC00D8DD0320C8DD0320A8DD0320A0DD0320EB
:1041EC00D0DD0320D4DD032058E2032010B5034BAF
:1041FC000360044601F028FB204610BD387B0D00FF
:10420C0010B50446FFF7F2FF20464FF4987103F007
:10421C00B3FA204610BD38B50D46044680B102F005
:10422C00E5FE214602F042FA02F0E0FE0A220446C4
:10423C00294602F058FA204602F03FFA002038BD19
:10424C004FF0FF3038BD000070B5054678B1094E0F
:10425C0000242B1956F814009978DB78023443EAC1
:10426C000121FFF7D8FF0E2CF3D1002070BD4FF0C9
:10427C00FF3070BDACDD032038B50546A0B300247B
:10428C0002F0B4FE1022295D02F02DFA02F0AEFE0F
:10429C00174902F00BFA052394FBF3F303EB8303AA
:1042AC009C4200D024B902F0A1FE124902F011FA8E
:1042BC0001341C2CE4D16A1E05F11B01002312F8F9
:1042CC00010F03448A42DBB2F9D12A7F9A4204D00F
:1042DC0002F08CFE084902F0FCF902F087FE054959
:1042EC0002F0F7F9002038BD4FF0FF3038BD00BFA9
:1042FC004E7C0D00F0840D004C7B0D0038B502F0A7
:10430C0075FE4FF4165102F065FE4FF47A7002F010
:10431C001DFA02F06BFE5149514C02F0DAF902F031
:10432C0065FE504902F0D5F94F4801F0DFFB054618
:10433C0070B102F05BFE4D4902F0CBF901212088EF
:10434C0003F07DF902F052FE494902F0C2F9FEE792
:10435C0003F0DEF902F044FF3C220221454800F054
:10436C002FFF444800F0C4FE424800F0FBFF02213E
:10437C00404801F039FA2A4603213E4801F027FA59
:10438C0001213C4801F02BFA02213A4801F022FAB3
:10439C003949384802F08AF9364800F0E3FF3749CA
:1043AC00374801F005FC3749354801F003FC40F271
:1043BC00DC51334801F0FAFB3349344801F0F8FB87
:1043CC0003F0A6F93F220146314801F094FC314B31
:1043DC00314A2F4832211960642313602F4A11602F
:1043EC002F4A13602F4A11602F4A13602F4A116015
:1043FC002F4A13602F4A11602F4A13602F4A116005
:10440C002F4A136001F0CEFC214801F0ACFC2D4B7F
:10441C002D4918602D4802F0D3F82D492D4802F093
:10442C00CFF82D492D4802F0CBF82D4B01211888DF
:10443C0003F0F4F82B4B0121188803F0EFF82A4B0A
:10444C000121188803F0EAF82088012103F0E6F82E
:10445C004FF4FA60BDE8384002F078B95F7B0D008C
:10446C00CCDD03209A7B0D0038E30320A77B0D00E5
:10447C00BD7B0D00ACE20320C47B0D0039410D0067
:10448C00D0E20320CD400D009D410D005CE30320E4
:10449C0058E2032088E2032084E20320A8E20320F0
:1044AC008CE203203CE3032040E30320D8DD03200F
:1044BC00C8DD0320A8DD0320A0DD0320D0DD032010
:1044CC00D4DD032034E30320D17B0D0090E20320E4
:1044DC00D57B0D00C0E30320DA7B0D004CE30320F9
:1044EC0098DD0320A4DD03209CDD032038B5334C7C
:1044FC002378052B84BF00232370237863B93048BD
:10450C00304D01F030FC28602D4801F02CFC2E4B76
:10451C00286018602D4B18602378012B0CD128488B
:10452C00284D01F020FC2860254801F01CFC284B8C
:10453C0028601860274B18602378022B0CD1204878
:10454C00204D01F010FC28601D4801F00CFC224BA2
:10455C0028601860214B18602378032B0CD1184865
:10456C00184D01F000FC2860154801F0FCFB1C4BB9
:10457C00286018601B4B18602378042B0CD1104852
:10458C00104D01F0F0FB28600D4801F0ECFB164BD0
:10459C0028601860154B18602378052B0CD108483F
:1045AC00084C01F0E0FB2060054801F0DCFB104BEF
:1045BC00206018600F4B186038BD00BF82E20320EA
:1045CC0058E2032034E3032088E20320D8DD0320E3
:1045DC0084E20320C8DD0320A8E20320A8DD032029
:1045EC008CE20320A0DD03203CE30320D0DD03207C
:1045FC0040E30320D4DD03202DE9F04107460C46AF
:10460C0015462AB90368C9B29B68BDE8F041184742
:10461C00002907DA0A2A05D12D2102F04BF8614254
:10462C00064601E021460026EAB2384602F05BF865
:10463C003044BDE8F08138B50546FFF7DDFF044690
:10464C00284602F03AF8204438BD000010B5634803
:10465C00634C01F088FB634B18602378002B00F04F
:10466C00BB8002F0C3FC604902F033F8FFF73EFF59
:10467C005E4800F03DFD01215C4801F0ABF80022E2
:10468C000A215A4801F0A3F85949584802F00EF88B
:10469C0000224B21554801F09AF8564B53481968A3
:1046AC000A22FFF7C8FF544801F0FFFA534801F003
:1046BC00FCFA0A2211464D4801F089F850494B4842
:1046CC0002F007F80A224B21484801F080F84D4BC4
:1046DC00464819680A22FFF7AEFF474801F0E5FA91
:1046EC00464801F0E2FA14220A21404801F06FF822
:1046FC0045493E4801F0EDFF14224B213B4801F0A7
:10470C0066F8424B394819680A22FFF794FF3A4879
:10471C0001F0CBFA394801F0C8FA1E220A213348BD
:10472C0001F055F83A49314801F0C0FF1E224B21E7
:10473C002E4801F04CF8374B2C4819680A22FFF729
:10474C007AFF2D4801F0B1FA2C4801F0AEFA28227C
:10475C000A21264801F03BF82F49244801F0B9FF03
:10476C0028224B21214801F032F82C4B1F481968A4
:10477C000A22FFF760FF204801F097FA1F4801F06A
:10478C0094FA32220A21194801F021F824491748D9
:10479C0001F09FFF32224B21144801F018F8214BF5
:1047AC00124819680A22FFF746FF134801F07DFAF8
:1047BC00124801F07AFA1C4B0C481A7802EB820270
:1047CC005200022101F003F81849084801F081FF5A
:1047DC00064800F0C7FD40E710BD00BF58E20320BB
:1047EC00A0E2032034E30320DF7B0D00ACE20320C6
:1047FC00EE7B0D00D8DD0320D0E203205CE3032028
:10480C00F97B0D00C8DD0320057C0D00A8DD03201D
:10481C00107C0D00A0DD03201C7C0D00D0DD0320DE
:10482C00267C0D00D4DD032082E20320317C0D00B8
:10483C0038B5314C314D204600F05AFC2046012150
:10484C0000F0C8FF2046012100F0C9FF00221146EC
:10485C00204600F0BCFF2A49204601F027FF2046E5
:10486C00022100F0B7FF274B0A2219682046FFF7F8
:10487C00C3FE2046012100F0ADFF2946204601F081
:10488C0028FF19222046002100F0A1FF1E492046D6
:10489C0001F00CFF2046022100F09CFF1B4B0A226A
:1048AC0019682046FFF7A8FE2046012100F092FF70
:1048BC002946204601F00DFF32222046002100F04F
:1048CC0086FF1349204601F0F1FE2046022100F03C
:1048DC0081FF104B0A2219682046FFF78DFE2046F7
:1048EC00012100F077FF2946204601F0F2FE204618
:1048FC00BDE8384000F036BDACE203203B7C0D0037
:10490C00337C0D00A4E20320417C0D0048E303201E
:10491C00497C0D0060E2032070B504460E46154636
:10492C0001F09AF801223146204601F009F82046A0
:10493C003A2100F0B9FF2A4620460249BDE87040F2
:10494C0000F0F1BF517C0D0070B5D2B01446064694
:10495C000D464FF4807212A906A800F093FF1E4B6F
:10496C0006937D227B2106A801F081F832461B4973
:10497C0006A8FFF7D1FF2A46194906A8FFF7CCFF76
:10498C002246184906A8FFF7C7FF06A800F09AFFB1
:10499C00079B0393144B039A1B788DF80030134933
:1049AC003C2304A802F0CCF8059C7CB16368013B65
:1049BC0063605BB9236820469B689847A368013BFA
:1049CC00A3601BB923682046DB68984706A8FFF74D
:1049DC000DFC52B070BD00BF387B0D00547C0D0037
:1049EC005A7C0D00617C0D0044E30320687C0D00B3
:1049FC002DE9F04F844CDFF868928DB04FF07808B9
:104A0C001D228149814801F07CF870B102F0EEFA68
:104A1C007F4901F05EFE7F4B0121188802F00FFEEA
:104A2C0002F0E4FA7C4901F054FE02F0DFFA7B4913
:104A3C007B4E7C4F7C4DDFF82CB201F04AFE724865
:104A4C00FFF71AFC02F0D2FA784901F042FE6E48E8
:104A5C00FFF7FAFB02F0CAFA754901F03AFEA27AA6
:104A6C00E37A217B43EA02233360637BA27B43EA34
:104A7C000121E37B296043EA02233B606D4B5869BB
:104A8C00FFF7C9FB6C4801F010F9FFF7DFFD02F0EE
:104A9C00ADFA6A4901F01DFE02F0A8FA0A2231684B
:104AAC00FFF7C9FD02F0A2FA0A222968FFF7C3FD3D
:104ABC0002F09CFA0A223968FFF7BDFD604968468E
:104ACC0001F073FD5F4904A801F06FFD5E4908A871
:104ADC0001F06BFD08AA04A96846FFF7A9FE08A817
:104AEC0001F0FAFC04A801F0F7FC684601F0F4FCB4
:104AFC002B68002BAA461BDDDBF80020934217DC49
:104B0C00524B0021188802F09AFD514B0021188855
:104B1C0002F095FD4F4B0121188802F090FD002109
:104B2C00052002F08CFD444801F0BFF8FFF78EFD24
:104B3C002B68DBF8002093421BDDD9F80020934250
:104B4C0017DC424B0021188802F079FD404B012103
:104B5C00188802F074FD3F4B0021188802F06FFD9D
:104B6C000021052002F06BFD334801F09EF8FFF7A1
:104B7C006DFD2A68D9F800309A4221DD334B0121B2
:104B8C00188802F05CFD324B0021188802F057FDAA
:104B9C00304B0021188802F052FD0121052002F053
:104BAC004EFD254801F081F802F020FA2A4901F067
:104BBC007DFD02F01BFA0A22D9F80010FFF73BFD2D
:104BCC0002F014FA254B0A221978054601F08BFDE8
:104BDC00284601F072FDFFF739FD4FF4FA7001F031
:104BEC00B5FDB8F101087FF40BAF134801F05DF887
:104BFC00FFF72CFD3A68DAF800103068FFF7A4FED6
:104C0C000DB0BDE8F08F00BF64E2032038E3032051
:104C1C00757C0D00CCDD0320BD7B0D00927C0D005E
:104C2C00A4E2032060E2032048E30320A37C0D00F0
:104C3C00BB7C0D00ACDD0320D0E20320F0840D0022
:104C4C0090E20320C0E303204CE3032098DD032013
:104C5C00A4DD03209CDD0320C67C0D0082E2032032
:104C6C008CE20320A8E2032010B52421044602F0B4
:104C7C0083FD204610BD0000254B2DE9F041012598
:104C8C00244E1D70244C254FDFF8AC8001F0A0F8A9
:104C9C004021234800F021FF4FF0FF31304600F057
:104CAC0011FA22461F49304602F058FD1E4E394675
:104CBC00404601F058FC4046DFF8808022463146E1
:104CCC0002F04CFD3946404601F04DFC4046DFF801
:104CDC0070802246314602F041FD3946404601F0D3
:104CEC0042FC22463146404602F038FD2B4600225B
:104CFC000E210E4800F02EFF2B4600220F210C48EF
:104D0C0000F028FF0B48BDE8F04100F0E6BF00BF03
:104D1C0044E30320ACE2032054E20320F0840D00B2
:104D2C0038E30320C9400D00E5640D00D0E20320F8
:104D3C005CE3032058E2032090E20320C0E303204D
:104D4C004CE30320F0B5447EBDF81450022C08D07F
:104D5C00032C0FD0012C70D10489013CA21A12B281
:104D6C000CE04489013CA21A0489E41A611A12B2BB
:104D7C0009B262E04489E41A611A09B2002A5BDBC9
:104D8C00B0F90840944240F390800029BEBF5B18F4
:104D9C001BB20021B0F90A00CC188442C4BF431ADC
:104DAC001BB2002B40F38180C9B2C8083F4F02EB05
:104DBC00C01211F00701DBB207EB020417D0C1F1EE
:104DCC000801C8B23A4983420E5C3FBFC3EB000EE8
:104DDC00FF2141FA0EF10E40B95C012D0CBF31439D
:104DEC00B1438342B95460D3181AC3B28034072B31
:104DFC0017D9012D0CBFFF20002004F180011A46A9
:104E0C00083AD2B2072A01F8800C01F18001F7D8D8
:104E1C00A3F10802C2F3C402013204EBC21403F082
:104E2C000703002B41D0234AD25C2378012D0CBF01
:104E3C00134393432370F0BDF0BD002A35DBB0F96A
:104E4C000A40944231DD0029BCBFC9180BB2B0F93D
:104E5C000870B8BF0021CE18BE42C4BF631A1BB283
:104E6C00002B22DDD01001EBC011104802F007021C
:104E7C000144012000FA02F28542D2B209D1013B71
:104E8C001BB25C1C11D011F8010B104301F8010C82
:104E9C00F5E7D243D2B2013B1BB2581C05D011F836
:104EAC00010B104001F8010CF5E7F0BDECDD03201F
:104EBC00E4DD0320DCDD0320F0B5447EBDF81450A6
:104ECC00022C08D0032C0FD0012C12D10489E41A27
:104EDC00A21A12B26DE00489013C611A4489E41AE9
:104EEC00A21A09B212B204E04489013C611A09B257
:104EFC005FE000295CDBB0F908408C4240F3918004
:104F0C00002ABCBFD21813B2B0F90A00B8BF0022F5
:104F1C00D4188442C4BF831A1BB2002B40F3818087
:104F2C00D4B2404EDAB2E30801EBC31114F007041B
:104F3C0006EB010317D0C4F10804E0B23A4C8242EC
:104F4C00275C3FBFC2EB000EFF2444FA0EF427404F
:104F5C00745C012D0CBF3C43BC438242745460D33F
:104F6C00101AC2B28033072A17D9012D0CBFFF24A7
:104F7C00002403F1800011460839C9B2072900F852
:104F8C00804C00F18000F7D8A2F10801C1F3C401F4
:104F9C00013103EBC11302F00702002A41D023496F
:104FAC00895C1A78012D0CBF0A438A431A70F0BD34
:104FBC00F0BD002935DBB0F90A408C4231DD002A06
:104FCC00BCBFD21813B2B0F90870B8BF0022D61803
:104FDC00BE42C4BFA31A1BB2002B22DDC81002EBC9
:104FEC00C012104801F007011044012202FA01F12D
:104FFC009542C9B209D15A1E13B25C1C11D010F8DB
:10500C00012B0A4300F8012CF5E7C943C9B25A1E1B
:10501C0013B25A1C05D010F8012B0A4000F8012CD1
:10502C00F5E7F0BDECDD0320E4DD0320DCDD03203F
:10503C00F8B50D1E064614461F463FDB00F0E3FB99
:10504C0085423BDA002C39DB304600F0DFFB844232
:10505C0034DA304600F0C6FB022827D1318970893A
:10506C0001390138491B001B0DB204B206E00128BE
:10507C0004D13389013B1B1B2C461DB20820012F88
:10508C0094FBF0F000B20E4B04F0070205EBC011DC
:10509C0004D197405A5C17435F54F8BD585C012704
:1050AC0007FA02F220EA02025A54F8BD0328DED1B4
:1050BC007389013B5B1B25461CB2DFE7F8BD00BFC3
:1050CC00ECDD032038B5402204460D46802100F06B
:1050DC009FFA064B2360FF23637784F82130E37734
:1050EC00A37784F82050204638BD00BF5C7E0D00AD
:1050FC004FF480620021014802F0B5BCECDD0320C6
:10510C0038B5094D296811F001040AD12846FEF77B
:10511C00CDFF30B12146054801F002F92846FEF7D3
:10512C00CAFF024838BD00BFD0E30320D4E30320FC
:10513C0038B590F91D30013304460D4628D090F94E
:10514C002100012180B202F07AFA94F91F000021AB
:10515C0080B202F074FA94F92100002180B202F0BE
:10516C006EFA94F822302BB1FFF7CAFF294601F0F2
:10517C0081F905E02B460122A17F607F02F08BFABA
:10518C0094F92100012180B2BDE8384002F057BAF1
:10519C0002F0BEFA94F91B1002F05DF802F0B8FAB6
:1051AC00036800219B68984702F0B2FA036829460D
:1051BC009B68984702F0ACFABDE8384002F052B850
:1051CC0038B504460D46217790F91D30C27601336F
:1051DC0037D090F91F00012180B202F01FFA94F928
:1051EC002100012180B202F019FA94F822305BB947
:1051FC0094F91D00012180B202F010FA94F91E00FE
:10520C00012180B202F00AFA94F82230EBB194F941
:10521C002100012180B202F012FAFFF771FF012187
:10522C0001F099F8FFF76CFF102101F0FFF8FFF780
:10523C0067FF002101F0A0F8FFF762FF01F07AF898
:10524C0003E002F065FA01F0CBFF94F92000012194
:10525C0080B202F0E3F994F92000012180B202F04F
:10526C00EEF9012001F072FA94F92000002180B2CD
:10527C0002F0E5F90A2001F069FA94F92000012105
:10528C0080B202F0DCF92046AE21FFF751FF204638
:10529C00D521FFF74DFF20468021FFF749FF20461F
:1052AC00A821FFF745FF20463F21FFF741FF20468D
:1052BC00D321FFF73DFF20460021FFF739FF2046A1
:1052CC004021FFF735FF8D212046FFF731FF012DDF
:1052DC000CBF102114212046FFF72AFF2046202165
:1052EC00FFF726FF20460021FFF722FF2046A121D1
:1052FC00FFF71EFF2046C821FFF71AFF2046DA21D0
:10530C00FFF716FF20461221FFF712FF81212046DE
:10531C00FFF70EFF012D0CBF9F21CF212046FFF779
:10532C0007FFD9212046FFF703FF012D0CBF2221D7
:10533C00F1212046FFF7FCFE2046DB21FFF7F8FEAB
:10534C0020464021FFF7F4FE2046A421FFF7F0FE93
:10535C002046A621FFF7ECFE2046AF21BDE83840E1
:10536C00FFF7E6BE2DE9F04121210446FFF7E0FEF0
:10537C0000212046FFF7DCFE7F212046FFF7D8FEF8
:10538C0022212046FFF7D4FE00212046FFF7D0FE55
:10539C0007212046FFF7CCFE94F91D30DFF8BC80C6
:1053AC00013335D094F92100012180B202F047F984
:1053BC0094F91F00012180B202F041F994F9210007
:1053CC00002180B202F03BF9012000F081FD0025A4
:1053DC0094F8223018F805602BB1FFF791FE314696
:1053EC0001F048F805E033460122A17F607F02F00E
:1053FC0052F90135B5F5806FEAD1012000F068FD56
:10540C0094F92100012180B2BDE8F04102F017B9F6
:10541C00002502F07DF994F91B1001F01CFF02F03D
:10542C0077F9036840219B689847002602F070F9D1
:10543C00AF190368BFB29B6818F80710013698477C
:10544C00102EF3D1103502F063F9ADB201F00AFF62
:10545C00B5F5806FDDD1BDE8F08100BFECDD032038
:10546C0000F0B6BC2DE9F04F85B01E46BDF93830C2
:10547C00BDF83CA015469A1A002AB8BF52420092B9
:10548C00721A002AB8BF524201920C46009A019936
:10549C008A42814605DD32461E46134622462C467C
:1054AC001546B44205DD2A461D46134622463446AF
:1054BC0016465A1B002AB8BF5242C4EB06089D423E
:1054CC00B4BF01234FF0FF331FFA88F80293039205
:1054DC000FFA88F7022297FBF2F7B4421FDC019A0D
:1054EC00009B9342D9F80030C8BF2246D3F810B0C5
:1054FC00C8BF29465346DCBF2A4621464846D847F2
:10550C00039BFF1ABBB21FB2002F05DA029A08EBFD
:10551C00030715442DB23FB2013424B2DDE705B0C8
:10552C00BDE8F08F2DE9F347BDF82C600768BDF995
:10553C0028A000960446FF6991460D469846B84748
:10554C00236800960AF1FF324A44DF692946434634
:10555C00204612B2B847236800969F694A465346C4
:10556C0029462046B84723680A9608F1FF3129449A
:10557C009D694A46534609B22046AC4602B0BDE886
:10558C00F047604737B5013B13440468BDF8185029
:10559C0001951BB2009364690B46A04703B030BD64
:1055AC0037B5BDF8185004688DE82400013B0B4456
:1055BC0064691BB2A04703B030BD2DE9F347BDF9B8
:1055CC002880BDF82C90054617460C4601EB030AC3
:1055DC0054450BDA2B68CDF800909E692146434662
:1055EC003A4628460134B04724B2F1E702B0BDE890
:1055FC00F08713B5B0F90E200468019100920022D7
:10560C00B0F90C30646A1146A04702B010BD704767
:10561C0030B501810024084D42818181C2814FF651
:10562C00FF71012244600560447604824482027654
:10563C00C1828182827630BD947E0D002DE9F04FBF
:10564C008FB005460691BDF860100791BDF8641047
:10565C000891B0F90C1006989DF8688081427CDDA9
:10566C00B5F90E10914278DD062111FB08000028D7
:10567C0073DD02EBC80000286FDD03EB830396B2E9
:10568C000C9306F108039BB2099100240D93052C91
:10569C001CBF334B0C9A059616BF1B194FF0000913
:1056AC0013F8029004961FFA88F30393039ABDF83B
:1056BC00183004FB023213FA84F312B21BB20A92B2
:1056CC0037460FFA88FA0B9319F0010F11D0B8F185
:1056DC00010F2B6803D1D3F810B0079B14E0079A85
:1056EC000192CDF800A0D3F824B0BDF91020534698
:1056FC0018E0079B089A934217D0B8F1010F2B685A
:10570C0007D1D3F810B013463AB20B992846D847B4
:10571C000BE0089A0192CDF800A0BDF91420D3F843
:10572C0024B053460A992846D847049B039A13443D
:10573C009BB20493059B13449BB2013705930D9BBD
:10574C00BFB29F424FEA5909BED1099B013B0134BC
:10575C0013F0FF0364B2099399D10FB0BDE8F08F39
:10576C00C47E0D0030B50A2985B004460B4604D121
:10577C00027E438A03EBC20323E00D2924D0057E6D
:10578C00B0F91220B0F910100295C58A0195858ADE
:10579C000095FFF753FF227E238A91B201EB410063
:1057AC0003EB4003A07E1BB2238268B1B4F90C005A
:1057BC006FF0050505FB0202934205DD638A03EBDE
:1057CC00C103638200232382012005B030BD018216
:1057DC0042827047002908BF012101767047C182BF
:1057EC0081827047407E704701F0030101294176A8
:1057FC000389428904D0032902D08381C281704776
:10580C008281C3817047B0F90C007047B0F90E006B
:10581C00704700F0DDBA000010B5054B0360037C47
:10582C0004461BB9406808B100F00EFD204610BDBF
:10583C00C8830D0010B50446FFF7EEFF2046142177
:10584C0001F09AFF204610BD10B5034B03600446CF
:10585C00FFF7E2FF204610BDD8830D0010B50446BB
:10586C00FFF7F2FF2046302101F086FF204610BDE5
:10587C0000230122C36043610276437680F82A300C
:10588C0070470000002310B5C36001230374054B5F
:10589C0003604FF0FF3341608260C362FFF7E8FFA3
:1058AC0010BD00BFD8830D00C368826810B5934249
:1058BC003FBF42685C1CC460D15424BF012380F8F4
:1058CC002A3010BD10B54369044643B100EB4303C5
:1058DC00597E09B1FFF7E8FF6369013B6361A36877
:1058EC00E068616898424FF000022ABF5B180A54C6
:1058FC0003F8012C10BD70B50446C068A568666835
:10590C002D1A134630440A46294600F0ADFC854258
:10591C002DBFE368A368E360C01836BF0123E060C5
:10592C0084F82A3070BD0EB403B503AA52F8041BD8
:10593C000192FFF7E0FF02B05DF804EB03B0704793
:10594C002DE9F04104460E46174612B12221FFF70D
:10595C00ABFF0025715D06EB0508002971D0E268EC
:10596C00A3689A426DD20B0633D501F0F003E02BFD
:10597C0017D198F8013003F0C002802A11D105F13B
:10598C00020816F8082002F0C000802809D102F0A5
:10599C003F029B0142EA013203F47C631A4392B248
:1059AC0011E001F0E003C02B46D105F1010816F817
:1059BC00083003F0C002802A3ED1890101F4F8625C
:1059CC0003F03F031A4323492046FFF7ACFF45463B
:1059DC0035E00C2918D00BD8092921D00A2919D067
:1059EC00082929D15C212046FFF75EFF622123E0C4
:1059FC0022291BD05C2919D00D291DD15C212046F0
:105A0C00FFF752FF722117E05C212046FFF74CFF95
:105A1C00662111E05C212046FFF746FF6E210BE06A
:105A2C005C212046FFF740FF742105E05C212046F5
:105A3C00FFF73AFF98F800102046FFF735FF0135C5
:105A4C0088E72FB120462221BDE8F041FFF72CBF9B
:105A5C00BDE8F081E9830D00426900EB42031A7E38
:105A6C0012B100221A7670472C21FFF71DBFF8B532
:105A7C0043690133082B0E4617460ED8FFF7ECFF8F
:105A8C0043695A1C00EB43030124426131469C7666
:105A9C00DF76FFF709FF2046F8BD0020F8BD00F0C7
:105AAC0097B90170704738B505460C4601F030FEC9
:105ABC00297801F0CCFB01F02BFE036821469B6892
:105ACC00984701F025FE01F0CDFB002814BF6FF0C4
:105ADC000100002038BD00F07BB910B50446FFF77B
:105AEC00E0FF204610BD8821FFF7DDBF10B504464E
:105AFC0001F00EFE01F074FB2046BDE81040FFF7EC
:105B0C00F2BF70B50C46154601F002FE1D22402175
:105B1C0001F09AFB0B2601F0FBFD03681B6998470B
:105B2C00A84205D0013E0ED0012000F00FFEF2E796
:105B3C002544A5420AD001F0EBFD03685B69984748
:105B4C0004F8010BF5E76FF0010070BD002070BD8B
:105B5C0000F03EB938B504460846322161604FF476
:105B6C0016710025A1604FF47A71E1602575A5616D
:105B7C00E56125626562A562E56225636563A563DF
:105B8C00E56325646564E56425656565A565206048
:105B9C000AB1256101E00122226180B20BB1022120
:105BAC0000E0194601F03AFD204638BDC16070474F
:105BBC0081617047C164704770B504460E4600F0B1
:105BCC008FF9A36D05461BB9002E6DD001233FE064
:105BDC00012B21D1E26D821A3EB963689A4202D23E
:105BEC000023A36570BD022350E0E1688A425BD9B3
:105BFC002375236B03B19847636B03B19847A36B71
:105C0C000BB1E06B9847E36C03B19847236D0BB174
:105C1C00606D9847062339E0022B1CD1636A0BB9DF
:105C2C00A36A23B1E36DA268EB1A934208D9A36966
:105C3C0003B19847E369002BD2D0206A9847CFE78D
:105C4C00002E31D0236E6268EB1A93422CD90323B9
:105C5C00A365E56570BD032B0CD12EBBE36D6268AB
:105C6C00C31A934220D9636A03B19847A36A63B1FC
:105C7C00E06A09E0062B17D15EB9236C267503B1D7
:105C8C009847636C0BB1A06C98470023A3652566FD
:105C9C0070BD01232375E36C03B19847236D1BB1D1
:105CAC00606DBDE87040184770BD10B504460068C3
:105CBC0000280BDB80B201F0DBFC21690B1A594286
:105CCC0020465941BDE81040FFF776BF10BD00F0EB
:105CDC007FB80368C9B29B681847704710B5044673
:105CEC000179006801F0B3FA206801F0BBFAB0FA50
:105CFC0080F0400910BD38B50446154601600846D1
:105D0C0001F06EFA25712046BDE83840FFF7E6BF7A
:105D1C0038B504460D460179006801F098FA206800
:105D2C00036829469B689847206801F09BFA08B1E4
:105D3C00002038BD02222179206801F085FA206804
:105D4C0003681B6998470028F2D0206803685B69D8
:105D5C0098470546206803685B699847EDB245EAA9
:105D6C00002000B238BD0521FFF7D2BF70B5044644
:105D7C000E4601790068154601F069FA206803683F
:105D8C0031469B689847E9B22068FFF7A2FF290AC1
:105D9C002068FFF79EFF206801F064FAB0FA80F0EB
:105DAC00400970BD8AB20521FFF7E0BF00F010B8C2
:105DBC0008B5024B1B689B68019308BD6802030081
:105DCC0008B5024B1B68DB68019308BD6802030031
:105DDC0008B5024B1B681B68019308BD2C0203001D
:105DEC0008B5024B1B689B68019308BD2C0203008D
:105DFC0008B5024B1B68DB68019308BD2C0203003D
:105E0C0008B5024B1B681B69019308BD2C020300EB
:105E1C0008B5024B1B685B69019308BD2C0203009B
:105E2C0008B5024B1B681B68019308BD30020300C8
:105E3C0008B5024B1B689B68019308BD3002030038
:105E4C0008B5024B1B68DB68019308BD30020300E8
:105E5C0008B5024B1B681B69019308BD3002030097
:105E6C0008B5024B1B685B69019308BD3002030047
:105E7C0008B5024B1B68DB69019308BD30020300B7
:105E8C0008B5024B1B681B6A019308BD3002030066
:105E9C0008B5024B1B685B6A019308BD3002030016
:105EAC0008B5024B1B681B6C019308BD3002030044
:105EBC0008B5024B1B685B6C019308BD30020300F4
:105ECC0008B5024B1B685B68019308BD1802030000
:105EDC0008B5024B1B68DB68019308BD1802030070
:105EEC0008B5024B1B685B69019308BD18020300DF
:105EFC0008B5024B1B689B68019308BD4802030060
:105F0C0008B5024B1B681B69019308BD48020300CE
:105F1C0008B5024B1B685B69019308BD480203007E
:105F2C0008B5024B1B685B6C019308BD480203006B
:105F3C0008B5024B1B689B6C019308BD480203001B
:105F4C0008B5024B1B685B69019308BD6402030032
:105F5C0008B5024B1B681B68019308BD3C0203008B
:105F6C0008B5024B1B68DB68019308BD3C020300BB
:105F7C0008B5024B1B681B69019308BD3C0203006A
:105F8C0008B5024B1B685B69019308BD3C0203001A
:105F9C0008B5024B1B689B69019308BD3C020300CA
:105FAC0008B5024B1B68DB69019308BD3C0203007A
:105FBC0008B5024B1B681B6A019308BD3C02030029
:105FCC0008B5024B1B689B6A019308BD3C02030099
:105FDC0008B5024B1B68DB68019308BD280203005F
:105FEC0008B5024B1B689B69019308BD280203008E
:105FFC0008B5024B1B68DB69019308BD280203003E
:10600C0008B5024B1B681B6A019308BD28020300EC
:10601C0008B5024B1B685B6A019308BD280203009C
:10602C0008B5024B1B689B6A019308BD280203004C
:10603C0008B5024B1B68DB6A019308BD28020300FC
:10604C0008B5024B1B681B6B019308BD28020300AB
:10605C0008B5024B1B685B6B019308BD280203005B
:10606C0008B5024B1B681B6C019308BD280203008A
:10607C0008B5024B1B681B6D019308BD2802030079
:10608C0008B5024B1B681B68019308BD4C0203004A
:10609C0008B5024B1B685B68019308BD4C020300FA
:1060AC0008B5024B1B681B69019308BD4C02030029
:1060BC0008B5024B1B685B69019308BD4C020300D9
:1060CC0008B5024B1B689B69019308BD4C02030089
:1060DC0008B5024B1B68DB69019308BD4C02030039
:1060EC0008B5024B1B681B6A019308BD4C020300E8
:1060FC0008B5024B1B685B6B019308BD6002030083
:10610C0008B5024B1B685B68019308BD20020300B5
:10611C0008B5024B1B685B69019308BD20020300A4
:10612C0008B5024B1B68DB6C019308BD2002030011
:10613C0008B5024B1B685B6D019308BD2002030080
:10614C0008B5034B1B68D3F88830019308BD0000D9
:10615C002002030008B5034B1B68D3F8943001935D
:10616C0008BD00002002030008B5024B1B685B68E9
:10617C00019308BD4002030008B5024B1B689B68E5
:10618C00019308BD4002030008B5024B1B68DB6895
:10619C00019308BD4002030008B5024B1B681B6944
:1061AC00019308BD4002030008B5024B1B685B69F4
:1061BC00019308BD4002030008B5024B1B689B69A4
:1061CC00019308BD4002030008B5024B1B68DB6954
:1061DC00019308BD4002030008B5024B1B681B6A03
:1061EC00019308BD4002030008B5024B1B681B6BF2
:1061FC00019308BD4002030008B5024B1B685B6BA2
:10620C00019308BD4002030008B5024B1B685B6993
:10621C00019308BD4402030008B5024B1B681B6ABE
:10622C00019308BD4402030008B5024B1B68DB6BED
:10623C00019308BD4402030008B5024B1B681B68A0
:10624C00019308BD1C02030008B5024B1B685B6878
:10625C00019308BD1C02030008B5024B1B689B6828
:10626C00019308BD1C02030008B5024B1B685B6A56
:10627C00019308BD1C02030008B5024B1B68DB6AC6
:10628C00019308BD1C02030008B5024B1B681B6B75
:10629C00019308BD1C020300002211464068FFF761
:1062AC009BBF002211464068FFF7A6BF0022406842
:1062BC00FFF79ABF002281F001014068FFF784BF0D
:1062CC0000231A4619464068FFF776BF00231A468A
:1062DC0019464068FFF768BF002211464068FFF777
:1062EC005BBF002211464068FFF746BF0022022127
:1062FC004068FFF749BF00231A464068FFF734BFD8
:10630C00024B03225A60024A1A607047DCE30320F6
:10631C0018840D000021FFF7C3BD0021FFF7C8BD95
:10632C0010B5044601700846FFF7A2FD0023636018
:10633C00204610BD10B504460078FFF7EBFF48B9B6
:10634C0020784FF6FF71FFF76BFD2078BDE8104009
:10635C00FFF7E3BF10BD38B5044600780D46FFF7D4
:10636C00D9FF40B920782946FFF762FD2078BDE8B7
:10637C003840FFF7D2BF38BD38B5044600780D461B
:10638C00FFF7C8FF40B920782946FFF759FD207860
:10639C00BDE83840FFF7C1BF38BD0000400830B53C
:1063AC001860002418688842E5B206D90134082C1C
:1063BC0002D040081860F5E70725024B5B5D1370AF
:1063CC0030BD00BF44840D002DE9F04188B000239E
:1063DC000446007802930E461746FFF79BFF0546CE
:1063EC0000BB94F800800146142203A801F03BFB8B
:1063FC000B232A4603A94046ADF80C30FFF748FDA5
:10640C0002AB0DF1070207FB06F104988DF807505B
:10641C00FFF7C4FF20789DF80710FFF719FD2078CF
:10642C00FFF77BFF029808B0BDE8F08138B5044651
:10643C0000780D46FFF76EFFC8B9616871B10C4B5F
:10644C00C25CAA4202D001300828F9D10130C0B296
:10645C00C14001222046FFF7B7FF03E02946207810
:10646C00FFF7F6FC2078BDE83840FFF756BF38BD83
:10647C0044840D0008B50078FFF7F2FCC0B208BDEB
:10648C000078FFF7FDBC10B50446006818B1FFF7A3
:10649C00DBFE0023236010BD10B50446FFF7F3FFAD
:1064AC00204610BD10B5094C00204FF6FF7320603C
:1064BC00A080A07120816381FFF722FE2046044A50
:1064CC000449BDE8104001F049B900BFE4E30320E2
:1064DC0054E20320A5640D0010B504460068FFF7D4
:1064EC00B3FE204610BD10B50446006808B1FFF796
:1064FC00ABFE00232360A360636010BD38B5044677
:10650C000D4600680131FFF7A7FE10B184E82100A9
:10651C00012038BD10B50368044613B143688B42A3
:10652C0007D22046FFF7EAFF20B1A3680BB9226817
:10653C001370012010BD70B50E4611460446154669
:10654C00FFF7E8FF18B92046FFF7CDFF09E02A4610
:10655C003146A560206801F07BFA2268A36800210F
:10656C00D154204670BD38B5002304460360436007
:10657C00836003730D4639B1084601F0C0FA294611
:10658C0002462046FFF7D7FF204638BD884210B59B
:10659C000B46044607D0096819B19A68FFF7CBFF80
:1065AC0001E0FFF7A0FF204610BD10B50023044604
:1065BC000360436083600373FFF7E8FF204610BD60
:1065CC0038B505460C4641B1084601F098FA21460B
:1065DC0002462846FFF7AFFF01E0FFF784FF28468D
:1065EC0038BD10B50446006808B1FFF7A1FC204681
:1065FC0010BD10B5036804469B689847A368013B1F
:10660C00A3602BB923682046DB68BDE8104018470F
:10661C0010BD0B68036013B15A6801325A607047A1
:10662C0010B50446006828B14368013B43600BB9C0
:10663C00FFF7DFFF204610BD10B5064C00232046A7
:10664C002360FFF76DFC2046034A0449BDE8104067
:10665C0001F084B8F0E3032054E20320EF650D0051
:10666C00F8B506460D468F180024BD420CD0336891
:10667C0015F8011B9B6830469847002801DB044441
:10668C00F3E7002C08BF04462046F8BD70B505465C
:10669C000C46084649B101F032FA2B6802462146F5
:1066AC002846DB68BDE87040184770BD08B5FFF799
:1066BC00EDFF08BD03689B68184738B50D210546EA
:1066CC00FFF7F8FF0A2104462846FFF7F3FF2044A2
:1066DC0038BD38B50546FFF7D9FF04462846FFF705
:1066EC00ECFF204438BD30B58BB00B4600218DF843
:1066FC002410012A98BF0A220DF12304B3FBF2F5F2
:10670C0005FB123303F0FF03092B94BF30333733EF
:10671C00DBB2214604F801392B46002DEED1FFF7F0
:10672C00B5FF0BB030BD0000014B024A1A60704738
:10673C00F4E30320BF840D00024B1A68024B1A606D
:10674C00704700BFECE10320F8E303200021FFF7C2
:10675C00DFBC10B58368044613B103220146984789
:10676C00204610BD10B50446FFF7F3FF204610BDC0
:10677C0013B50B46044603C88DE8030093E80300E9
:10678C0084E803009DE8030083E8030002B010BD19
:10679C000348044A04490023836000F0DFBF00BFB4
:1067AC00FCE3032054E2032071670D0008B50C4B89
:1067BC0033B100F01BFC03681B699847002809DC07
:1067CC00084B63B100F094FC03681B6998470028E0
:1067DC0003DC08BDAFF30080F2E7AFF3008008BD27
:1067EC00000000000000000008B5FFF7DFFFFFF716
:1067FC0077FB014B186008BD30E703200248034AC1
:10680C000349121A01F024B900F4032004F4032004
:10681C0070870D0007B5002300931A466FF07701BF
:10682C00FFF798FC03B05DF804FB000007B5438844
:10683C000A2B08D0502B09D1094B1B683BB103B074
:10684C005DF804EB1847FFF7E5FF06E00023009323
:10685C001A466FF07701FFF77DFC03B05DF804FB7F
:10686C000CE4032038B5104C104D2368AB42104B90
:10687C000CBF012200221A7002D0FFF7BFFF256067
:10688C00FFF71EFB044601F0F7F80A4B13B1204644
:10689C00AFF3008000210748FFF7C6FC0021064833
:1068AC00BDE83840FFF74CBC00F403201E1C279AAF
:1068BC0010E403200000000039680D007047002030
:1068CC00704710B51021044600F056FF204610BD4D
:1068DC0008B508B1FFF7F5FF08BD0022026010B53E
:1068EC004FF69C728280B1F9044084808A800268E1
:1068FC000C6804600A6010BD10B504460068FFF710
:10690C00A3FC204610BD38B5C468F4B12378022B23
:10691C0003D104F10C00FFF7EFFF656835B1284691
:10692C00FFF717FF1021284600F026FFA56835B1A8
:10693C002846FFF70EFF1021284600F01DFF2046C9
:10694C001421BDE8384000F017BF38BD13B504461C
:10695C0091E8050000234B600B602060626001A889
:10696C0001930093FFF75CFE204602B010BDF7B513
:10697C000C4602AD54F8043B45F8083D06460F465C
:10698C0001A82146FFF745FE29463046FFF7DEFFFA
:10699C0001A8FFF745FE2046FFF742FE38460821C6
:1069AC0000F0EAFE304603B0F0BD000038B500231D
:1069BC000446036010200D46FDF767FB28B1012348
:1069CC0043608360024B0360C5602060204638BD85
:1069DC005C850D00826810B50AB900F0E0FEC36852
:1069EC00BDE81040184708B5006800F11001FFF72A
:1069FC00F1FF08BD826810B50AB900F0D0FEC3687B
:106A0C00BDE81040184708B5006800F11001FFF709
:106A1C00F1FF08BD38B5002383608B6804460D4632
:106A2C002BB102229847EB68E360AB68A360204669
:106A3C0038BD0000F0B589B004686846FFF74DFF1B
:106A4C0000238DF808304FF00202D4E84F3F002BA2
:106A5C0003D1C4E8412F0029F7D102D08DF80830BA
:106A6C0063E014F10C0503D069462846FFF735FFA7
:106A7C00BFF35F8F01236370002004F10803BFF3A1
:106A8C005F8F53E8006F43E80002002AF9D1BFF38F
:106A9C005F8F002E49D0FFF743FB20B129463046CB
:106AAC00FFF798FF3AE0314602A8FFF7B3FFE06822
:106ABC00B4F9105008B101F007F806901020ADF8A9
:106ACC001C50FDF7E2FA0546E8B100278760182054
:106ADC00FDF7DBFA044688B10146876002A8FFF790
:106AEC0047FE049BA268A360059B049206A9E2687A
:106AFC00E36004F110000592FFF7EFFE0D4BEB6025
:106B0C000D4B2C60AB6006A8FFF7F6FE02A8FFF752
:106B1C0020FE002229460948FFF70AFB3046FFF702
:106B2C0018FE1021304600F027FE6846FFF7E4FE01
:106B3C0009B0F0BDF3690D00696C0D0049710D00D1
:106B4C002DE9F04F8BB006460F46904699469DF8BE
:106B5C0050A0FFF759FB07AD834630BB4FF62E73A1
:106B6C00059005A92846ADF81830FFF7B6FE14209D
:106B7C00FDF78BFA044658B10223037001234370CE
:106B8C00C0F804B0C0F808B029460C30FFF7A5FED9
:106B9C003046214640F8044BFFF708FF2846FFF724
:106BAC00ABFE05A8FFF7A8FE52E000240C2314202E
:106BBC006C60AC600793FDF768FA014618B104707D
:106BCC0044704460846004A80391FFF7EFFE224BED
:106BDC0008930820FDF759FA044628B1039B40F8A6
:106BEC00043B04A9FFF715FD00955FFA8AF34A46AA
:106BFC00414638460994FFF70FFB20B9039B5B789D
:106C0C0003F0FF0283B1039B059304A906A8FFF7C9
:106C1C0000FD05A93046FFF799FE06A8FFF700FD19
:106C2C0004A8FFF7FDFC13E04FF69C7305A903A81D
:106C3C000592ADF81830FFF7FDFE05A8FFF75CFED6
:106C4C0005A80999FFF793FE06A8FFF7E9FCDAE718
:106C5C0030460BB0BDE8F08FD96D0D00022AF8B5A7
:106C6C00044606D0032A17D0012A22D10B680360F0
:106C7C001FE018200E68FDF708FA054650B13146A2
:106C8C00FFF7C8FE3069B6F9147008B100F01CFFAC
:106C9C002861AF8225600CE0046854B104F1100047
:106CAC00FFF72AFE2046FFF754FD1821204600F07E
:106CBC0063FD0020F8BD38B5002383608B68044663
:106CCC000D462BB102229847EB68E360AB68A360DA
:106CDC00204638BD022A70B5044606D0032A11D0CE
:106CEC00012A18D10B68036015E014200E68FDF71B
:106CFC00CCF9054620B13146FFF7DDFF337C2B7410
:106D0C00256008E0046834B12046FFF722FD142109
:106D1C00204600F031FD002070BD0000F0B50023CE
:106D2C0087B00C46BFF35F8F50E8006F40E800322D
:106D3C00002AF9D1BFF35F8F002E3FD01846FFF722
:106D4C00EFF9074620B121463046FFF753FE2EE0FF
:106D5C00314601A8FFF7AFFF23788DF814301020CF
:106D6C00FDF793F90546D0B187601420FDF78DF936
:106D7C00044678B18760014601A8FFF7F9FC039B34
:106D8C00A268A360049B0392E268E3609DF8143050
:106D9C00049223740A4BEB600A4B2C60AB6001A885
:106DAC00FFF7D7FC002229460748FFF7C1F9304608
:106DBC00FFF7CFFC1021304600F0DEFC07B0F0BD31
:106DCC00136A0D00E16C0D0049710D0030B585B0F2
:106DDC0004460D4668461146FFF7C9FD7CB124B246
:106DEC0028460DB100F070FE029002A96846ADF87D
:106DFC000C40FFF71FFE02A8FFF77EFD1DE0009878
:106E0C008DF808404FF00102D0E84F3FA34203D168
:106E1C00C0E8412F0029F7D102D08DF808300CE0E2
:106E2C0010F10C014FF0010318BF0373BFF35F8F18
:106E3C00043000F8033CFFF771FF01A8FFF7F0FBEB
:106E4C0005B030BD704710B51821044600F094FC15
:106E5C00204610BDF0B5037D062B8DB00E4600F11B
:106E6C0004074FF0000402D000F1080518E00CAD47
:106E7C00394605F8304D2F232A460A20FFF760F8D3
:106E8C00284600F03CFE33680246DB682946304653
:106E9C0098470FE024B12E213046FFF70BFC044439
:106EAC0015F8011D0A223046FFF71DFCBD420444B3
:106EBC00F0D120460DB0F0BD10B5054B04461122A3
:106ECC0040F8043B002100F0CEFD204610BD00BF71
:106EDC0078850D000346074A10B543F8042B01F1E1
:106EEC00100251F8044B43F8044B9142F9D10A7843
:106EFC001A7010BD78850D0010B59DF8084044EA55
:106F0C00032343EA024242EA016104234160037510
:106F1C0010BD37B50D788B784A78C9780091294621
:106F2C00FFF7EAFF03B030BD41747047704708B5F6
:106F3C000021007CFFF7C4F830EA200028BF4FF096
:106F4C00FF3008BD08B50121007CFFF7B9F830EA25
:106F5C00200028BF4FF0FF3008BD08B5007CFFF7BC
:106F6C00A7F820EAE07008BD08B5007CFFF798F898
:106F7C0020EAE07008BD007CFFF7B2B810B5142110
:106F8C00044600F0F9FB204610BD38B50446007CE1
:106F9C000D46FFF78DF8002801DC607C28B12946EE
:106FAC00207CFFF795F820EAE07038BD10B5044658
:106FBC00002363604FF47A73A360054B23600123B5
:106FCC000846217463741146FFF75AF8204610BD29
:106FDC008C850D000022007CFFF75AB810B51422E6
:106FEC000446002100F03FFD204610BD30B50E4D8B
:106FFC0087B001A8FFF7F2FF296811F0010410D146
:10700C002846FDF753F860B101AA21460748FFF75F
:10701C00CDFF2846FDF74FF8054A0649034800F016
:10702C009DFB024807B030BD14E4032018E4032094
:10703C0054E20320396F0D0070474174704708B556
:10704C00007CFEF7BDFF20EAE07008BD08B5007CAF
:10705C00FEF78EFF20EAE07008BD08B5007CFEF755
:10706C0097FF30EA200028BF4FF0FF3008BD08B56D
:10707C00007CFEF785FF30EA200028BF4FF0FF3080
:10708C0008BD007CFEF78CBF10B51421044600F03F
:10709C0073FB204610BD70B5457C04460E4625B9E1
:1070AC00007CFEF78DFF002805DD3146207CBDE815
:1070BC007040FEF755BF284670BD000010B5044661
:1070CC0008461146002262604FF47A72A260054AAB
:1070DC0022600122207462741A46FEF739FF2046A2
:1070EC0010BD00BFBC850D00007CFEF761BF000029
:1070FC0038B50C4D296811F0010411D12846FCF764
:10710C00D5FF68B1084A094B09482146FFF7D6FF5D
:10711C002846FCF7D0FF074A0749054800F01EFB3C
:10712C00034838BDC4E40320C8E4032040E4032032
:10713C002CE4032054E2032045700D0010B5836845
:10714C0004460BB900F02BFBC3689847A3681BB12E
:10715C00032221462046984720461021BDE81040C6
:10716C0000F00ABB7047F8B5064615460C468F185A
:10717C00BC4206D0336814F8011B9B683046984714
:10718C00F6E72846F8BD0022007CFEF739BF002147
:10719C00007CFEF73DBF0021007CFEF741BF0021C3
:1071AC00007CFEF745BF0021007CFEF749BF10B5FF
:1071BC001421044600F0E0FA204610BD10B5044638
:1071CC00002363604FF47A73A360044B2174084668
:1071DC0023601146FEF744FF204610BDEC850D00E0
:1071EC0000231A461946007CFEF7F2BE70B50C4619
:1071FC0086B0142506462A46002101A800F033FC6F
:10720C0023788DF8083063680393E36804930022B5
:10721C00237A307CADF8045001A90593FEF728FFC2
:10722C0006B070BD1FB500338DF800104FF064012F
:10723C00039118BF0123694601928DF80830FFF7BE
:10724C00D5FF05B05DF804FB0123FFF7EBBF00226F
:10725C00007CFEF7C5BEC9B2FFF7F9BF0022007C67
:10726C00FEF7C6BE0121FFF7F9BF0021007CFEF737
:10727C00EFBE002211464068FEF7AEBF0022114659
:10728C004068FEF7B9BF00224068FEF7ADBF002290
:10729C0081F001014068FEF797BF00231A460121D7
:1072AC004068FEF789BF00231A4619464068FEF76E
:1072BC007BBF002211464068FEF76EBF00221146CC
:1072CC004068FEF759BF002202214068FEF75CBF00
:1072DC0000231A464068FEF747BF38B5054688B10B
:1072EC0004684CB1A3681BB1032221462046984781
:1072FC001021204600F040FA28461421BDE8384001
:10730C0000F03ABA38BD10B103685B681847704793
:10731C0010B503680446BBB15868FEF7E9FD78B9AF
:10732C0023685A7C12B95868FEF7EAFD236858683E
:10733C00FEF7EEFD20680023236028B1FFF7CDFF98
:10734C00206808B1FFF7C9FF204610BD38B50446C8
:10735C00D0F8C40108B1FCF79CFED4F8C00108B108
:10736C00FEF7E6FDD4F8BC5135B12846FFF7D0FF47
:10737C000421284600F000FA206808B1FFF7C3FF8B
:10738C00204638BD10B5044B044640F8083BFFF7C7
:10739C00DDFF204610BD00BF14860D0038B50E4C25
:1073AC000E4B23600025022304F5E4706360A56096
:1073BC00C4F8C451C4F8C851FEF7B2FD084BC4F868
:1073CC00CC5184F8D05123602046064A0649BDE8CA
:1073DC00384000F0C3B900BF4CE503207C860D009B
:1073EC0014860D0054E2032091730D000022114607
:1073FC004068FEF7D1BE002211464068FEF7ECBE95
:10740C00002211464068FEF7F7BE00224068FEF7E6
:10741C00EBBE002281F001014068FEF7D5BE0023CF
:10742C001A4619464068FEF7C7BE00231A4619468D
:10743C004068FEF7B9BE002211464068FEF79CBEBC
:10744C00002202214068FEF79FBE00231A464068C6
:10745C00FEF78ABE024B04225A60024A1A60704739
:10746C0020E7032048860D0000231A464068FEF7EB
:10747C007BBE002202214068FEF786BE0022114628
:10748C004068FEF779BE002211464068FEF784BEC4
:10749C0000231A4619464068FEF786BE00231A469A
:1074AC0019464068FEF788BE002281F00101406851
:1074BC00FEF78ABE00224068FEF796BE00221146F7
:1074CC004068FEF799BE002211464068FEF784BE64
:1074DC002DE9F043002495B016460D460746FFF7FC
:1074EC00EBFC214620220CA8009400F0BCFA4023AF
:1074FC000C9321466B460CAA3046FEF761FC044601
:10750C00002844D1024601216868FEF745FE02219D
:10751C00804622466868FEF73FFE009E8146214663
:10752C00002E34D0002932D17368022B02D00A2BE2
:10753C0009D02AE0B8F1000F27D071693846043120
:10754C00FFF7E7FC20E0B9F1000F1ED0746911229F
:10755C0001A800F088FA06238DF8143001AD04F16F
:10756C0008031834186859682A4603C20833A34222
:10757C001546F7D101A906A807ADFFF7ABFC0FCD57
:10758C003C1D0FC42B6823700121F669C8E70098D5
:10759C00FEF70EFC384615B0BDE8F083024B034AEB
:1075AC001A6000225A60704728E703207C860D0081
:1075BC0070B5184E316811F0010504460AD13046F9
:1075CC00FCF774FD30B129461348FEF7A9FE30468E
:1075DC00FCF771FD1048FEF753FF28B1A4F10B0323
:1075EC00022B01D8002070BD00F092F8FFF73DFE91
:1075FC0008B1012CF6D9FFF77BFDFFF775FD18B12B
:10760C00A4F10903012BEDD9232C8CBF0020012000
:10761C0070BD00BFD0E30320D4E30320232838B58A
:10762C0004460D460AD8FF2908D0FFF7C1FF28B140
:10763C0029462046BDE83840FEF7D2BB38BD38B5E8
:10764C0004460D46FEF7D4FBFF2810D0062804D8BC
:10765C004D2323FA00F0C30709D42046FFF7A8FFF7
:10766C0028B129462046BDE83840FEF7C9BB38BDD5
:10767C0010B50446FEF7BCFB0438C0B2012808D98B
:10768C002046FFF795FF20B12046BDE81040FEF7DD
:10769C00BFBB002010BD2DE9F04190461E460724CB
:1076AC0007460D46B8F1000F04D1C4F1070146FAA4
:1076BC0001F101E046FA04F101F001013846FFF74F
:1076CC00BEFF01212846FFF7BAFF00212846FFF72D
:1076DC00B6FF14F1FF34E5D2BDE8F08170B5044675
:1076EC0014252A46094E002100F0BDF925802025DD
:1076FC003146A5602561284600F040F831466060AF
:10770C00284600F03BF8E060204670BDA8860D00CE
:10771C0030B50E4D296811F0010487B013D12846FD
:10772C00FCF7C4FC78B101A8FFF7D8FF01AA2146E9
:10773C000748FFF743FD2846FCF7BDFC054A064900
:10774C00034800F00BF8024807B030BD34E70320C3
:10775C0038E7032054E2032071710D000B460146FB
:10776C00184600F067B90000024B1868BFF35F8F32
:10777C00704700BF4CE70320FCF789BC00F000B851
:10778C0010B5002814BF044601242046FEF754FD12
:10779C0020B9FFF7E9FF08B18047F6E710BD08B53F
:1077AC00FEF76AFD184B1A68D1075CBF01221A60FC
:1077BC00164B1A68D2075CBF01221A60144B1A6868
:1077CC00D0075CBF01221A60124B1A68D1075CBF4C
:1077DC0001221A60104B1A68D2075CBF01221A6092
:1077EC000E4B1A68D0075CBF01221A600C4B1A684A
:1077FC00D1075CBF01221A600A4B1A68D2075CBF22
:10780C0001221A60704700BF6CE7032068E7032071
:10781C0064E7032060E703205CE7032058E70320BC
:10782C0054E7032050E70320244B1A68D0075CBFB1
:10783C0001221A60224B1A68D1075CBF01221A6020
:10784C00204B1A68D2075CBF01221A601E4B1A68C3
:10785C00D0075CBF01221A601C4B1A68D1075CBFB1
:10786C0001221A601A4B1A68D2075CBF01221A60F7
:10787C00184B1A68D0075CBF01221A60164B1A68A5
:10788C00D1075CBF01221A60144B1A68D2075CBF87
:10789C0001221A60124B1A68D0075CBF01221A60D1
:1078AC00104B1A68D1075CBF01221A600E4B1A6884
:1078BC00D2075CBF01221A60704700BF9CE703200F
:1078CC0098E7032094E7032090E703208CE703203C
:1078DC0088E7032084E7032080E703207CE703206C
:1078EC0078E7032074E7032070E70320244B1A6821
:1078FC00D0075CBF01221A60224B1A68D1075CBF0B
:10790C0001221A60204B1A68D2075CBF01221A6050
:10791C001E4B1A68D0075CBF01221A601C4B1A68F8
:10792C00D1075CBF01221A601A4B1A68D2075CBFE0
:10793C0001221A60184B1A68D0075CBF01221A602A
:10794C00164B1A68D1075CBF01221A60144B1A68D7
:10795C00D2075CBF01221A60124B1A68D0075CBFB9
:10796C0001221A60104B1A68D1075CBF01221A6001
:10797C000E4B1A68D2075CBF01221A60704700BF19
:10798C00CCE70320C8E70320C4E70320C0E70320AB
:10799C00BCE70320B8E70320B4E70320B0E70320DB
:1079AC00ACE70320A8E70320A4E70320A0E703200B
:1079BC00184B1A68D1075CBF01221A60164B1A6863
:1079CC00D2075CBF01221A60144B1A68D0075CBF47
:1079DC0001221A60124B1A68D1075CBF01221A608F
:1079EC00104B1A68D2075CBF01221A600E4B1A6842
:1079FC00D0075CBF01221A600C4B1A68D1075CBF20
:107A0C0001221A600A4B1A68D2075CBF01221A6065
:107A1C00704700BFECE70320E8E70320E4E703200E
:107A2C00E0E70320DCE70320D8E70320D4E70320BA
:107A3C00D0E7032010B5054C13462CB10A4601467D
:107A4C000220AFF3008010BD204610BD00000000E6
:107A5C0010B5431E0A44914204D011F8014B03F8AF
:107A6C00014FF8E710BD02440346934202D003F8DD
:107A7C00011BFAE77047000038B5124B1C68A36B6A
:107A8C000546D3B91820FEF7D7FB43F20E33A0639B
:107A9C0003804AF6CD33438041F2342383804EF287
:107AAC006D63C3804DF6EC630381052343810B2387
:107ABC00838101220023C0E90423A36B00221D61F2
:107ACC005A6138BD50E20320024B0146186800F0A1
:107ADC0003B800BF50E2032070B5064608460C46BA
:107AEC0000F00DF8451C29463046FEF7CDFB064646
:107AFC0018B12A462146FFF7ABFF304670BD03464E
:107B0C0013F8012B002AFBD1181A0138704700001A
:107B1C001D400D0059400D0085400D0089400D00A1
:107B2C00000000000000000000000000F9410D0002
:107B3C000D420D004D454E550052455455524E00C8
:107B4C0077726F6E6720636865636B53756D212167
:107B5C002121002D2D2D2D2D2D2D2D2D2D2D2D2D8E
:107B6C002D2D2D2D2D2D2D2D2D2D2D2D2D2D2D2D39
:107B7C002D2D2D2D2D2D2D2D2D2D2D2D2D2D2D2D29
:107B8C002D2D2D2D2D2D2D2D2D2D2D2D2D005365E8
:107B9C007269616C20737461727400484D333330B8
:107BAC005820696E6974206661696C6564212121B5
:107BBC00006C616C616C610044757374205265617A
:107BCC0064696E6700504D3100504D323500504D98
:107BDC00313000496D20696E20746865206D656ECA
:107BEC007500706D312E30204C6F773A00706D310E
:107BFC002E3020486967683A00706D322E35204C63
:107C0C006F773A00706D322E3520486967683A00FC
:107C1C00706D3130204C6F773A00706D31302048E8
:107C2C006967683A003E00504D312E303A2000759D
:107C3C00672F6D3300504D322E353A2000504D31A8
:107C4C00303A20200025640044757374310044756B
:107C5C007374323500447573743130004475737429
:107C6C0052656164696E677300484D333330582038
:107C7C007265616420726573756C74206661696CE1
:107C8C006564212121005374617274696E6720440C
:107C9C006973706C6179005072696E74696E6720DB
:107CAC00436F6E63656E74726174696F6E730050AE
:107CBC004D322E352044617461006C617374506DCB
:107CCC003235680073656E736F72206E756D3A2075
:107CDC0000504D312E3020636F6E63656E7472618F
:107CEC0074696F6E2843463D312C5374616E646128
:107CFC00726420706172746963756C617465206D57
:107D0C0061747465722C756E69743A75672F6D3376
:107D1C00293A2000504D322E3520636F6E63656E0C
:107D2C0074726174696F6E2843463D312C537461D3
:107D3C006E6461726420706172746963756C6174D5
:107D4C0065206D61747465722C756E69743A756713
:107D5C002F6D33293A2000504D313020636F6E6304
:107D6C00656E74726174696F6E2843463D312C5395
:107D7C0074616E6461726420706172746963756C95
:107D8C00617465206D61747465722C756E69743ADA
:107D9C0075672F6D33293A2000504D312E302063FA
:107DAC006F6E63656E74726174696F6E2841746D69
:107DBC006F7370686572696320656E7669726F6E39
:107DCC006D656E742C756E69743A75672F6D3329F9
:107DDC003A2000504D322E3520636F6E63656E7401
:107DEC00726174696F6E2841746D6F73706865721F
:107DFC00696320656E7669726F6E6D656E742C7535
:107E0C006E69743A75672F6D33293A2000504D31E5
:107E1C003020636F6E63656E74726174696F6E2867
:107E2C0041746D6F7370686572696320656E7669F5
:107E3C00726F6E6D656E742C756E69743A75672F02
:107E4C006D33293A20000000000000000000000003
:107E5C00C9400D00754C0D0071570D006D660D007D
:107E6C003D500D0071540D00C54E0D00514D0D00CF
:107E7C0031550D00C7550D00FF550D001B560D005B
:107E8C0000000000000000000000000000000000E6
:107E9C0071570D006D660D00A5400D0071540D005D
:107EAC0091550D00AD550D0031550D00C7550D0008
:107EBC00FF550D001B560D0000000000003E5B4FEF
:107ECC005B3E3E6B4F6B3E1C3E7C3E1C183C7E3C2E
:107EDC00181C577D571C1C5E7F5E1C00183C18003C
:107EEC00FFE7C3E7FF0018241800FFE7DBE7FF30CC
:107EFC00483A060E2629792926407F050507407F3A
:107F0C0005253F5A3CE73C5A7F3E1C1C08081C1CAC
:107F1C003E7F14227F22145F5F005F5F06097F01A2
:107F2C007F006689956A606060606094A2FFA2948D
:107F3C0008047E040810207E201008082A1C08085B
:107F4C001C2A08081E101010100C1E0C1E0C3038A9
:107F5C003E3830060E3E0E06000000000000005FAA
:107F6C0000000007000700147F147F14242A7F2AC6
:107F7C001223130864623649562050000807030088
:107F8C00001C2241000041221C002A1C7F1C2A08D4
:107F9C00083E080800807030000808080808000037
:107FAC0060600020100804023E5149453E00427FAB
:107FBC00400072494949462141494D331814127FFA
:107FCC001027454545393C4A49493141211109079A
:107FDC003649494936464949291E0000140000001B
:107FEC0040340000000814224114141414140041ED
:107FFC0022140802015909063E415D594E7C1211AA
:10800C00127C7F494949363E414141227F414141E1
:10801C003E7F494949417F090909013E414151735C
:10802C007F0808087F00417F41002040413F017FCD
:10803C00081422417F404040407F021C027F7F0495
:10804C0008107F3E4141413E7F090909063E4151DE
:10805C00215E7F09192946264949493203017F01CE
:10806C00033F4040403F1F2040201F3F4038403FCF
:10807C00631408146303047804036159494D4300E5
:10808C007F4141410204081020004141417F04021C
:10809C0001020440404040400003070800205454B3
:1080AC0078407F2844443838444444283844442891
:1080BC007F385454541800087E090218A4A49C78E4
:1080CC007F0804047800447D40002040403D007F40
:1080DC001028440000417F40007C047804787C0820
:1080EC000404783844444438FC18242418182424F4
:1080FC0018FC7C08040408485454542404043F44D9
:10810C00243C4040207C1C2040201C3C4030403C07
:10811C0044281028444C9090907C4464544C440067
:10812C0008364100000077000000413608000201CB
:10813C000204023C2623263C1EA1A161123A4040B7
:10814C00207A385454555921555579412154547835
:10815C0041215554784020545579400C1E527212CE
:10816C003955555559395454545939555454580056
:10817C0000457C410002457D420001457C40F029D0
:10818C002429F0F0282528F07C545545002054541F
:10819C007C547C0A097F4932494949323248484863
:1081AC0032324A4848303A4141217A3A42402078AA
:1081BC00009DA0A07D39444444393D4040403D3CA5
:1081CC0024FF2424487E4943662B2FFC2F2BFF09C8
:1081DC0029F620C0887E09032054547941000044BC
:1081EC007D413048484A32384040227A007A0A0AA7
:1081FC00727D0D19317D2629292F2826292929261A
:10820C0030484D4020380808080808080808382F5E
:10821C0010C8ACBA2F102834FA00007B00000814E8
:10822C002A142222142A1408AA005500AAAA55AA14
:10823C0055AA000000FF00101010FF00141414FFCA
:10824C00001010FF00FF1010F010F0141414FC00BC
:10825C001414F700FF0000FF00FF1414F404FC14C6
:10826C001417101F10101F101F1414141F001010BF
:10827C0010F0000000001F101010101F1010101034
:10828C00F010000000FF101010101010101010FF54
:10829C0010000000FF140000FF00FF00001F10176B
:1082AC000000FC04F414141710171414F404F40054
:1082BC0000FF00F714141414141414F700F714141A
:1082CC0014171410101F101F141414F4141010F0A1
:1082DC0010F000001F101F0000001F14000000FC15
:1082EC00140000F010F01010FF10FF141414FF1401
:1082FC001010101F00000000F010FFFFFFFFFFF038
:10830C00F0F0F0F0FFFFFF0000000000FFFF0F0F88
:10831C000F0F0F38444438447C2A2A3E147E020244
:10832C000606027E027E0263554941633844443C92
:10833C0004407E201E2006027E020299A5E7A59924
:10834C001C2A492A1C4C7201724C304A4D4D30305B
:10835C0048784830BC625A463D3E494949007E0146
:10836C0001017E2A2A2A2A2A44445F444440514A65
:10837C00444040444A51400000FF0103E080FF00AC
:10838C000008086B6B083612362436060F090F06E8
:10839C00000018180000001010003040FF01010010
:1083AC001F01011E00191D1712003C3C3C3C000033
:1083BC0000000000000000000000000025580D0027
:1083CC0041580D00000000000000000055580D0041
:1083DC0069580D00256C750025303478005C7525C6
:1083EC0030345800747275650066616C73650025D5
:1083FC002E2A6600256600252E2A6C6600256C66E2
:10840C0000000000000000000000000003630D00ED
:10841C00F9620D00EF620D00E5620D00D9620D00EE
:10842C00CD620D00C1620D00B9620D00AF620D008E
:10843C00A5620D00DD740D000008101820283038DE
:10844C00626175640053657269616C005365726991
:10845C00616C31007479706500706172616D0063DC
:10846C006D6400696400686E64007374726D0066FC
:10847C00696C74006C766C0061646448616E646C49
:10848C0065720072656D6F766548616E646C6572BD
:10849C0000656E756D48616E646C657273004A534D
:1084AC004F4E53747265616D4C6F6748616E646CAE
:1084BC0065720061707000253031307520005D20D0
:1084CC00002C200028293A2000205B00636F646593
:1084DC00203D200025690064657461696C73203D42
:1084EC0020000D0A006C6E00666E00636F64650000
:1084FC0064657461696C006E6F6E650074726163A3
:10850C006500696E666F007761726E006572726FDE
:10851C00720070616E696300616C6C005A00252BEF
:10852C003033643A253032750025592D256D2D25B3
:10853C00645425483A254D3A2553257A00617363D6
:10854C0074696D6500000000000000000000000070
:10855C00C9680D00CF680D0013690D00DD680D00B2
:10856C00CB680D000000000000000000616E0D00E3
:10857C00516E0D00536E0D00000000000000000055
:10858C00396F0D00896F0D00976F0D006D660D0032
:10859C00756F0D003B6F0D00516F0D00836F0D005B
:1085AC00676F0D00356F0D0000000000000000002B
:1085BC0045700D0095700D00A3700D006D660D00DB
:1085CC0059700D007B700D0067700D008F700D00E1
:1085DC0047700D004B700D00000000000000000003
:1085EC0071710D00BB710D0093710D0073710D0055
:1085FC009B710D00A3710D00AB710D00B3710D00DB
:10860C000000000000000000DD720D00D3720D00B0
:10861C00C9720D00BF720D00B3720D00A7720D0070
:10862C009B720D0093720D0089720D007F720D000C
:10863C00DD740D00000000000000000057740D00F8
:10864C004D740D0043740D00F9730D0037740D005B
:10865C002B740D001F740D0017740D000D740D009C
:10866C0003740D00DD740D0000000000000000001C
:10867C0075740D007F740D0089740D0093740D00DA
:10868C009D740D00A9740D00B5740D00C1740D001E
:10869C00C9740D00D3740D00DD740D0000000000D2
:1086AC0000000000000000000000000000000000BE
:1086BC0000000000000000000000000000000000AE
:1086CC00000000000000000000000000000000009E
:1086DC00000000000000000000000000000000008E
:1086EC00000000000000000000000000000000007E
:1086FC00000000000000000000000000000000006E
:10870C0043000000854C0D006D540D001F580D00EA
:10871C00AB5A0D00E35A0D005D5B0D00DB5C0D00E8
:10872C00B95D0D000D630D00B1640D0045660D00C3
:10873C0035670D0045670D009D670D00A9730D0091
:10874C0061740D00A9750D00B1770D0035780D0021
:10875C00F9780D00BD790D0000000000000000004C
:04876C000000000009
:048770000000000005
:10877400060000000800000064000000070000007C
:1087840032000000D07C0D00DD7C0D00207D0D004A
:10879400637D0D00A57D0D00DF7D0D00197E0D00AC
:1087A40064000000050000003200000064000000C6
:1087B40032000000000103070F1F3F7F0080C0E06C
:1087C400F0F8FCFE000000000000000000000000C3
:1087D4000000000000000000000000000000000095
:1087E4000000000000000000000000000000000085
:1087F4000000000000000000000000000000000075
:1088040000000080808000000000000000000000E4
:1088140000000000008080C0C000000000000000D4
:108824000000000000000000000000000000000044
:108834000000000000000000000000000000000034
:108844000000000000000000000000000000000024
:10885400000000000000000080C0E0F0F8FCF8E038
:108864000000000000000000000000000000000004
:1088740000808080808000808000000000808080F4
:10888400808000FFFFFF00000000808080800000E7
:108894008080000080FFFF808000808000808080D6
:1088A400800080800000000000808000008C8E84A6
:1088B400000080F8F8F880000000000000000000CC
:1088C40000000000F0F0F0F0F0F0F0F0F0F0F0F064
:1088D400E0E0C08000E0FCFEFFFFFF7FFFFFFFFF42
:1088E400FF0000000000000000000000000000FE87
:1088F400FFC70101010183FFFF00007CFEC70101E6
:10890400010183FFFFFF0038FEC78301010183C714
:10891400FFFF000001FFFF010100FFFF070101014C
:1089240000007FFF80000000FFFF7F0000FFFFFFCB
:10893400000001FFFFFF0100000000000000000034
:1089440000000000030F3F7F7FFFFFFFFFFFFFFFDB
:10895400E7C7C78F8F9FBFFFFFC3C0F0FFFFFFFFB5
:10896400FFFCFCFCFCFCFCFCFCF8F8F0F0E0C000B4
:1089740001030303030301030300000000010303D5
:1089840003030101030100000001030303030101C8
:1089940003030000000303000000030300000000C1
:1089A40000000001030303030301000000010301AD
:1089B40000000003030100000000000000000000AC
:1089C4000000000000000080C0E0F0F9FFFFFFFF9E
:1089D400FF3F1F0F87C7F7FFFF1F1F3DFCF8F8F885
:1089E400F87C7DFFFFFFFFFFFFFFFF7F3F0F0700C6
:1089F4003030000000000000000000000000000013
:108A04000000000000000000FEFEFC00000000006A
:108A14000000000000000000000000000000000052
:108A240000E0C00000000000000000000000303042
:108A34000000000000000000000000000000000032
:108A44000000000000C0FEFFFFFFFFFFFFFFFFFF6D
:108A54007F7F3F1F0F071F7FFFFFF8F8FFFFFFFF18
:108A6400FFFEF8E00000000100000000000000002C
:108A7400FEFE000000FCFEFC0C06060EFCF80000E6
:108A8400F0F81C0E0606060CFFFFFF0000FEFE00B9
:108A9400000000FCFEFC00183C7E66E6CE8400006C
:108AA40006FFFF0606FCFEFC0C0606060000FEFEA2
:108AB4000000C0F8FC4E4646464E7C7840183C7692
:108AC400E6CECC80000000000000000000000000A2
:108AD400000000000000000001070F1F1F3F3F3F80
:108AE4003F1F0F0300000000000000000000000012
:108AF4000F0F0000000F0F0F000000000F0F000009
:108B040003070E0C18180C060F0F0F0000010F0EB0
:108B14000C180C0F070100040E0C180C0F070000B2
:108B2400000F0F00000F0F0F0000000000000F0FD8
:108B340000000007070C0C181C0C060600040E0CA1
:108B4400180C0F07000000000000000000000000E7
:108B54000000000000000000000000000000000011
:108B64000000000000000000000000000000000001
:108B740000000000000000000000000000000000F1
:108B840000000000000000000000000000000000E1
:108B940000000000000000000000000000000000D1
:108BA40000000000000000000000000000000000C1
:108BB40000000000000000000000000000000000B1
:108BC4000000000049850D0000000000AC860D0087
:108BD400CC860D00EC860D000000000000000000B3
:108BE40000000000000000000C870D0000000000E1
:108BF4000000000000000000000000000000000071
:108C04000000000000000000000000000000000060
:108C14000000000000000000000000000000000050
:0C8C24000000000000000000F0E1032050
:108C3000FFFFFFFF00000102030405060708090A01
:108C40000B0C0D0E0F101112131415161718191AFC
:088C50001B1C1D1E1F20280043
:048C58007856341204
:04000003D000401CCD
:00000001FF
