:02000002D0002C
:1040000000400D0000820D00000006000C000501BC
:084010000401DE0500000000C0
:0440180068710D00BE
:10401C0009480A49884208B505D0094A824202D0AB
:10402C00121A03F03BF80748074A0021121A03F052
:10403C0040F8014808BD00BFACDE0320447D0D00F4
:10404C0040E3032040E30320F0E7032070B501F0C8
:10405C0035FF074C074BE41AA40800251E46A54261
:10406C0004D056F8253098470135F8E770BD00BFED
:10407C00407D0D00F47C0D0000F0AAB808B500F0EE
:10408C00E3F9BDE8084001F0DBBE01F0E7BB01F04D
:10409C00EDBB01F0EBBB000008B5034A00210C207E
:1040AC0001F038FBFEE700BF01550D000078B0FAB7
:1040BC0080F040097047012303707047704700007F
:1040CC0010B5034B0360044601F05EF8204610BDAA
:1040DC0084710D0010B50446FFF7F2FF20464FF433
:1040EC00987102F06FFE204610BD38B50D4604469F
:1040FC0080B102F0A7FA214601F004FE02F0A2FA08
:10410C000A220446294601F01AFE204601F001FE5F
:10411C00002038BD4FF0FF3038BD000070B50546AB
:10412C0078B1094E00242B1956F814009978DB78D5
:10413C00023443EA0121FFF7D8FF0E2CF3D1002003
:10414C0070BD4FF0FF3070BDACDE032038B50546B6
:10415C00A0B3002402F076FA1022295D01F0EFFDE5
:10416C0002F070FA174901F0CDFD052394FBF3F32F
:10417C0003EB83039C4200D024B902F063FA12498A
:10418C0001F0D3FD01341C2CE4D16A1E05F11B0196
:10419C00002312F8010F03448A42DBB2F9D12A7FC3
:1041AC009A4204D002F04EFA084901F0BEFD02F02A
:1041BC0049FA054901F0B9FD002038BD4FF0FF3038
:1041CC0038BD00BF8C710D00D47A0D008F710D00BD
:1041DC0010B502F037FA4FF4165102F027FA41F2FB
:1041EC00883001F0DFFD02F02DFA224901F09DFD2F
:1041FC0002F028FA204901F098FD204800F077FFE2
:10420C00044628B102F01EFA1D4901F08EFDFEE7AE
:10421C0002F0A4FD02F010FB3C220221194800F030
:10422C001DFC184800F06AFD164800F0E9FC224617
:10423C000321144800F021FF0121124800F025FF52
:10424C000221104800F01CFF0F490E4801F05AFDE6
:10425C000C4800F0D5FC0D490D4801F0DDFC0D4972
:10426C000D4801F0D9FC0D490D48BDE8104001F096
:10427C00D3BC00BFA2710D00DD710D0058E303200B
:10428C00EA710D0074E3032000720D000D720D0035
:10429C0044E3032011720D0098E3032016720D0005
:1042AC005CE30320F8B506460C4617462AB90368AA
:1042BC00C9B29B689847054610E0002907DA0A2A1C
:1042CC0005D12D2101F022FD6142054601E0214678
:1042DC000025FAB2304601F032FD0544304601F0BB
:1042EC0018FD2844F8BD000010B51A4C204600F00B
:1042FC0005FD2046022100F0C3FE2046012100F0FE
:10430C00C4FE00221146204600F0B7FE124920469A
:10431C0001F0F8FC114B0A2219682046FFF7C2FF86
:10432C000F49204601F0EEFC0E4B0A22196820467C
:10433C00FFF7B8FF0C49204601F0E4FC0B4B20467C
:10434C000A221968FFF7AEFF2046BDE8104000F0C6
:10435C0057BC00BF74E303201B720D0054E3032011
:10436C0022720D00A8E3032029720D0070E30320D4
:10437C0070B504460E46154601F00EF80122314682
:10438C00204600F07DFF20463A2100F02DFF2A4602
:10439C0020460249BDE8704000F065BF2F720D0049
:1043AC0070B5D2B0144606460D464FF4807212A971
:1043BC0006A800F007FF1E4B06937D227B2106A862
:1043CC0000F0F5FF32461B4906A8FFF7D1FF2A463D
:1043DC00194906A8FFF7CCFF2246184906A8FFF793
:1043EC00C7FF06A800F00EFF079B0393144B039A1C
:1043FC001B788DF8003013493C2304A801F0CCFE47
:10440C00059C7CB16368013B63605BB92368204603
:10441C009B689847A368013BA3601BB9236820469F
:10442C00DB68984706A8FFF74BFE52B070BD00BF83
:10443C0084710D0032720D0038720D003F720D0048
:10444C006CE3032046720D002DE9F0411D228CB067
:10445C003B493C4800F056FE20B102F0F3F83A49D3
:10446C0001F063FC364C4FF0140802F0EBF83749BE
:10447C00374D384F384E01F058FC3148FFF766FE87
:10448C0002F0E0F8354901F050FC2D48FFF746FEEC
:10449C0002F0D8F8324901F048FCA27AE37A217B89
:1044AC0043EA02232B60637BA27B43EA0121E37B7B
:1044BC00316043EA02233B602A4B5869FFF715FE33
:1044CC0002F0C0F8284901F030FC02F0BBF80A22D7
:1044DC002968FFF7E7FE02F0B5F80A223168FFF70A
:1044EC00E1FE02F0AFF80A223968FFF7DBFE1F4944
:1044FC00684601F086FB1E4904A801F082FB1D49A9
:10450C0008A801F07EFB08AA04A96846FFF7ECFE98
:10451C0008A801F00DFB04A801F00AFB684601F0A5
:10452C0007FB41F2883001F03DFCB8F101089CD149
:10453C003A6831682868FFF733FF0CB0BDE8F081AA
:10454C00ACE3032058E3032053720D0070720D008E
:10455C0054E3032070E30320A8E3032081720D00D1
:10456C0099720D00ACDE0320D47A0D0044E30320D5
:10457C0098E303205CE3032010B52421044602F0E9
:10458C0021FC204610BD0000F8B51B4B1B4D1C4CEC
:10459C001C4E1D4F01221A7000F034FF40211B48A5
:1045AC0000F09CFD4FF0FF31284600F0F9F922464F
:1045BC001749284602F0F8FB164D3146384601F0F3
:1045CC00FEFA3846144F2246294602F0EDFB3146DE
:1045DC00384601F0F4FA3846104F2246294602F0CC
:1045EC00E3FB3146384601F0EAFA224629463846C2
:1045FC00BDE8F84002F0D8BB6CE3032074E3032061
:10460C0040E30320D47A0D0044E3032058E3032055
:10461C00C9400D003D5B0D0098E303205CE30320D3
:10462C00F0B5447EBDF81450022C08D0032C0FD0EA
:10463C00012C70D10489013CA21A12B20CE04489FD
:10464C00013CA21A0489E41A611A12B209B262E09E
:10465C004489E41A611A09B2002A5BDBB0F90840FC
:10466C00944240F390800029BEBF5B181BB200211E
:10467C00B0F90A00CC188442C4BF431A1BB2002BF9
:10468C0040F38180C9B2C8083F4F02EBC01211F051
:10469C000701DBB207EB020417D0C1F10801C8B265
:1046AC003A4983420E5C3FBFC3EB000EFF2141FA37
:1046BC000EF10E40B95C012D0CBF3143B143834266
:1046CC00B95460D3181AC3B28034072B17D9012DF3
:1046DC000CBFFF20002004F180011A46083AD2B228
:1046EC00072A01F8800C01F18001F7D8A3F1080228
:1046FC00C2F3C402013204EBC21403F00703002B13
:10470C0041D0234AD25C2378012D0CBF1343934331
:10471C002370F0BDF0BD002A35DBB0F90A4094429D
:10472C0031DD0029BCBFC9180BB2B0F90870B8BF95
:10473C000021CE18BE42C4BF631A1BB2002B22DD6F
:10474C00D01001EBC011104802F007020144012007
:10475C0000FA02F28542D2B209D1013B1BB25C1CB9
:10476C0011D011F8010B104301F8010CF5E7D243FD
:10477C00D2B2013B1BB2581C05D011F8010B1040F2
:10478C0001F8010CF5E7F0BDD8DE0320D0DE0320E4
:10479C00C8DE0320F0B5447EBDF81450022C08D0BE
:1047AC00032C0FD0012C12D10489E41AA21A12B2D4
:1047BC006DE00489013C611A4489E41AA21A09B219
:1047CC0012B204E04489013C611A09B25FE000298D
:1047DC005CDBB0F908408C4240F39180002ABCBFEE
:1047EC00D21813B2B0F90A00B8BF0022D418844210
:1047FC00C4BF831A1BB2002B40F38180D4B2404E4D
:10480C00DAB2E30801EBC31114F0070406EB010361
:10481C0017D0C4F10804E0B23A4C8242275C3FBF87
:10482C00C2EB000EFF2444FA0EF42740745C012DF9
:10483C000CBF3C43BC438242745460D3101AC2B2C6
:10484C008033072A17D9012D0CBFFF24002403F154
:10485C00800011460839C9B2072900F8804C00F1D4
:10486C008000F7D8A2F10801C1F3C401013103EBB8
:10487C00C11302F00702002A41D02349895C1A783F
:10488C00012D0CBF0A438A431A70F0BDF0BD0029FC
:10489C0035DBB0F90A408C4231DD002ABCBFD2189E
:1048AC0013B2B0F90870B8BF0022D618BE42C4BF0C
:1048BC00A31A1BB2002B22DDC81002EBC012104849
:1048CC0001F007011044012202FA01F19542C9B22C
:1048DC0009D15A1E13B25C1C11D010F8012B0A43DB
:1048EC0000F8012CF5E7C943C9B25A1E13B25A1C81
:1048FC0005D010F8012B0A4000F8012CF5E7F0BDAB
:10490C00D8DE0320D0DE0320C8DE0320F8B50D1E50
:10491C00064614461F463FDB00F0BCFB85423BDAE3
:10492C00002C39DB304600F0B8FB844234DA3046D8
:10493C0000F0AEFB022827D131897089013901388A
:10494C00491B001B0DB204B206E0012804D13389C7
:10495C00013B1B1B2C461DB20820012F94FBF0F0D1
:10496C0000B20E4B04F0070205EBC01104D19740C6
:10497C005A5C17435F54F8BD585C012707FA02F2E2
:10498C0020EA02025A54F8BD0328DED17389013B98
:10499C005B1B25461CB2DFE7F8BD00BFD8DE032049
:1049AC0038B5402204460D46802100F087FA064BAC
:1049BC002360FF23637784F82130E377A37784F8AF
:1049CC002050204638BD00BF30740D0038B590F92A
:1049DC001D30013304460D4628D090F921000121E9
:1049EC0080B202F044F994F91F00002180B202F069
:1049FC003EF994F92100002180B202F038F994F8C4
:104A0C0022302BB102F070F9294601F051F805E083
:104A1C002B460122A17F607F02F042F994F921001C
:104A2C00012180B2BDE8384002F021B902F096F9BC
:104A3C0094F91B1001F03BFF02F090F90368002180
:104A4C009B68984702F08AF9036829469B68984747
:104A5C0002F084F9BDE8384001F030BF38B50446A7
:104A6C000D46217790F91D30C276013337D090F97D
:104A7C001F00012180B202F0E9F894F92100012114
:104A8C0080B202F0E3F894F822305BB994F91D007F
:104A9C00012180B202F0DAF894F91E00012180B2F3
:104AAC0002F0D4F894F82230EBB194F921000121F2
:104ABC0080B202F0DCF802F017F9012100F069FF76
:104ACC0002F012F9102100F0CFFF02F00DF90021D5
:104ADC0000F070FF02F008F900F04AFF03E002F06A
:104AEC003DF901F0A9FE94F92000012180B202F0F9
:104AFC00ADF894F92000012180B202F0B8F8012041
:104B0C0001F050F994F92000002180B202F0AFF8C6
:104B1C000A2001F047F994F92000012180B202F03B
:104B2C00A6F82046AE21FFF751FF2046D521FFF70E
:104B3C004DFF20468021FFF749FF2046A821FFF7B3
:104B4C0045FF20463F21FFF741FF2046D321FFF7C9
:104B5C003DFF20460021FFF739FF20464021FFF79B
:104B6C0035FF8D212046FFF731FF012D0CBF1021A1
:104B7C0014212046FFF72AFF20462021FFF726FFAD
:104B8C0020460021FFF722FF2046A121FFF71EFF40
:104B9C002046C821FFF71AFF2046DA21FFF716FF3F
:104BAC0020461221FFF712FF81212046FFF70EFF4E
:104BBC00012D0CBF9F21CF212046FFF707FFD921E4
:104BCC002046FFF703FF012D0CBF2221F1212046C7
:104BDC00FFF7FCFE2046DB21FFF7F8FE20464021C4
:104BEC00FFF7F4FE2046A421FFF7F0FE2046A62195
:104BFC00FFF7ECFE2046AF21BDE83840FFF7E6BEDC
:104C0C002DE9F04121210446FFF7E0FE002120466A
:104C1C00FFF7DCFE7F212046FFF7D8FE222120463D
:104C2C00FFF7D4FE00212046FFF7D0FE07212046D7
:104C3C00FFF7CCFE94F91D30DFF8BC80013335D082
:104C4C0094F92100012180B202F011F894F91F00AF
:104C5C00012180B202F00BF894F92100002180B2FE
:104C6C0002F005F8012000F045FC002594F82230F4
:104C7C0018F805602BB102F037F8314600F018FF38
:104C8C0005E033460122A17F607F02F009F801356F
:104C9C00B5F5806FEAD1012000F02CFC94F92100CD
:104CAC00012180B2BDE8F04101F0E1BF002502F026
:104CBC0055F894F91B1001F0FAFD02F04FF8036857
:104CCC0040219B689847002602F048F8AF1903680A
:104CDC00BFB29B6818F8071001369847102EF3D115
:104CEC00103502F03BF8ADB201F0E8FDB5F5806F80
:104CFC00DDD1BDE8F08100BFD8DE03204FF4806227
:104D0C000021014802F0D5B9D8DE032000F07ABBAF
:104D1C002DE9F04F85B01E46BDF93830BDF83CA0EA
:104D2C0015469A1A002AB8BF52420092721A002AEB
:104D3C00B8BF524201920C46009A01998A428146B0
:104D4C0005DD32461E46134622462C461546B44215
:104D5C0005DD2A461D4613462246344616465A1B86
:104D6C00002AB8BF5242C4EB06089D42B4BF0123CF
:104D7C004FF0FF331FFA88F8029303920FFA88F76B
:104D8C00022297FBF2F7B4421FDC019A009B93427C
:104D9C00D9F80030C8BF2246D3F810B0C8BF294696
:104DAC005346DCBF2A4621464846D847039BFF1A88
:104DBC00BBB21FB2002F05DA029A08EB03071544A9
:104DCC002DB23FB2013424B2DDE705B0BDE8F08F5F
:104DDC002DE9F347BDF82C600768BDF928A00096B3
:104DEC000446FF6991460D469846B84723680096DD
:104DFC000AF1FF324A44DF6929464346204612B283
:104E0C00B847236800969F694A4653462946204670
:104E1C00B84723680A9608F1FF3129449D694A4630
:104E2C00534609B22046AC4602B0BDE8F047604795
:104E3C0037B5013B13440468BDF8185001951BB2FB
:104E4C00009364690B46A04703B030BD37B5BDF87D
:104E5C00185004688DE82400013B0B4464691BB2B4
:104E6C00A04703B030BD2DE9F347BDF92880BDF84C
:104E7C002C90054617460C4601EB030A54450BDAF9
:104E8C002B68CDF800909E69214643463A46284649
:104E9C000134B04724B2F1E702B0BDE8F08713B596
:104EAC00B0F90E200468019100920022B0F90C3088
:104EBC00646A1146A04702B010BD704730B501813D
:104ECC000024084D42818181C2814FF6FF7101227D
:104EDC00446005604476048244820276C1828182F9
:104EEC00827630BD68740D002DE9F04F8FB0054609
:104EFC000691BDF860100791BDF864100891B0F9E7
:104F0C000C1006989DF8688081427CDDB5F90E1076
:104F1C00914278DD062111FB0800002873DD02EBBD
:104F2C00C80000286FDD03EB830396B20C9306F1E7
:104F3C0008039BB2099100240D93052C1CBF334B25
:104F4C000C9A059616BF1B194FF0000913F8029026
:104F5C0004961FFA88F30393039ABDF8183004FBE8
:104F6C00023213FA84F312B21BB20A9237460FFACA
:104F7C0088FA0B9319F0010F11D0B8F1010F2B68BF
:104F8C0003D1D3F810B0079B14E0079A0192CDF827
:104F9C0000A0D3F824B0BDF91020534618E0079BAD
:104FAC00089A934217D0B8F1010F2B6807D1D3F8A8
:104FBC0010B013463AB20B992846D8470BE0089A22
:104FCC000192CDF800A0BDF91420D3F824B05346BB
:104FDC000A992846D847049B039A13449BB204931E
:104FEC00059B13449BB2013705930D9BBFB29F42A7
:104FFC004FEA5909BED1099B013B013413F0FF0361
:10500C0064B2099399D10FB0BDE8F08F98740D007C
:10501C0030B50A2985B004460B4604D1027E438A7A
:10502C0003EBC20323E00D2924D0057EB0F9122036
:10503C00B0F910100295C58A0195858A0095FFF785
:10504C0053FF227E238A91B201EB410003EB400314
:10505C00A07E1BB2238268B1B4F90C006FF0050579
:10506C0005FB0202934205DD638A03EBC1036382F5
:10507C0000232382012005B030BD0182428270479B
:10508C00002908BF012101767047C18281827047D7
:10509C00407E7047B0F90C007047B0F90E007047B5
:1050AC0000F0B0B90170704738B505460C4601F0F8
:1050BC0055FE297801F0F7FB01F050FE03682146FC
:1050CC009B68984701F04AFE01F0F8FB002814BFDA
:1050DC006FF00100002038BD00F094B910B5044603
:1050EC00FFF7E0FF204610BD8821FFF7DDBF10B5AC
:1050FC00044601F033FE01F09FFB2046BDE8104052
:10510C00FFF7F2BF70B50C46154601F027FE1D22C5
:10511C00402101F0C5FB0B2601F020FE03681B6942
:10512C009847A84205D0013E0ED0012000F03AFE6F
:10513C00F2E72544A5420AD001F010FE03685B6932
:10514C00984704F8010BF5E76FF0010070BD0020E3
:10515C0070BD00F057B9000010B5054B0360037C1F
:10516C0004461BB9406808B100F080FB204610BD16
:10517C009C790D0010B50446FFF7EEFF2046142174
:10518C0001F020FE204610BD10B5034B0360044611
:10519C00FFF7E2FF204610BDAC790D0010B50446B8
:1051AC00FFF7F2FF2046302101F00CFE204610BD27
:1051BC0000230122C36043610276437680F82A30D3
:1051CC0070470000002310B5C36001230374054B26
:1051DC0003604FF0FF3341608260C362FFF7E8FF6A
:1051EC0010BD00BFAC790D00C368826810B5934246
:1051FC003FBF42685C1CC460D15424BF012380F8BB
:10520C002A3010BD10B54369044643B100EB43038B
:10521C00597E09B1FFF7E8FF6369013B6361A3683D
:10522C00E068616898424FF000022ABF5B180A548C
:10523C0003F8012C10BD70B50446C068A5686668FB
:10524C002D1A134630440A46294600F01FFB8542AE
:10525C002DBFE368A368E360C01836BF0123E0608C
:10526C0084F82A3070BD0EB403B503AA52F8041B9F
:10527C000192FFF7E0FF02B05DF804EB03B070475A
:10528C002DE9F04104460E46174612B12221FFF7D4
:10529C00ABFF0025715D06EB0508002971D0E268B3
:1052AC00A3689A426DD20B0633D501F0F003E02BC4
:1052BC0017D198F8013003F0C002802A11D105F102
:1052CC00020816F8082002F0C000802809D102F06C
:1052DC003F029B0142EA013203F47C631A4392B20F
:1052EC0011E001F0E003C02B46D105F1010816F8DE
:1052FC00083003F0C002802A3ED1890101F4F86223
:10530C0003F03F031A4323492046FFF7ACFF454601
:10531C0035E00C2918D00BD8092921D00A2919D02D
:10532C00082929D15C212046FFF75EFF622123E08A
:10533C0022291BD05C2919D00D291DD15C212046B6
:10534C00FFF752FF722117E05C212046FFF74CFF5C
:10535C00662111E05C212046FFF746FF6E210BE031
:10536C005C212046FFF740FF742105E05C212046BC
:10537C00FFF73AFF98F800102046FFF735FF01358C
:10538C0088E72FB120462221BDE8F041FFF72CBF62
:10539C00BDE8F081BD790D00426900EB42031A7E35
:1053AC0012B100221A7670472C21FFF71DBFF8B5F9
:1053BC0043690133082B0E4617460ED8FFF7ECFF56
:1053CC0043695A1C00EB43030124426131469C762D
:1053DC00DF76FFF709FF2046F8BD0020F8BD00F08E
:1053EC0011B8000008B5024B1B689B68019308BDFF
:1053FC006802030008B5024B1B68DB68019308BD0B
:10540C006802030008B5024B1B681B68019308BDBA
:10541C002C02030008B5024B1B689B68019308BD66
:10542C002C02030008B5024B1B68DB68019308BD16
:10543C002C02030008B5024B1B681B69019308BDC5
:10544C002C02030008B5024B1B681B68019308BDB6
:10545C003002030008B5024B1B689B68019308BD22
:10546C003002030008B5024B1B68DB68019308BDD2
:10547C003002030008B5024B1B681B69019308BD81
:10548C003002030008B5024B1B685B69019308BD31
:10549C003002030008B5024B1B68DB69019308BDA1
:1054AC003002030008B5024B1B681B6A019308BD50
:1054BC003002030008B5024B1B685B6A019308BD00
:1054CC003002030008B5024B1B681B6C019308BD2E
:1054DC003002030008B5024B1B685B6C019308BDDE
:1054EC003002030008B5024B1B685B68019308BDD2
:1054FC001802030008B5024B1B68DB68019308BD5A
:10550C001802030008B5024B1B685B69019308BDC8
:10551C001802030008B5024B1B689B68019308BD79
:10552C004802030008B5024B1B681B69019308BDB8
:10553C004802030008B5024B1B685B69019308BD68
:10554C004802030008B5024B1B685B6C019308BD55
:10555C004802030008B5024B1B689B6C019308BD05
:10556C004802030008B5024B1B685B69019308BD38
:10557C006402030008B5024B1B681B68019308BD4D
:10558C003C02030008B5024B1B68DB68019308BDA5
:10559C003C02030008B5024B1B681B69019308BD54
:1055AC003C02030008B5024B1B685B69019308BD04
:1055BC003C02030008B5024B1B689B69019308BDB4
:1055CC003C02030008B5024B1B68DB69019308BD64
:1055DC003C02030008B5024B1B681B6A019308BD13
:1055EC003C02030008B5024B1B689B6A019308BD83
:1055FC003C02030008B5024B1B68DB68019308BD35
:10560C002802030008B5024B1B689B69019308BD77
:10561C002802030008B5024B1B68DB69019308BD27
:10562C002802030008B5024B1B681B6A019308BDD6
:10563C002802030008B5024B1B685B6A019308BD86
:10564C002802030008B5024B1B689B6A019308BD36
:10565C002802030008B5024B1B68DB6A019308BDE6
:10566C002802030008B5024B1B681B6B019308BD95
:10567C002802030008B5024B1B685B6B019308BD45
:10568C002802030008B5024B1B681B6C019308BD74
:10569C002802030008B5024B1B681B6D019308BD63
:1056AC002802030008B5024B1B681B68019308BD58
:1056BC004C02030008B5024B1B685B68019308BDE4
:1056CC004C02030008B5024B1B681B69019308BD13
:1056DC004C02030008B5024B1B685B69019308BDC3
:1056EC004C02030008B5024B1B689B69019308BD73
:1056FC004C02030008B5024B1B68DB69019308BD23
:10570C004C02030008B5024B1B681B6A019308BDD1
:10571C004C02030008B5024B1B685B6B019308BD80
:10572C006002030008B5024B1B685B68019308BD5F
:10573C002002030008B5024B1B685B69019308BD8E
:10574C002002030008B5024B1B68DB6C019308BDFB
:10575C002002030008B5024B1B685B6D019308BD6A
:10576C002002030008B5034B1B68D3F88830019363
:10577C0008BD00002002030008B5034B1B68D3F8DA
:10578C009430019308BD00002002030008B5024BC1
:10579C001B685B68019308BD4002030008B5024B0F
:1057AC001B689B68019308BD4002030008B5024BBF
:1057BC001B68DB68019308BD4002030008B5024B6F
:1057CC001B681B69019308BD4002030008B5024B1E
:1057DC001B685B69019308BD4002030008B5024BCE
:1057EC001B689B69019308BD4002030008B5024B7E
:1057FC001B68DB69019308BD4002030008B5024B2E
:10580C001B681B6A019308BD4002030008B5024BDC
:10581C001B681B6B019308BD4002030008B5024BCB
:10582C001B685B6B019308BD4002030008B5024B7B
:10583C001B685B69019308BD4402030008B5024B69
:10584C001B681B6A019308BD4402030008B5024B98
:10585C001B68DB6B019308BD4402030008B5024BC7
:10586C001B681B68019308BD1C02030008B5024BA2
:10587C001B685B68019308BD1C02030008B5024B52
:10588C001B689B68019308BD1C02030008B5024B02
:10589C001B685B6A019308BD1C02030008B5024B30
:1058AC001B68DB6A019308BD1C02030008B5024BA0
:1058BC001B681B6B019308BD1C02030000221146E0
:1058CC004068FFF79BBF002211464068FFF7A6BF58
:1058DC0000224068FFF79ABF002281F00101406866
:1058EC00FFF784BF00231A4619464068FFF776BFBE
:1058FC0000231A4619464068FFF768BF002211467C
:10590C004068FFF75BBF002211464068FFF746BFB7
:10591C00002202214068FFF749BF00231A46406865
:10592C00FFF734BF024B03225A60024A1A607047D9
:10593C00CCE30320EC790D00704710B50C21044624
:10594C0001F040FA204610BD0021FFF7BBBD00213D
:10595C00FFF7C0BD10B5054B036004460171084646
:10596C00FFF798FD0023A360204610BD207A0D00A0
:10597C0010B504460079FFF7E7FF48B920794FF6D8
:10598C00FF71FFF75FFD2079BDE81040FFF7DFBF27
:10599C0010BD38B5044600790D46FFF7D5FF40B968
:1059AC0020792946FFF756FD2079BDE83840FFF7EE
:1059BC00CEBF38BD38B5044600790D46FFF7C4FF9D
:1059CC0040B920792946FFF74DFD2079BDE83840D4
:1059DC00FFF7BDBF38BD0000400830B5186000248B
:1059EC0018688842E5B206D90134082C02D0400868
:1059FC001860F5E70725024B5B5D137030BD00BFE7
:105A0C00287A0D002DE9F04188B000230446007976
:105A1C0002930E461746FFF797FF054600BB94F816
:105A2C0004800146142203A801F043FB0B232A46F1
:105A3C0003A94046ADF80C30FFF73CFD02AB0DF16D
:105A4C00070207FB06F104988DF80750FFF7C4FF17
:105A5C0020799DF80710FFF70DFD2079FFF777FFF0
:105A6C00029808B0BDE8F08138B5044600790D46BF
:105A7C00FFF76AFFC8B9A16871B10C4BC25CAA42AE
:105A8C0002D001300828F9D10130C0B2C140012246
:105A9C002046FFF7B7FF03E029462079FFF7EAFC21
:105AAC002079BDE83840FFF752BF38BD287A0D0089
:105ABC0038B5044600790D46FFF746FF40B9294634
:105ACC002079FFF7DFFC05462079FFF740FF00E067
:105ADC000025E8B238BD0079FFF7E4BC10B50446E8
:105AEC00006818B1FFF7C2FE0023236010BD10B58B
:105AFC000446FFF7F3FF204610BD000010B5094C1B
:105B0C0000204FF6FF732060A080A071208163817C
:105B1C00FFF708FE2046044A0449BDE8104001F096
:105B2C0043B900BFD4E3032040E30320FB5A0D002C
:105B3C0010B504460068FFF799FE204610BD10B55D
:105B4C000446006808B1FFF791FE00232360A360B0
:105B5C00636010BD38B504460D4600680131FFF78F
:105B6C008DFE10B184E82100012038BD10B503680A
:105B7C00044613B143688B4207D22046FFF7EAFF75
:105B8C0020B1A3680BB922681370012010BD70B549
:105B9C000E46114604461546FFF7E8FF18B9204695
:105BAC00FFF7CDFF09E02A463146A560206801F0D9
:105BBC0075FA2268A3680021D154204670BD38B50F
:105BCC000023044603604360836003730D4639B1C0
:105BDC00084601F0BAFA294602462046FFF7D7FFDD
:105BEC00204638BD884210B50B46044607D00968DC
:105BFC0019B19A68FFF7CBFF01E0FFF7A0FF204631
:105C0C0010BD10B50023044603604360836003732A
:105C1C00FFF7E8FF204610BD38B505460C4641B1EC
:105C2C00084601F092FA214602462846FFF7AFFFDC
:105C3C0001E0FFF784FF284638BD10B50446006824
:105C4C0008B1FFF787FC204610BD10B50368044669
:105C5C009B689847A368013BA3602BB92368204637
:105C6C00DB68BDE81040184710BD0B68036013B12A
:105C7C005A6801325A60704710B50446006828B162
:105C8C004368013B43600BB9FFF7DFFF204610BDB3
:105C9C0010B5064C002320462360FFF753FC20462A
:105CAC00034A0449BDE8104001F07EB8E0E303204C
:105CBC0040E30320475C0D00F8B506460D468F18EF
:105CCC000024BD420CD0336815F8011B9B6830468C
:105CDC009847002801DB0444F3E7002C08BF044676
:105CEC002046F8BD70B505460C46084649B101F092
:105CFC002CFA2B68024621462846DB68BDE870402A
:105D0C00184770BD08B5FFF7EDFF08BD03689B6829
:105D1C00184738B50D210546FFF7F8FF0A21044650
:105D2C002846FFF7F3FF204438BD38B50546FFF78A
:105D3C00D9FF04462846FFF7ECFF204438BD30B5A8
:105D4C008BB00B4600218DF82410012A98BF0A2233
:105D5C000DF12304B3FBF2F505FB123303F0FF0343
:105D6C00092B94BF30333733DBB2214604F80139A9
:105D7C002B46002DEED1FFF7B5FF0BB030BD000068
:105D8C00014B024A1A607047E4E30320A37A0D002A
:105D9C00024B1A68024B1A60704700BFD8E203200E
:105DAC00E8E303200021FFF7C5BC10B58368044667
:105DBC0013B1032201469847204610BD10B5044686
:105DCC00FFF7F3FF204610BD13B50B46044603C87E
:105DDC008DE8030093E8030084E803009DE80300CA
:105DEC0083E8030002B010BD0348044A04490023B1
:105DFC00836000F0D9BF00BFECE3032040E3032035
:105E0C00C95D0D0008B50C4B33B100F01BFC0368E9
:105E1C001B699847002809DC084B63B100F094FC1F
:105E2C0003681B699847002803DC08BDAFF30080AA
:105E3C00F2E7AFF3008008BD000000000000000096
:105E4C0008B5FFF7DFFFFFF75DFB014B186008BDDE
:105E5C0030E703200248034A0349121A01F01EB925
:105E6C0000F4032004F40320407D0D0007B500234B
:105E7C0000931A466FF07701FFF77EFC03B05DF8D4
:105E8C0004FB000007B543880A2B08D0502B09D11E
:105E9C00094B1B683BB103B05DF804EB1847FFF7E7
:105EAC00E5FF06E0002300931A466FF07701FFF739
:105EBC0063FC03B05DF804FBFCE3032038B5104C25
:105ECC00104D2368AB42104B0CBF012200221A70FC
:105EDC0002D0FFF7BFFF2560FFF704FB044601F07B
:105EEC00F1F80A4B13B12046AFF3008000210748AC
:105EFC00FFF7ACFC00210648BDE83840FFF732BC88
:105F0C0000F403201E1C279A00E40320000000006C
:105F1C00915E0D0070470020704710B510210446AB
:105F2C0000F050FF204610BD08B508B1FFF7F5FF93
:105F3C0008BD0022026010B54FF69C728280B1F948
:105F4C00044084808A8002680C6804600A6010BD7A
:105F5C0010B504460068FFF789FC204610BD38B523
:105F6C00C468F4B12378022B03D104F10C00FFF7C1
:105F7C00EFFF656835B12846FFF717FF102128465B
:105F8C0000F020FFA56835B12846FFF70EFF102161
:105F9C00284600F017FF20461421BDE8384000F0D9
:105FAC0011BF38BD13B5044691E8050000234B60C2
:105FBC000B602060626001A801930093FFF75CFE08
:105FCC00204602B010BDF7B50C4602AD54F8043BA8
:105FDC0045F8083D06460F4601A82146FFF745FE49
:105FEC0029463046FFF7DEFF01A8FFF745FE2046A5
:105FFC00FFF742FE3846082100F0E4FE304603B0BD
:10600C00F0BD000038B500230446036010200D4697
:10601C00FEF73BF828B1012343608360024B036019
:10602C00C5602060204638BD407B0D00826810B5ED
:10603C000AB900F0DAFEC368BDE81040184708B58D
:10604C00006800F11001FFF7F1FF08BD826810B580
:10605C000AB900F0CAFEC368BDE81040184708B57D
:10606C00006800F11001FFF7F1FF08BD38B50023FF
:10607C0083608B6804460D462BB102229847EB686F
:10608C00E360AB68A360204638BD0000F0B589B072
:10609C0004686846FFF74DFF00238DF808304FF079
:1060AC000202D4E84F3F002B03D1C4E8412F002952
:1060BC00F7D102D08DF8083063E014F10C0503D051
:1060CC0069462846FFF735FFBFF35F8F01236370E6
:1060DC00002004F10803BFF35F8F53E8006F43E81F
:1060EC000002002AF9D1BFF35F8F002E49D0FFF7D1
:1060FC0029FB20B129463046FFF798FF3AE031469C
:10610C0002A8FFF7B3FFE068B4F9105008B101F032
:10611C0001F806901020ADF81C50FDF7B6FF0546AF
:10612C00E8B1002787601820FDF7AFFF044688B15F
:10613C000146876002A8FFF747FE049BA268A36094
:10614C00059B049206A9E268E36004F11000059235
:10615C00FFF7EFFE0D4BEB600D4B2C60AB6006A810
:10616C00FFF7F6FE02A8FFF720FE00222946094899
:10617C00FFF7F0FA3046FFF718FE1021304600F01A
:10618C0021FE6846FFF7E4FE09B0F0BD4B600D0040
:10619C00C1620D00A1670D002DE9F04F8BB00646D2
:1061AC000F46904699469DF850A0FFF73FFB07AD70
:1061BC00834630BB4FF62E73059005A92846ADF8E3
:1061CC001830FFF7B6FE1420FDF75FFF044658B1F8
:1061DC000223037001234370C0F804B0C0F808B068
:1061EC0029460C30FFF7A5FE3046214640F8044BFB
:1061FC00FFF708FF2846FFF7ABFE05A8FFF7A8FE40
:10620C0052E000240C2314206C60AC600793FDF763
:10621C003CFF014618B1047044704460846004A8CB
:10622C000391FFF7EFFE224B08930820FDF72DFF9B
:10623C00044628B1039B40F8043B04A9FFF715FD65
:10624C0000955FFA8AF34A46414638460994FFF7AF
:10625C00F5FA20B9039B5B7803F0FF0283B1039B33
:10626C00059304A906A8FFF700FD05A93046FFF722
:10627C0099FE06A8FFF700FD04A8FFF7FDFC13E04C
:10628C004FF69C7305A903A80592ADF81830FFF7DB
:10629C00FDFE05A8FFF75CFE05A80999FFF793FE24
:1062AC0006A8FFF7E9FCDAE730460BB0BDE8F08F43
:1062BC0031640D00022AF8B5044606D0032A17D023
:1062CC00012A22D10B6803601FE018200E68FDF72D
:1062DC00DCFE054650B13146FFF7C8FE3069B6F911
:1062EC00147008B100F016FF2861AF8225600CE035
:1062FC00046854B104F11000FFF72AFE2046FFF7A2
:10630C0054FD1821204600F05DFD0020F8BD38B585
:10631C00002383608B6804460D462BB102229847FC
:10632C00EB68E360AB68A360204638BD022A70B509
:10633C00044606D0032A11D0012A18D10B68036039
:10634C0015E014200E68FDF7A0FE054620B131467D
:10635C00FFF7DDFF337C2B74256008E0046834B153
:10636C002046FFF722FD1421204600F02BFD0020D3
:10637C0070BD0000F0B5002387B00C46BFF35F8FF3
:10638C0050E8006F40E80032002AF9D1BFF35F8F6C
:10639C00002E3FD01846FFF7D5F9074620B121460D
:1063AC003046FFF753FE2EE0314601A8FFF7AFFF52
:1063BC0023788DF814301020FDF767FE0546D0B118
:1063CC0087601420FDF761FE044678B187600146B2
:1063DC0001A8FFF7F9FC039BA268A360049B03923E
:1063EC00E268E3609DF81430049223740A4BEB606E
:1063FC000A4B2C60AB6001A8FFF7D7FC00222946A2
:10640C000748FFF7A7F93046FFF7CFFC10213046BD
:10641C0000F0D8FC07B0F0BD6B600D0039630D00C7
:10642C00A1670D0030B585B004460D46684611468F
:10643C00FFF7C9FD7CB124B228460DB100F06AFE0D
:10644C00029002A96846ADF80C40FFF71FFE02A8A7
:10645C00FFF77EFD1DE000988DF808404FF001021B
:10646C00D0E84F3FA34203D1C0E8412F0029F7D118
:10647C0002D08DF808300CE010F10C014FF0010344
:10648C0018BF0373BFF35F8F043000F8033CFFF7B2
:10649C0071FF01A8FFF7F0FB05B030BD704710B5D8
:1064AC001821044600F08EFC204610BDF0B5037D8B
:1064BC00062B8DB00E4600F104074FF0000402D0FD
:1064CC0000F1080518E00CAD394605F8304D2F23C6
:1064DC002A460A20FFF746F8284600F036FE3368B5
:1064EC000246DB682946304698470FE024B12E213E
:1064FC003046FFF70BFC044415F8011D0A22304608
:10650C00FFF71DFCBD420444F0D120460DB0F0BD98
:10651C0010B5054B0446112240F8043B002100F055
:10652C00C8FD204610BD00BF5C7B0D000346074A2A
:10653C0010B543F8042B01F1100251F8044B43F849
:10654C00044B9142F9D10A781A7010BD5C7B0D0096
:10655C0010B59DF8084044EA032343EA024242EA9C
:10656C00016104234160037510BD37B50D788B783C
:10657C004A78C97800912946FFF7EAFF03B030BD8D
:10658C0041747047704708B50021007CFFF7AAF8EA
:10659C0030EA200028BF4FF0FF3008BD08B50121BC
:1065AC00007CFFF79FF830EA200028BF4FF0FF3047
:1065BC0008BD08B5007CFFF78DF820EAE07008BD37
:1065CC0008B5007CFFF77EF820EAE07008BD007C7F
:1065DC00FFF798B810B51421044600F0F3FB2046E1
:1065EC0010BD38B50446007C0D46FFF773F8002843
:1065FC0001DC607C28B12946207CFFF77BF820EA7F
:10660C00E07038BD10B50446002363604FF47A7314
:10661C00A360054B23600123084621746374114663
:10662C00FFF740F8204610BD707B0D000022007C67
:10663C00FFF740B810B514220446002100F039FDD4
:10664C00204610BD30B50E4D87B001A8FFF7F2FF04
:10665C00296811F0010410D12846FDF727FD60B11F
:10666C0001AA21460748FFF7CDFF2846FDF723FD79
:10667C00054A0649034800F097FB024807B030BDB5
:10668C0004E4032008E4032040E3032091650D009B
:10669C0070474174704708B5007CFEF7A3FF20EAF1
:1066AC00E07008BD08B5007CFEF774FF20EAE070CE
:1066BC0008BD08B5007CFEF77DFF30EA200028BF3E
:1066CC004FF0FF3008BD08B5007CFEF76BFF30EAD9
:1066DC00200028BF4FF0FF3008BD007CFEF772BFD2
:1066EC0010B51421044600F06DFB204610BD70B5AA
:1066FC00457C04460E4625B9007CFEF773FF002846
:10670C0005DD3146207CBDE87040FEF73BBF2846D6
:10671C0070BD000010B504460846114600226260A8
:10672C004FF47A72A260054A2260012220746274CE
:10673C001A46FEF71FFF204610BD00BFA07B0D00C0
:10674C00007CFEF747BF000038B50C4D296811F0EE
:10675C00010411D12846FDF7A9FC68B1084A094B80
:10676C0009482146FFF7D6FF2846FDF7A4FC074A47
:10677C000749054800F018FB034838BDB4E4032072
:10678C00B8E4032030E403201CE4032040E303209E
:10679C009D660D0010B5836804460BB900F025FB0F
:1067AC00C3689847A3681BB103222146204698472B
:1067BC0020461021BDE8104000F004BB7047F8B52E
:1067CC00064615460C468F18BC4206D0336814F8A2
:1067DC00011B9B6830469847F6E72846F8BD002217
:1067EC00007CFEF71FBF0021007CFEF723BF0021B9
:1067FC00007CFEF727BF0021007CFEF72BBF002199
:10680C00007CFEF72FBF10B51421044600F0DAFA15
:10681C00204610BD10B50446002363604FF47A7314
:10682C00A360044B2174084623601146FEF72AFF2F
:10683C00204610BDD07B0D0000231A461946007C63
:10684C00FEF7D8BE70B50C4686B0142506462A460F
:10685C00002101A800F02DFC23788DF80830636826
:10686C000393E36804930022237A307CADF8045040
:10687C0001A90593FEF70EFF06B070BD1FB50033DE
:10688C008DF800104FF06401039118BF0123694685
:10689C0001928DF80830FFF7D5FF05B05DF804FBC9
:1068AC000123FFF7EBBF0022007CFEF7ABBEC9B2A1
:1068BC00FFF7F9BF0022007CFEF7ACBE0121FFF709
:1068CC00F9BF0021007CFEF7D5BE002211464068BE
:1068DC00FEF794BF002211464068FEF79FBF0022CE
:1068EC004068FEF793BF002281F001014068FEF77B
:1068FC007DBF00231A4601214068FEF76FBF0023BD
:10690C001A4619464068FEF761BF002211464068DE
:10691C00FEF754BF002211464068FEF73FBF00222D
:10692C0002214068FEF742BF00231A464068FEF77A
:10693C002DBF38B5054688B104684CB1A3681BB1AE
:10694C0003222146204698471021204600F03AFAAF
:10695C0028461421BDE8384000F034BA38BD10B1D7
:10696C0003685B681847704710B503680446BBB1F1
:10697C005868FEF7CFFD78B923685A7C12B958686D
:10698C00FEF7D0FD23685868FEF7D4FD206800237D
:10699C00236028B1FFF7CDFF206808B1FFF7C9FFCE
:1069AC00204610BD38B50446D0F8C40108B1FDF737
:1069BC0070FBD4F8C00108B1FEF7CCFDD4F8BC5183
:1069CC0035B12846FFF7D0FF0421284600F0FAF92C
:1069DC00206808B1FFF7C3FF204638BD10B5044B43
:1069EC00044640F8083BFFF7DDFF204610BD00BF12
:1069FC00F87B0D0038B50E4C0E4B2360002502239E
:106A0C0004F5E4706360A560C4F8C451C4F8C851BF
:106A1C00FEF798FD084BC4F8CC5184F8D051236094
:106A2C002046064A0649BDE8384000F0BDB900BF13
:106A3C003CE50320607C0D00F87B0D0040E3032057
:106A4C00E9690D00002211464068FEF7B7BE00222E
:106A5C0011464068FEF7D2BE002211464068FEF790
:106A6C00DDBE00224068FEF7D1BE002281F001019C
:106A7C004068FEF7BBBE00231A4619464068FEF775
:106A8C00ADBE00231A4619464068FEF79FBE002291
:106A9C0011464068FEF782BE002202214068FEF7D4
:106AAC0085BE00231A464068FEF770BE024B0422D6
:106ABC005A60024A1A60704710E703202C7C0D00C4
:106ACC0000231A464068FEF761BE0022022140688E
:106ADC00FEF76CBE002211464068FEF75FBE002236
:106AEC0011464068FEF76ABE00231A4619464068F4
:106AFC00FEF76CBE00231A4619464068FEF76EBEC0
:106B0C00002281F001014068FEF770BE002240684F
:106B1C00FEF77CBE002211464068FEF77FBE0022C5
:106B2C0011464068FEF76ABE2DE9F043002495B08B
:106B3C0016460D460746FFF7EBFC214620220CA813
:106B4C00009400F0B6FA40230C9321466B460CAA35
:106B5C003046FEF74FFC0446002844D10246012182
:106B6C006868FEF72BFE0221804622466868FEF715
:106B7C0025FE009E81462146002E34D0002932D1BC
:106B8C007368022B02D00A2B09D02AE0B8F1000F4F
:106B9C0027D0716938460431FFF7E7FC20E0B9F1E2
:106BAC00000F1ED07469112201A800F082FA06238E
:106BBC008DF8143001AD04F10803183418685968C5
:106BCC002A4603C20833A3421546F7D101A906A8E9
:106BDC0007ADFFF7ABFC0FCD3C1D0FC42B6823702A
:106BEC000121F669C8E70098FEF7FCFB384615B0A2
:106BFC00BDE8F083024B034A1A6000225A607047CA
:106C0C0018E70320607C0D0010B5044600F06CF80A
:106C1C00FEF761FF28B1A4F10B03022B01D8002071
:106C2C0010BD00F09BF8FFF74CFE08B1012CF6D913
:106C3C00FFF78AFDFFF784FD18B1A4F10903012BBE
:106C4C00EDD9232C8CBF0020012010BD232838B592
:106C5C0004460D460AD8FF2908D0FFF7D5FF28B106
:106C6C0029462046BDE83840FEF7D4BB38BD38B5C0
:106C7C0004460D46FEF7D6FBFF2810D0062804D894
:106C8C004D2323FA00F0C30709D42046FFF7BCFFBD
:106C9C0028B129462046BDE83840FEF7CBBB38BDAD
:106CAC002DE9F04190461E46072407460D46B8F1E3
:106CBC00000F04D1C4F1070146FA01F101E046FAD4
:106CCC0004F101F001013846FFF7D1FF01212846FC
:106CDC00FFF7CDFF00212846FFF7C9FF14F1FF3461
:106CEC00E5D2BDE8F081000038B50B4D296811F0F4
:106CFC0001040FD12846FDF7D9F958B121460748B0
:106D0C00FEF728FE2846FDF7D6F9054A0549034843
:106D1C0000F04AF8014838BD2CE7032020E7032097
:106D2C0040E3032045590D0070B5044614252A464E
:106D3C00094E002100F0BDF9258020253146A560C3
:106D4C002561284600F040F831466060284600F086
:106D5C003BF8E060204670BD8C7C0D0030B50E4DCC
:106D6C00296811F0010487B013D12846FDF79EF96C
:106D7C0078B101A8FFF7D8FF01AA21460748FFF711
:106D8C0049FD2846FDF797F9054A0649034800F0E6
:106D9C000BF8024807B030BD34E7032038E7032076
:106DAC0040E30320C9670D000B460146184600F06E
:106DBC0067B90000024B1868BFF35F8F704700BFC4
:106DCC004CE70320FDF763B900F000B810B50028BC
:106DDC0014BF044601242046FEF740FD20B9FFF7FE
:106DEC00E9FF08B18047F6E710BD08B5FEF756FD80
:106DFC00184B1A68D1075CBF01221A60164B1A682F
:106E0C00D2075CBF01221A60144B1A68D0075CBF12
:106E1C0001221A60124B1A68D1075CBF01221A605A
:106E2C00104B1A68D2075CBF01221A600E4B1A680D
:106E3C00D0075CBF01221A600C4B1A68D1075CBFEB
:106E4C0001221A600A4B1A68D2075CBF01221A6031
:106E5C00704700BF6CE7032068E7032064E703205A
:106E6C0060E703205CE7032058E7032054E7032086
:106E7C0050E70320244B1A68D0075CBF01221A602C
:106E8C00224B1A68D1075CBF01221A60204B1A688A
:106E9C00D2075CBF01221A601E4B1A68D0075CBF78
:106EAC0001221A601C4B1A68D1075CBF01221A60C0
:106EBC001A4B1A68D2075CBF01221A60184B1A6869
:106ECC00D0075CBF01221A60164B1A68D1075CBF51
:106EDC0001221A60144B1A68D2075CBF01221A6097
:106EEC00124B1A68D0075CBF01221A60104B1A684B
:106EFC00D1075CBF01221A600E4B1A68D2075CBF27
:106F0C0001221A60704700BF9CE7032098E703201A
:106F1C0094E7032090E703208CE7032088E7032005
:106F2C0084E7032080E703207CE7032078E7032035
:106F3C0074E7032070E70320244B1A68D0075CBF6A
:106F4C0001221A60224B1A68D1075CBF01221A6019
:106F5C00204B1A68D2075CBF01221A601E4B1A68BC
:106F6C00D0075CBF01221A601C4B1A68D1075CBFAA
:106F7C0001221A601A4B1A68D2075CBF01221A60F0
:106F8C00184B1A68D0075CBF01221A60164B1A689E
:106F9C00D1075CBF01221A60144B1A68D2075CBF80
:106FAC0001221A60124B1A68D0075CBF01221A60CA
:106FBC00104B1A68D1075CBF01221A600E4B1A687D
:106FCC00D2075CBF01221A60704700BFCCE70320D8
:106FDC00C8E70320C4E70320C0E70320BCE7032075
:106FEC00B8E70320B4E70320B0E70320ACE70320A5
:106FFC00A8E70320A4E70320A0E70320184B1A6896
:10700C00D1075CBF01221A60164B1A68D2075CBF0D
:10701C0001221A60144B1A68D0075CBF01221A6057
:10702C00124B1A68D1075CBF01221A60104B1A6808
:10703C00D2075CBF01221A600E4B1A68D0075CBFE6
:10704C0001221A600C4B1A68D1075CBF01221A602E
:10705C000A4B1A68D2075CBF01221A60704700BF46
:10706C00ECE70320E8E70320E4E70320E0E7032054
:10707C00DCE70320D8E70320D4E70320D0E7032084
:10708C0010B5054C13462CB10A4601460220AFF34D
:10709C00008010BD204610BD0000000010B5431E3E
:1070AC000A44914204D011F8014B03F8014FF8E760
:1070BC0010BD02440346934202D003F8011BFAE7C9
:1070CC007047000038B5124B1C68A36B0546D3B94A
:1070DC001820FEF7C3FB43F20E33A06303804AF67D
:1070EC00CD33438041F2342383804EF26D63C380F1
:1070FC004DF6EC630381052343810B23838101222D
:10710C000023C0E90423A36B00221D615A6138BD22
:10711C003CE30320024B0146186800F003B800BFA3
:10712C003CE3032070B5064608460C4600F00DF80B
:10713C00451C29463046FEF7B9FB064618B12A46CF
:10714C002146FFF7ABFF304670BD034613F8012B09
:10715C00002AFBD1181A0138704700001D400D00A1
:10716C0059400D0085400D0089400D0000000000C5
:10717C000000000000000000CD400D00E1400D00BB
:10718C0020200077726F6E6720636865636B5375A0
:10719C006D21212121002D2D2D2D2D2D2D2D2D2D30
:1071AC002D2D2D2D2D2D2D2D2D2D2D2D2D2D2D2D03
:1071BC002D2D2D2D2D2D2D2D2D2D2D2D2D2D2D2DF3
:1071CC002D2D2D2D2D2D2D2D2D2D2D2D2D2D2D2DE3
:1071DC000053657269616C20737461727400484D60
:1071EC003333305820696E6974206661696C65644C
:1071FC0021212100447573742052656164696E67A6
:10720C0000504D3100504D323500504D3130005052
:10721C004D312E303A00504D322E353A00504D3112
:10722C00303A0025640044757374310044757374EE
:10723C003235004475737431300044757374526583
:10724C006164696E677300484D3333305820726542
:10725C00616420726573756C74206661696C656419
:10726C00212121005374617274696E672044697323
:10727C00706C6179005072696E74696E6720436F2F
:10728C006E63656E74726174696F6E7300504D320B
:10729C002E3520446174610073656E736F72206EBD
:1072AC00756D3A2000504D312E3020636F6E636542
:1072BC006E74726174696F6E2843463D312C537441
:1072CC00616E6461726420706172746963756C6163
:1072DC007465206D61747465722C756E69743A7581
:1072EC00672F6D33293A2000504D322E3520636FB5
:1072FC006E63656E74726174696F6E2843463D31BE
:10730C002C5374616E646172642070617274696371
:10731C00756C617465206D61747465722C756E6921
:10732C00743A75672F6D33293A2000504D31302057
:10733C00636F6E63656E74726174696F6E28434619
:10734C003D312C5374616E6461726420706172748F
:10735C006963756C617465206D61747465722C75EC
:10736C006E69743A75672F6D33293A2000504D3190
:10737C002E3020636F6E63656E74726174696F6E0C
:10738C002841746D6F7370686572696320656E76E1
:10739C0069726F6E6D656E742C756E69743A756773
:1073AC002F6D33293A2000504D322E3520636F6EED
:1073BC0063656E74726174696F6E2841746D6F735E
:1073CC0070686572696320656E7669726F6E6D6543
:1073DC006E742C756E69743A75672F6D33293A206B
:1073EC0000504D313020636F6E63656E7472617442
:1073FC00696F6E2841746D6F737068657269632074
:10740C00656E7669726F6E6D656E742C756E6974CF
:10741C003A75672F6D33293A2000000000000000F8
:10742C0000000000C9400D0085450D001D500D00E9
:10743C00C55C0D0019490D001D4D0D00A1470D0037
:10744C002D460D00DD4D0D00734E0D00AB4E0D00A5
:10745C00C74E0D00000000000000000000000000FE
:10746C00000000001D500D00C55C0D00A5400D0076
:10747C001D4D0D003D4E0D00594E0D00DD4D0D0006
:10748C00734E0D00AB4E0D00C74E0D0000000000FA
:10749C00003E5B4F5B3E3E6B4F6B3E1C3E7C3E1C8E
:1074AC00183C7E3C181C577D571C1C5E7F5E1C00D4
:1074BC00183C1800FFE7C3E7FF0018241800FFE78B
:1074CC00DBE7FF30483A060E2629792926407F054E
:1074DC000507407F05253F5A3CE73C5A7F3E1C1C64
:1074EC0008081C1C3E7F14227F22145F5F005F5F24
:1074FC0006097F017F006689956A60606060609410
:10750C00A2FFA29408047E040810207E2010080814
:10751C002A1C08081C2A08081E101010100C1E0C1F
:10752C001E0C30383E3830060E3E0E0600000000B1
:10753C000000005F00000007000700147F147F1498
:10754C00242A7F2A122313086462364956205000DD
:10755C0008070300001C2241000041221C002A1CC9
:10756C007F1C2A08083E08080080703000080808B4
:10757C000808000060600020100804023E514945D4
:10758C003E00427F400072494949462141494D33F2
:10759C001814127F1027454545393C4A4949314159
:1075AC00211109073649494936464949291E000027
:1075BC00140000004034000000081422411414147C
:1075CC001414004122140802015909063E415D5968
:1075DC004E7C1211127C7F494949363E4141412271
:1075EC007F4141413E7F494949417F090909013E9B
:1075FC00414151737F0808087F00417F41002040C2
:10760C00413F017F081422417F404040407F021CD3
:10761C00027F7F0408107F3E4141413E7F090909EA
:10762C00063E4151215E7F091929462649494932B6
:10763C0003017F01033F4040403F1F2040201F3F7C
:10764C004038403F63140814630304780403615901
:10765C00494D43007F414141020408102000414143
:10766C00417F0402010204404040404000030708EF
:10767C000020545478407F284444383844444428EB
:10768C00384444287F385454541800087E09021892
:10769C00A4A49C787F0804047800447D400020401A
:1076AC00403D007F1028440000417F40007C04785E
:1076BC0004787C080404783844444438FC182424A6
:1076CC001818242418FC7C08040408485454542426
:1076DC0004043F44243C4040207C1C2040201C3CA3
:1076EC004030403C44281028444C9090907C44649A
:1076FC00544C44000836410000007700000041362D
:10770C00080002010204023C2623263C1EA1A161B2
:10771C00123A4040207A38545455592155557941E4
:10772C002154547841215554784020545579400CBB
:10773C001E5272123955555559395454545939559C
:10774C005454580000457C410002457D42000145DF
:10775C007C40F0292429F0F0282528F07C5455454C
:10776C00002054547C547C0A097F493249494932DF
:10777C003248484832324A4848303A4141217A3AF4
:10778C0042402078009DA0A07D39444444393D40BE
:10779C0040403D3C24FF2424487E4943662B2FFC6B
:1077AC002F2BFF0929F620C0887E09032054547919
:1077BC00410000447D413048484A32384040227AEA
:1077CC00007A0A0A727D0D19317D2629292F282667
:1077DC002929292630484D4020380808080808086F
:1077EC000808382F10C8ACBA2F102834FA00007BC8
:1077FC00000008142A142222142A1408AA00550086
:10780C00AAAA55AA55AA000000FF00101010FF00EC
:10781C00141414FF001010FF00FF1010F010F014DF
:10782C001414FC001414F700FF0000FF00FF1414E4
:10783C00F404FC141417101F10101F101F14141430
:10784C001F00101010F0000000001F101010101F6F
:10785C0010101010F010000000FF1010101010107D
:10786C00101010FF10000000FF140000FF00FF00BC
:10787C00001F10170000FC04F41414171017141434
:10788C00F404F40000FF00F714141414141414F787
:10789C0000F7141414171410101F101F141414F4E0
:1078AC00141010F010F000001F101F0000001F1427
:1078BC00000000FC140000F010F01010FF10FF147A
:1078CC001414FF141010101F00000000F010FFFF24
:1078DC00FFFFFFF0F0F0F0F0FFFFFF0000000000F2
:1078EC00FFFF0F0F0F0F0F38444438447C2A2A3EF9
:1078FC00147E02020606027E027E02635549416333
:10790C003844443C04407E201E2006027E0202992C
:10791C00A5E7A5991C2A492A1C4C7201724C304AC5
:10792C004D4D303048784830BC625A463D3E49494E
:10793C0049007E0101017E2A2A2A2A2A44445F44F6
:10794C004440514A444040444A51400000FF010326
:10795C00E080FF000008086B6B08361236243606F0
:10796C000F090F060000181800000010100030401E
:10797C00FF0101001F01011E00191D1712003C3CE4
:10798C003C3C000000000000000000000000000073
:10799C0065510D0081510D00000000000000000039
:1079AC0095510D00A9510D00256C750025303478CA
:1079BC00005C752530345800747275650066616C16
:1079CC00736500252E2A6600256600252E2A6C6616
:1079DC0000256C66000000000000000000000000A4
:1079EC0027590D001D590D0013590D0009590D0093
:1079FC00FD580D00F1580D00E5580D00DD580D0037
:107A0C00D3580D00C9580D00356B0D000000000057
:107A1C000000000045590D0047590D0000081018D2
:107A2C0020283038626175640053657269616C009E
:107A3C0053657269616C31007479706500706172A4
:107A4C00616D00636D6400696400686E640073743A
:107A5C00726D0066696C74006C766C0061646448CD
:107A6C00616E646C65720072656D6F766548616EEF
:107A7C00646C657200656E756D48616E646C6572E0
:107A8C0073004A534F4E53747265616D4C6F674867
:107A9C00616E646C657200617070002530313075F8
:107AAC0020005D20002C200028293A2000205B00BB
:107ABC00636F6465203D200025690064657461690D
:107ACC006C73203D20000D0A006C6E00666E006326
:107ADC006F64650064657461696C006E6F6E65003F
:107AEC00747261636500696E666F007761726E0017
:107AFC006572726F720070616E696300616C6C000C
:107B0C005A00252B3033643A253032750025592D17
:107B1C00256D2D25645425483A254D3A2553257A53
:107B2C000061736374696D65000000000000000063
:107B3C0000000000215F0D00275F0D006B5F0D0042
:107B4C00355F0D00235F0D000000000000000000F9
:107B5C00B9640D00A9640D00AB640D0000000000B9
:107B6C000000000091650D00E1650D00EF650D0052
:107B7C00C55C0D00CD650D0093650D00A9650D006C
:107B8C00DB650D00BF650D008D650D00000000006C
:107B9C00000000009D660D00ED660D00FB660D00FB
:107BAC00C55C0D00B1660D00D3660D00BF660D00FF
:107BBC00E7660D009F660D00A3660D000000000037
:107BCC0000000000C9670D0013680D00EB670D0085
:107BDC00CB670D00F3670D00FB670D0003680D000C
:107BEC000B680D00000000000000000035690D005E
:107BFC002B690D0021690D0017690D000B690D0033
:107C0C00FF680D00F3680D00EB680D00E1680D00D6
:107C1C00D7680D00356B0D0000000000000000005F
:107C2C00AF6A0D00A56A0D009B6A0D00516A0D002C
:107C3C008F6A0D00836A0D00776A0D006F6A0D0064
:107C4C00656A0D005B6A0D00356B0D0000000000CD
:107C5C0000000000CD6A0D00D76A0D00E16A0D002E
:107C6C00EB6A0D00F56A0D00016B0D000D6B0D003C
:107C7C00196B0D00216B0D002B6B0D00356B0D007E
:107C8C0000000000000000000000000000000000E8
:107C9C0000000000000000000000000000000000D8
:107CAC0000000000000000000000000000000000C8
:107CBC0000000000000000000000000000000000B8
:107CCC0000000000000000000000000000000000A8
:107CDC000000000000000000000000000000000098
:107CEC00000000004300000095450D00194D0D00EB
:107CFC00AD500D00E5500D005F510D00EB530D0024
:107D0C0031590D00095B0D009D5C0D008D5D0D0062
:107D1C009D5D0D00F55D0D00016A0D00B96A0D0049
:107D2C00016C0D00FD6D0D00816E0D00456F0D0099
:047D3C0009700D00BD
:047D4000000000003F
:107D4400A4720D00B1720D00F4720D0037730D00B2
:107D540079730D00B3730D00ED730D00000103077B
:107D64000F1F3F7F0080C0E0F0F8FCFE0000000021
:107D740000000000000000000000000000000000FF
:107D840000000000000000000000000000000000EF
:107D940000000000000000000000000000000000DF
:107DA400000000000000000000000080808000004F
:107DB400000000000000000000000000008080C0FF
:107DC400C0000000000000000000000000000000EF
:107DD400000000000000000000000000000000009F
:107DE400000000000000000000000000000000008F
:107DF400000000000000000000000000000000007F
:107E040080C0E0F0F8FCF8E0000000000000000092
:107E1400000000000000000000808080808000805E
:107E24008000000000808080808000FFFFFF000051
:107E340000008080808000008080000080FFFF8040
:107E440080008080008080808000808000000000AE
:107E540000808000008C8E84000080F8F8F8800098
:107E6400000000000000000000000000F0F0F0F04E
:107E7400F0F0F0F0F0F0F0F0E0E0C08000E0FCFEA4
:107E8400FFFFFF7FFFFFFFFFFF0000000000000077
:107E940000000000000000FEFFC70101010183FF94
:107EA400FF00007CFEC70101010183FFFFFF0038D2
:107EB400FEC78301010183C7FFFF000001FFFF012B
:107EC4000100FFFF0701010100007FFF80000000A7
:107ED400FFFF7F0000FFFFFF000001FFFFFF010025
:107EE400000000000000000000000000030F3F7FBE
:107EF4007FFFFFFFFFFFFFFFE7C7C78F8F9FBFFF16
:107F0400FFC3C0F0FFFFFFFFFFFCFCFCFCFCFCFC1C
:107F1400FCF8F8F0F0E0C0000103030303030103DD
:107F24000300000000010303030301010301000037
:107F34000001030303030101030300000003030022
:107F4400000003030000000000000001030303031A
:107F5400030100000001030100000003030100000D
:107F6400000000000000000000000000000000808D
:107F7400C0E0F0F9FFFFFFFFFF3F1F0F87C7F7FFC8
:107F8400FF1F1F3DFCF8F8F8F87C7DFFFFFFFFFFA3
:107F9400FFFFFF7F3F0F07003030000000000000AC
:107FA40000000000000000000000000000000000CD
:107FB400FEFEFC00000000000000000000000000C5
:107FC400000000000000000000E0C000000000000D
:107FD400000000000000303000000000000000003D
:107FE40000000000000000000000000000C0FEFFD0
:107FF400FFFFFFFFFFFFFFFF7F7F3F1F0F071F7F75
:10800400FFFFF8F8FFFFFFFFFFFEF8E000000001AC
:108014000000000000000000FEFE000000FCFEFC6A
:108024000C06060EFCF80000F0F81C0E0606060C02
:10803400FFFFFF0000FEFE00000000FCFEFC001835
:108044003C7E66E6CE84000006FFFF0606FCFEFCCE
:108054000C0606060000FEFE0000C0F8FC4E464674
:10806400464E7C7840183C76E6CECC80000000007A
:1080740000000000000000000000000000000000FC
:1080840001070F1F1F3F3F3F3F1F0F03000000006A
:1080940000000000000000000F0F0000000F0F0F91
:1080A400000000000F0F000003070E0C18180C0648
:1080B4000F0F0F0000010F0E0C180C0F0701000426
:1080C4000E0C180C0F070000000F0F00000F0F0F0D
:1080D4000000000000000F0F00000007070C0C1840
:1080E4001C0C060600040E0C180C0F070000000000
:1080F400000000000000000000000000000000007C
:10810400000000000000000000000000000000006B
:10811400000000000000000000000000000000005B
:10812400000000000000000000000000000000004B
:10813400000000000000000000000000000000003B
:10814400000000000000000000000000000000002B
:10815400000000000000000000000000000000001B
:108164000000000000000000000000002D7B0D0056
:1081740000000000907C0D00B07C0D00D07C0D0050
:1081840000000000000000000000000000000000EB
:10819400F07C0D0000000000000000000000000062
:1081A40000000000000000000000000000000000CB
:1081B40000000000000000000000000000000000BB
:1081C40000000000000000000000000000000000AB
:0481D400DCE20320C6
:1081D800FFFFFFFF00000102030405060708090A64
:1081E8000B0C0D0E0F101112131415161718191A5F
:0881F8001B1C1D1E1F202800A6
:048200007856341266
:04000003D000401CCD
:00000001FF
