:02000002D0002C
:1040000000400D003C960D00000006000C0005016C
:084010000401DE0500000000C0
:044018000C830D0008
:10401C0009480A49884208B505D0094A824202D0AB
:10402C00121A03F087FC0748074A0021121A03F002
:10403C00A7FC014808BD00BF00DD032044910D0022
:10404C00D0E10320D0E10320F0E7032070B502F0AB
:10405C0025FA074C074BE41AA40800251E46A54276
:10406C0004D056F8253098470135F8E770BD00BFED
:10407C0034910D00EC900D0000F054B808B500F030
:10408C0053F9BDE8084002F0CBB901F0AFBD01F027
:10409C00B5BD01F0B3BD000008B5034A00210C20EA
:1040AC0001F0E0FCFEE700BFC1570D000078B0FA4C
:1040BC0080F04009704701230370704770477047C8
:1040CC0008B5002001F07AFD28B101F067FD80F001
:1040DC000100C0B208BD012008BD000038B58469DC
:1040EC000A4B036005467CB16368013B63605BB9B6
:1040FC00236820469B689847A368013BA3601BB9C3
:10410C0023682046DB689847284638BDCC8D0D00C7
:10411C0010B50446FFF7E2FF20461C2103F054F9CA
:10412C00204610BD10B502F0CFFA4FF4165102F034
:10413C00BFFA13491348144C01F074F801211120F3
:10414C0003F04AF8114B0021188803F045F803F0EE
:10415C0007F902F09FFB3C220221204600F0F0FB05
:10416C00204600F03DFD204600F0BCFC0849094803
:10417C0001F08EFF084BBDE81040186802F012B930
:10418C000CE3032000E20320D8E2032004DD03202B
:10419C0020830D00FCE2032000DD03201FB502F09C
:1041AC00F0F80146684602F0A9F86946214801F08A
:1041BC0067FF684601F0D3FE002319221E491D48F3
:1041CC0001F077FF13230B221A49684601F08AFF8E
:1041DC0069461A4801F054FF684601F0C0FE0023FE
:1041EC0009221749154801F064FFB9EE080A02F0DC
:1041FC0069F801F0E7FA044601F0D0FC10B1002098
:10420C0001F0D4FCFFF75CFF10B901F0BFFCF9E73B
:10421C00FFF756FF00216846009101F0D7FC84425D
:10422C0006D802F051FA064B064A012101F0F9FFBB
:10423C0004B010BD70E3032080E30320F0E1032001
:10424C00E4E1032029830D0010B51F4800F0C8FCE1
:10425C0002211D4800F086FE01211B4800F087FE5C
:10426C0006220221184800F07AFE1849164801F07F
:10427C009BFF19222321144800F071FE144B1C687B
:10428C00002C05DA2D21104801F092FF614200E06C
:10429C0021460A220C4801F0A4FF0E490A4801F0FD
:1042AC0096FF32220221084800F059FE0A490648BE
:1042BC0001F07AFF0949044801F089FF0248BDE882
:1042CC00104000F00FBC00BFD8E203203C830D006F
:1042DC00D4E10320AD890D0047830D00E4E10320F8
:1042EC0038B50D4D0D4840F2B63100F0B7FF90B126
:1042FC00A842F7D1681D03F0FFF9094C206002F0C9
:10430C00E3F92368074A002101F08BFF2168112093
:10431C0002F0A3FFE6E738BD0CE3032000E2032024
:10432C006CE303204A830D002DE9FF41204C214D05
:10433C00208802F07BFF28601F4800F0A3FE18B114
:10434C0029681E4801F074F9DFF8788078262088F7
:10435C0002F06CFFC8F80000FFF7C2FF208802F0E3
:10436C0065FF02F0B1F90746208802F05FFF051ED9
:10437C0005DA2D21384601F01BFF694200E0294681
:10438C000A22384601F02DFF384601F014FFFFF7E2
:10439C0005FF0B49684601F068FE6846FFF754FFBD
:1043AC00684601F0DCFD013ED1D104B0BDE8F081DE
:1043BC0004DD0320D4E2032000E2032060E30320A9
:1043CC00FCE20320D4E1032010B52421044602F0C2
:1043DC00FBFF204610BD10B5D421044602F0F4FFBB
:1043EC00204610BD2DE9F341304C314D314E324F4A
:1043FC00DFF8048101F03EF94FF0FF31204600F068
:10440C0041FA2A462D49204602F0D0FF30462C4C6A
:10441C0002F0C0FD2A462B49304602F0C7FF2A4B5A
:10442C00009340F25B72294B2949204600F060FE54
:10443C00284B294923602A462046C4F8D06002F054
:10444C00B5FF21460023254A2548264E01F0DCF80D
:10445C000023254A2548214601F0D6F83946404626
:10446C0001F0C4FD4046DFF894802A46314602F044
:10447C009DFF3946404601F0B9FD4046DFF880808B
:10448C002A46314602F092FF3946404601F0AEFD15
:10449C002A463146404602F089FF154A154800234A
:1044AC00214602B0BDE8F04101F0C4B8D8E20320C7
:1044BC00D0E1032044E30320AD890D00C9400D0079
:1044CC0000E20320E9400D0078830D005D830D00B0
:1044DC0068830D0060890D00CB400D0099830D00A1
:1044EC0060E303206B5F0D00B4830D00D8E1032063
:1044FC00D1830D000CE3032070E30320F0E10320D3
:10450C00FCE20320F0B5447EBDF81450022C08D018
:10451C00032C0FD0012C70D10489013CA21A12B2C9
:10452C000CE04489013CA21A0489E41A611A12B203
:10453C0009B262E04489E41A611A09B2002A5BDB11
:10454C00B0F90840944240F390800029BEBF5B183C
:10455C001BB20021B0F90A00CC188442C4BF431A24
:10456C001BB2002B40F38180C9B2C8083F4F02EB4D
:10457C00C01211F00701DBB207EB020417D0C1F136
:10458C000801C8B23A4983420E5C3FBFC3EB000E30
:10459C00FF2141FA0EF10E40B95C012D0CBF3143E5
:1045AC00B1438342B95460D3181AC3B28034072B79
:1045BC0017D9012D0CBFFF20002004F180011A46F1
:1045CC00083AD2B2072A01F8800C01F18001F7D821
:1045DC00A3F10802C2F3C402013204EBC21403F0CB
:1045EC000703002B41D0234AD25C2378012D0CBF4A
:1045FC00134393432370F0BDF0BD002A35DBB0F9B3
:10460C000A40944231DD0029BCBFC9180BB2B0F985
:10461C000870B8BF0021CE18BE42C4BF631A1BB2CB
:10462C00002B22DDD01001EBC011104802F0070264
:10463C000144012000FA02F28542D2B209D1013BB9
:10464C001BB25C1C11D011F8010B104301F8010CCA
:10465C00F5E7D243D2B2013B1BB2581C05D011F87E
:10466C00010B104001F8010CF5E7F0BD18DD03203B
:10467C0010DD032008DD0320F0B5447EBDF8145096
:10468C00022C08D0032C0FD0012C12D10489E41A6F
:10469C00A21A12B26DE00489013C611A4489E41A31
:1046AC00A21A09B212B204E04489013C611A09B29F
:1046BC005FE000295CDBB0F908408C4240F391804C
:1046CC00002ABCBFD21813B2B0F90A00B8BF00223E
:1046DC00D4188442C4BF831A1BB2002B40F38180D0
:1046EC00D4B2404EDAB2E30801EBC31114F0070464
:1046FC0006EB010317D0C4F10804E0B23A4C824235
:10470C00275C3FBFC2EB000EFF2444FA0EF4274097
:10471C00745C012D0CBF3C43BC438242745460D387
:10472C00101AC2B28033072A17D9012D0CBFFF24EF
:10473C00002403F1800011460839C9B2072900F89A
:10474C00804C00F18000F7D8A2F10801C1F3C4013C
:10475C00013103EBC11302F00702002A41D02349B7
:10476C00895C1A78012D0CBF0A438A431A70F0BD7C
:10477C00F0BD002935DBB0F90A408C4231DD002A4E
:10478C00BCBFD21813B2B0F90870B8BF0022D6184B
:10479C00BE42C4BFA31A1BB2002B22DDC81002EB11
:1047AC00C012104801F007011044012202FA01F175
:1047BC009542C9B209D15A1E13B25C1C11D010F823
:1047CC00012B0A4300F8012CF5E7C943C9B25A1E64
:1047DC0013B25A1C05D010F8012B0A4000F8012C1A
:1047EC00F5E7F0BD18DD032010DD032008DD032004
:1047FC00F8B50D1E064614461F463FDB00F0BCFB09
:10480C0085423BDA002C39DB304600F0B8FB8442A1
:10481C0034DA304600F0AEFB022827D1318970899A
:10482C0001390138491B001B0DB204B206E0012806
:10483C0004D13389013B1B1B2C461DB20820012FD0
:10484C0094FBF0F000B20E4B04F0070205EBC01124
:10485C0004D197405A5C17435F54F8BD585C01274C
:10486C0007FA02F220EA02025A54F8BD0328DED1FC
:10487C007389013B5B1B25461CB2DFE7F8BD00BF0B
:10488C0018DD032038B5402204460D46802100F087
:10489C0087FA064B2360FF23637784F82130E37794
:1048AC00A37784F82050204638BD00BFF4830D0058
:1048BC0038B590F91D30013304460D4628D090F9D7
:1048CC002100012180B202F098FC94F91F00002114
:1048DC0080B202F092FC94F92100002180B202F027
:1048EC008CFC94F822302BB102F000FD294601F02B
:1048FC00B7FA05E02B460122A17F607F02F0D3FCC2
:10490C0094F92100012180B2BDE8384002F075BC59
:10491C0002F026FD94F91B1001F0C6FF02F020FDF9
:10492C00036800219B68984702F01AFD036829462A
:10493C009B68984702F014FDBDE8384001F0BBBFFE
:10494C0038B504460D46217790F91D30C2760133F7
:10495C0037D090F91F00012180B202F03DFC94F990
:10496C002100012180B202F037FC94F822305BB9AF
:10497C0094F91D00012180B202F02EFC94F91E0066
:10498C00012180B202F028FC94F82230EBB194F9AA
:10499C002100012180B202F030FC02F0A7FC0121C1
:1049AC0001F0CFF902F0A2FC102101F035FA02F06F
:1049BC009DFC002101F0D6F902F098FC01F0B0F951
:1049CC0003E002F0CDFC01F065FF94F92000012119
:1049DC0080B202F001FC94F92000012180B202F0B7
:1049EC000CFC012001F0DEFC94F92000002180B2C7
:1049FC0002F003FC0A2001F0D5FC94F920000121FF
:104A0C0080B202F0FAFB2046AE21FFF751FF2046A0
:104A1C00D521FFF74DFF20468021FFF749FF2046A7
:104A2C00A821FFF745FF20463F21FFF741FF204615
:104A3C00D321FFF73DFF20460021FFF739FF204629
:104A4C004021FFF735FF8D212046FFF731FF012D67
:104A5C000CBF102114212046FFF72AFF20462021ED
:104A6C00FFF726FF20460021FFF722FF2046A12159
:104A7C00FFF71EFF2046C821FFF71AFF2046DA2158
:104A8C00FFF716FF20461221FFF712FF8121204667
:104A9C00FFF70EFF012D0CBF9F21CF212046FFF702
:104AAC0007FFD9212046FFF703FF012D0CBF222160
:104ABC00F1212046FFF7FCFE2046DB21FFF7F8FE34
:104ACC0020464021FFF7F4FE2046A421FFF7F0FE1C
:104ADC002046A621FFF7ECFE2046AF21BDE838406A
:104AEC00FFF7E6BE2DE9F04121210446FFF7E0FE79
:104AFC0000212046FFF7DCFE7F212046FFF7D8FE81
:104B0C0022212046FFF7D4FE00212046FFF7D0FEDD
:104B1C0007212046FFF7CCFE94F91D30DFF8BC804E
:104B2C00013335D094F92100012180B202F065FBEC
:104B3C0094F91F00012180B202F05FFB94F921006F
:104B4C00002180B202F059FB012000F033FE002559
:104B5C0094F8223018F805602BB102F0C7FB3146EF
:104B6C0001F07EF905E033460122A17F607F02F05F
:104B7C009AFB0135B5F5806FEAD1012000F01AFEE1
:104B8C0094F92100012180B2BDE8F04102F035BB5F
:104B9C00002502F0E5FB94F91B1001F085FE02F0F4
:104BAC00DFFB036840219B689847002602F0D8FB86
:104BBC00AF190368BFB29B6818F807100136984705
:104BCC00102EF3D1103502F0CBFBADB201F073FE19
:104BDC00B5F5806FDDD1BDE8F08100BF18DD032095
:104BEC004FF480620021014802F0CABE18DD032098
:104BFC0000F040BD2DE9F04F85B01E46BDF93830B0
:104C0C00BDF83CA015469A1A002AB8BF5242009231
:104C1C00721A002AB8BF524201920C46009A0199AE
:104C2C008A42814605DD32461E46134622462C46F4
:104C3C001546B44205DD2A461D4613462246344627
:104C4C0016465A1B002AB8BF5242C4EB06089D42B6
:104C5C00B4BF01234FF0FF331FFA88F8029303927D
:104C6C000FFA88F7022297FBF2F7B4421FDC019A85
:104C7C00009B9342D9F80030C8BF2246D3F810B03D
:104C8C00C8BF29465346DCBF2A4621464846D8476A
:104C9C00039BFF1ABBB21FB2002F05DA029A08EB76
:104CAC00030715442DB23FB2013424B2DDE705B041
:104CBC00BDE8F08F2DE9F347BDF82C600768BDF90E
:104CCC0028A000960446FF6991460D469846B847C1
:104CDC00236800960AF1FF324A44DF6929464346AD
:104CEC00204612B2B847236800969F694A4653463D
:104CFC0029462046B84723680A9608F1FF31294413
:104D0C009D694A46534609B22046AC4602B0BDE8FE
:104D1C00F047604737B5013B13440468BDF81850A1
:104D2C0001951BB2009364690B46A04703B030BDDC
:104D3C0037B5BDF8185004688DE82400013B0B44CE
:104D4C0064691BB2A04703B030BD2DE9F347BDF930
:104D5C002880BDF82C90054617460C4601EB030A3B
:104D6C0054450BDA2B68CDF800909E6921464346DA
:104D7C003A4628460134B04724B2F1E702B0BDE808
:104D8C00F08713B5B0F90E2004680191009200224F
:104D9C00B0F90C30646A1146A04702B010BD7047E0
:104DAC0030B501810024084D42818181C2814FF6CA
:104DBC00FF710122446005604476048244820276CD
:104DCC00C1828182827630BD2C840D002DE9F04F9A
:104DDC008FB005460691BDF860100791BDF86410C0
:104DEC000891B0F90C1006989DF8688081427CDD22
:104DFC00B5F90E10914278DD062111FB0800002850
:104E0C0073DD02EBC80000286FDD03EB830396B261
:104E1C000C9306F108039BB2099100240D93052C09
:104E2C001CBF334B0C9A059616BF1B194FF000098B
:104E3C0013F8029004961FFA88F30393039ABDF8B3
:104E4C00183004FB023213FA84F312B21BB20A922A
:104E5C0037460FFA88FA0B9319F0010F11D0B8F1FD
:104E6C00010F2B6803D1D3F810B0079B14E0079AFD
:104E7C000192CDF800A0D3F824B0BDF91020534610
:104E8C0018E0079B089A934217D0B8F1010F2B68D2
:104E9C0007D1D3F810B013463AB20B992846D8472D
:104EAC000BE0089A0192CDF800A0BDF91420D3F8BC
:104EBC0024B053460A992846D847049B039A1344B6
:104ECC009BB20493059B13449BB2013705930D9B36
:104EDC00BFB29F424FEA5909BED1099B013B013435
:104EEC0013F0FF0364B2099399D10FB0BDE8F08FB2
:104EFC005C840D0030B50A2985B004460B4604D1FC
:104F0C00027E438A03EBC20323E00D2924D0057EE5
:104F1C00B0F91220B0F910100295C58A0195858A56
:104F2C000095FFF753FF227E238A91B201EB4100DB
:104F3C0003EB4003A07E1BB2238268B1B4F90C00D2
:104F4C006FF0050505FB0202934205DD638A03EB56
:104F5C00C103638200232382012005B030BD01828E
:104F6C0042827047002908BF012101767047C18237
:104F7C0081827047407E7047B0F90C007047B0F9E1
:104F8C000E00704700F076BB08B5D0F8D00003686F
:104F9C001B6B9847003018BF012008BDF8B50646BA
:104FAC000F461446C4B1D6F8D00003681B6B984763
:104FBC0008B90020F8BDD6F8D000FA2C03682546B5
:104FCC00A8BFFA25DB682A463946984780B2241ACE
:104FDC008542A4B2E6D0ECE70120F8BD2DE9F843F8
:104FEC000646884691461F461D460024D6F8D0003A
:104FFC0003681B6B9847D0B1002D18DBD6F8D00096
:10500C0003681B69984760B1D6F8D00003685B69E8
:10501C00984708F804000134A4B24C4507D03D462B
:10502C00ECE70A3D0A202DB201F0BCF9DEE7204680
:10503C00BDE8F88370B5044600F1220596220021E4
:10504C00284602F09DFC6168284602F0D3FCD4F897
:10505C00D0002289036829465E6A0023B0470030DD
:10506C0018BF012070BD10B50446D0F8D0000368FD
:10507C001B6B984720B1D4F8D0000368DB6A9847C3
:10508C00012010BD70B503689B6804469847C8B9E9
:10509C00204600F060FA042570B1013D15F0FF05C3
:1050AC000AD0204600F0AAF841F2883001F07AF9D3
:1050BC00204600F050FAEFE7236820469B68BDE8D5
:1050CC007040184770BD00F0D5BA70B5044608465C
:1050DC000E4602F097FC03122370607085B2023406
:1050EC002A463146204602F0CEFC601970BD000005
:1050FC0030B50361039B0D4D028143610C4A056081
:10510C0000234160C260C0F8BC30C0F8C030C0F8A9
:10511C00C430C0F8C830C0F8CC308361C36180F8AB
:10512C00203080F82130A0F8B83030BD84890D00D3
:10513C00AD890D002DE9F74F0FFA83FA0368019240
:10514C009D690122534606460C46A847C0B2012869
:10515C0001D0002034E0651C04F1050B80464FF0B3
:10516C00000933689B6901221F4629465346304685
:10517C00B847C0B20128ECD115F8013B03F07F020F
:10518C005D4502FB08994FEAC818E2D01B06E8D42B
:10519C00019B2C1B1B1B013B9945336806D9019ABB
:1051AC009F69013A121B534692B203E09F691FFAA2
:1051BC0089F2534629463046B847C0B2204480B2E3
:1051CC0003B0BDE8F08F0000F8B505460C46164656
:1051DC001F463B46962221462846FFF7ABFF48B1B7
:1051EC002378B6EB131F05D001F06EFA024900F0DC
:1051FC00EEFFEEE7F8BD00BFAE890D0010B5E02361
:10520C0080F82230002380F82330036804465B6961
:10521C00022200F122019847236820461B69BDE851
:10522C001040184700F1B80230B5134600F1CC0419
:10523C0053F8045F8D420FD0A342F9D1002352F8EA
:10524C00044F24B900EB8300C0F8BC1004E0013318
:10525C00052BF4D1002030BD012030BD2DE9F04FDD
:10526C0000F122098BB287B0962249460446FFF71B
:10527C0061FF064610B394F82570BBB2019304F19C
:10528C00260304F1B80A002502935AF804BFBBF1B7
:10529C00000F0ED0DBF800100391084602F0B2FBB1
:1052AC00B8428046039904D13A46029802F0B2FB08
:1052BC0028B10135052DE8D100204AE049E094F8E9
:1052CC0022A00AF0060ABAF1020F3FD1E21992F8B5
:1052DC00267092F8272042EA0727142200210BF1AE
:1052EC00050002F04DFB019BC3F57F40FC300644EA
:1052FC0004EB8505CAEB0606B6B2152ED5F8BC0034
:10530C0008F1040128BF13265144324649440530A4
:10531C0002F01BFBD5F8BC305E8394F8223003F00E
:10532C000603022B0FD18DF815303B128DF8163079
:10533C0023688DF8177040228DF814205B690422C5
:10534C0005A920469847D5F8BC0002E007468246DE
:10535C00C3E707B0BDE8F08F38B504460846102304
:10536C0000F8023B0D462949FFF7AFFE04230370FA
:10537C0002234370A369ABB11B789BB10623437026
:10538C0094F82030012B01D10E2302E0022B01D125
:10539C001E23437094F82130012B02BF437843F055
:1053AC002003437023691B781BB1437863F07F03A0
:1053BC00437063691B781BB1437843F0400343701F
:1053CC00012383702C23C370E1680B781BB104306C
:1053DC00FFF77BFE02E0037143710630A16931B126
:1053EC000B7823B1FFF771FEE169FFF76EFE2169BF
:1053FC000B780BB1FFF769FE61690B780BB1FFF706
:10540C0064FE401BC0B2831E6B7038BDCD890D008D
:10541C002DE9F843054610460E4691461F4602F00C
:10542C00F1FA9DF82480BDF8204080B2B8F1000F4D
:10543C0001D1831C00E0031D4FEA480230469BB2A9
:10544C0042F03002234400F8012B9BB203F07F02A0
:10545C00DB0918BF42F0800200F8012B002BF5D1BC
:10546C004946FFF732FE0346B8F1000F0CD0B5F8F1
:10547C00B820120A0270B5F8B8204270B5F8B820FE
:10548C0001320233A5F8B82022463946184602F0FC
:10549C005CFA2044801B80B2BDE8F88373B59DF89C
:1054AC00186000F1220504468DE8480013460A46B0
:1054BC002946FFF7ADFF236802465B692946204663
:1054CC00984708B9002017E0B6B14FF4FA7396224A
:1054DC0029462046FFF72EFE0428F3D194F82230FB
:1054EC001B11042BEED1A38CB4F8B8005BBA0133BA
:1054FC009BB2C31A5842584102B070BDF7B505466D
:10550C0010461F460E46144602F07CFA009783B2F2
:10551C00224631462846FFF7C1FF03B0F0BD38B52F
:10552C001D4682230B700C46B0F8B810090AA17006
:10553C00B0F8B830E370B0F8B8100131A0F8B8107A
:10554C001146201DFFF7C1FD00F8015B001BC0B226
:10555C00831E637038BD2DE9F0410368DB68044697
:10556C00984718B94FF0FF30BDE8F08104F12205DF
:10557C0029462046FFF7F0FE236882B25B69294674
:10558C00204698470028EDD041F2707396222946A8
:10559C002046FFF7CFFDC0B20428E3D1638CB3F5EE
:1055AC00087FDFD194F8250010B140B2BDE8F0813E
:1055BC0004F1B80704F1CC0857F8043FFBB10326FB
:1055CC003A682946137912682046FFF7A8FF23682A
:1055DC0082B25B692946204698470028C2D04FF416
:1055EC00FA73092229462046FFF7EEFD38B9013E31
:1055FC0016F0FF06E4D16FF00100BDE8F0814745DD
:10560C00DAD10020BDE8F08110B580E80600037205
:10561C0010BD1FB504460A22084601A900F060FC23
:10562C00237A01AA94E80300FFF768FF04B010BDC9
:10563C00FFF7EFBF10B50371002341630260438392
:10564C00C361436203628362C362036310BD00F0F3
:10565C0011B8000008B5024B1B689B68019308BD8C
:10566C006802030008B5024B1B68DB68019308BD98
:10567C006802030008B5024B1B681B68019308BD48
:10568C002C02030008B5024B1B685B68019308BD34
:10569C002C02030008B5024B1B689B68019308BDE4
:1056AC002C02030008B5024B1B68DB68019308BD94
:1056BC002C02030008B5024B1B681B69019308BD43
:1056CC002C02030008B5024B1B689B6A019308BDB2
:1056DC002C02030008B5024B1B681B6B019308BD21
:1056EC002C02030008B5024B1B689B6F019308BD8D
:1056FC002C02030008B5024B1B681B68019308BD04
:10570C003002030008B5024B1B689B68019308BD6F
:10571C003002030008B5024B1B68DB68019308BD1F
:10572C003002030008B5024B1B681B69019308BDCE
:10573C003002030008B5024B1B685B69019308BD7E
:10574C003002030008B5024B1B68DB69019308BDEE
:10575C003002030008B5024B1B681B6A019308BD9D
:10576C003002030008B5024B1B685B6A019308BD4D
:10577C003002030008B5024B1B681B6C019308BD7B
:10578C003002030008B5024B1B685B6C019308BD2B
:10579C003002030008B5024B1B685B69019308BD1E
:1057AC006C02030008B5024B1B685B68019308BDD3
:1057BC001802030008B5024B1B68DB68019308BD97
:1057CC001802030008B5024B1B685B69019308BD06
:1057DC001802030008B5024B1B68DB69019308BD76
:1057EC001802030008B5024B1B689B6D019308BDA2
:1057FC001802030008B5024B1B689B68019308BD97
:10580C004802030008B5024B1B681B69019308BDD5
:10581C004802030008B5024B1B685B69019308BD85
:10582C004802030008B5024B1B685B6C019308BD72
:10583C004802030008B5024B1B689B6C019308BD22
:10584C004802030008B5024B1B685B69019308BD55
:10585C006402030008B5024B1B681B6A019308BD68
:10586C006402030008B5024B1B689B6A019308BDD8
:10587C006402030008B5024B1B681B68019308BD4A
:10588C003C02030008B5024B1B68DB68019308BDA2
:10589C003C02030008B5024B1B681B69019308BD51
:1058AC003C02030008B5024B1B685B69019308BD01
:1058BC003C02030008B5024B1B689B69019308BDB1
:1058CC003C02030008B5024B1B68DB69019308BD61
:1058DC003C02030008B5024B1B681B6A019308BD10
:1058EC003C02030008B5024B1B689B6A019308BD80
:1058FC003C02030008B5024B1B68DB68019308BD32
:10590C002802030008B5024B1B689B69019308BD74
:10591C002802030008B5024B1B68DB69019308BD24
:10592C002802030008B5024B1B681B6A019308BDD3
:10593C002802030008B5024B1B685B6A019308BD83
:10594C002802030008B5024B1B689B6A019308BD33
:10595C002802030008B5024B1B68DB6A019308BDE3
:10596C002802030008B5024B1B681B6B019308BD92
:10597C002802030008B5024B1B685B6B019308BD42
:10598C002802030008B5024B1B681B6C019308BD71
:10599C002802030008B5024B1B689B69019308BDE4
:1059AC003802030008B5024B1B68DB69019308BD84
:1059BC003802030008B5024B1B681B6A019308BD33
:1059CC003802030008B5024B1B689B6A019308BDA3
:1059DC003802030008B5024B1B681B6B019308BD12
:1059EC003802030008B5024B1B689B6B019308BD82
:1059FC003802030008B5024B1B681B68019308BDF5
:105A0C004C02030008B5024B1B685B68019308BD90
:105A1C004C02030008B5024B1B681B69019308BDBF
:105A2C004C02030008B5024B1B685B69019308BD6F
:105A3C004C02030008B5024B1B689B69019308BD1F
:105A4C004C02030008B5024B1B68DB69019308BDCF
:105A5C004C02030008B5024B1B681B6A019308BD7E
:105A6C004C02030008B5024B1B685B6B019308BD2D
:105A7C006002030008B5024B1B681B6D019308BD47
:105A8C006002030008B5024B1B681B68019308BD3C
:105A9C002002030008B5024B1B685B68019308BD2C
:105AAC002002030008B5024B1B685B69019308BD1B
:105ABC002002030008B5024B1B689B6D019308BDC7
:105ACC002002030008B5034B1B68D3F88830019300
:105ADC0008BD00002002030008B5034B1B68D3F877
:105AEC009430019308BD00002002030008B5024B5E
:105AFC001B685B68019308BD4002030008B5024BAC
:105B0C001B689B68019308BD4002030008B5024B5B
:105B1C001B68DB68019308BD4002030008B5024B0B
:105B2C001B681B69019308BD4002030008B5024BBA
:105B3C001B685B69019308BD4002030008B5024B6A
:105B4C001B689B69019308BD4002030008B5024B1A
:105B5C001B68DB69019308BD4002030008B5024BCA
:105B6C001B681B6A019308BD4002030008B5024B79
:105B7C001B681B6B019308BD4002030008B5024B68
:105B8C001B685B6B019308BD4002030008B5024B18
:105B9C001B689B68019308BD4402030008B5024BC7
:105BAC001B685B69019308BD4402030008B5024BF6
:105BBC001B68DB6A019308BD4402030008B5024B65
:105BCC001B681B6B019308BD4402030008B5024B14
:105BDC001B685B6B019308BD4402030008B5024BC4
:105BEC001B68DB6B019308BD4402030008B5024B34
:105BFC001B681B68019308BD1C02030008B5024B0F
:105C0C001B685B68019308BD1C02030008B5024BBE
:105C1C001B689B68019308BD1C02030008B5024B6E
:105C2C001B681B69019308BD1C02030008B5024BDD
:105C3C001B689B69019308BD1C02030008B5024B4D
:105C4C001B685B6A019308BD1C02030008B5024B7C
:105C5C001B681B6B019308BD1C02030008B5024BAB
:105C6C001B68DB6B019308BD1C020300002211466C
:105C7C004068FFF773BF002211464068FFF77EBFF4
:105C8C0000224068FFF772BF002281F001014068DA
:105C9C00FFF75CBF00231A4619464068FFF74EBF5A
:105CAC0000231A4619464068FFF740BF00221146F0
:105CBC004068FFF733BF002211464068FFF71EBF54
:105CCC00002202214068FFF721BF00231A464068DA
:105CDC00FFF70CBF024B03225A60024A1A6070474E
:105CEC009CE303209C8B0D00704710B50C210446DF
:105CFC0001F06AFB204610BD0021FFF73BBD0021DF
:105D0C00FFF740BD10B5054B036004460171084612
:105D1C00FFF718FD0023A360204610BDD08B0D00AB
:105D2C0010B504460079FFF7E7FF48B920794FF624
:105D3C00FF71FFF7DFFC2079BDE81040FFF7DFBFF4
:105D4C0010BD38B5044600790D46FFF7D5FF40B9B4
:105D5C0020792946FFF7D6FC2079BDE83840FFF7BB
:105D6C00CEBF38BD38B5044600790D46FFF7C4FFE9
:105D7C0040B920792946FFF7CDFC2079BDE83840A1
:105D8C00FFF7BDBF38BD0000400830B518600024D7
:105D9C0018688842E5B206D90134082C02D04008B4
:105DAC001860F5E70725024B5B5D137030BD00BF33
:105DBC00D88B0D002DE9F04188B000230446007902
:105DCC0002930E461746FFF797FF054600BB94F863
:105DDC0004800146142203A801F0D2FD0B232A46AD
:105DEC0003A94046ADF80C30FFF7BCFC02AB0DF13B
:105DFC00070207FB06F104988DF80750FFF7C4FF64
:105E0C0020799DF80710FFF78DFC2079FFF777FFBD
:105E1C00029808B0BDE8F08138B5044600790D460B
:105E2C00FFF76AFFC8B9A16871B10C4BC25CAA42FA
:105E3C0002D001300828F9D10130C0B2C140012292
:105E4C002046FFF7B7FF03E029462079FFF76AFCED
:105E5C002079BDE83840FFF752BF38BDD88B0D0014
:105E6C0038B5044600790D46FFF746FF40B9294680
:105E7C002079FFF75FFC05462079FFF740FF00E033
:105E8C000025E8B238BD0079FFF764BC10B50446B4
:105E9C00006818B1FFF7B2FE0023236010BD10B5E7
:105EAC000446FFF7F3FF204610BD000010B5094C67
:105EBC0000204FF6FF732060A080A07120816381C9
:105ECC00FFF7E8FD2046044A0449BDE8104001F004
:105EDC006DBA00BFA4E30320D0E10320AB5E0D003C
:105EEC002DE9F041931E232B15468CB034BF15467B
:105EFC000A2500230A2D0C468DF82C3007D1984228
:105F0C0005DA2D2301F101080B70404201E0B0B11C
:105F1C00A0460DF12B0601272A46014601A801F0E7
:105F2C00F5FC029B0198092BCCBF3722302252FA88
:105F3C0083F306F8013901370028EDD106E0302350
:105F4C008DF82B30A0460DF12A0602273A46711C1B
:105F5C00404601F0EFFC20460CB0BDE8F08110B5D6
:105F6C0004460068FFF74AFE204610BD10B50446F3
:105F7C00006808B1FFF742FE00232360A360636052
:105F8C0010BD38B504460D4600680131FFF73EFEE2
:105F9C0010B184E82100012038BD10B50368044617
:105FAC0013B143688B4207D22046FFF7EAFF20B1BA
:105FBC00A3680BB922681370012010BD70B50E4692
:105FCC00114604461546FFF7E8FF18B92046FFF7BF
:105FDC00CDFF09E02A463146A560206801F0AAFCF5
:105FEC002268A3680021D154204670BD38B5002327
:105FFC00044603604360836003730D4639B1084661
:10600C0001F000FD294602462046FFF7D7FF204647
:10601C0038BD38B5054600680C4660B16A688B68B7
:10602C009A4206D3096801F0E5FCA368AB60002333
:10603C000AE0FFF7E3FD23682B6063686B60A368DD
:10604C00AB60002323606360A36038BD884210B549
:10605C000B46044607D0096819B19A68FFF7AEFFE2
:10606C0001E0FFF783FF204610BD10B50023044666
:10607C000360436083600373FFF7E8FF204610BDA5
:10608C00884210B5044601D0FFF7C3FF204610BD6F
:10609C0038B505460C4641B1084601F0B3FC214623
:1060AC0002462846FFF78AFF01E0FFF75FFF28460C
:1060BC0038BD70B50E469AB191B185689D4202D833
:1060CC0000230B7070BD541EED1A0168AC4228BF42
:1060DC002C4619442246304601F0D5FC002333559A
:1060EC0070BD0000F8B59A420F461D460C4988BF9A
:1060FC0013461446064684BF2C461D46FFF776FF12
:10610C00BA6894420AD83968954294BFC4EB050228
:10611C00C4EB020221443046FFF750FF3046F8BD75
:10612C00AD890D0010B50446006808B1FFF782FB7D
:10613C00204610BD10B5064C002320462360FFF707
:10614C0071FB2046034A0449BDE8104001F02EB90A
:10615C00B0E30320D0E1032031610D00F8B5064611
:10616C000D468F180024BD420CD0336815F8011B66
:10617C009B6830469847002801DB0444F3E7002C69
:10618C0008BF04462046F8BD70B505460C460846C7
:10619C0049B101F037FC2B68024621462846DB68E2
:1061AC00BDE87040184770BD08B5FFF7EDFF08BD9E
:1061BC0003689B68184738B50D210546FFF7F8FFB3
:1061CC000A2104462846FFF7F3FF204438BD38B5B2
:1061DC000546FFF7D9FF04462846FFF7ECFF20449D
:1061EC0038BD30B58BB00B4600218DF82410012A38
:1061FC0098BF0A220DF12304B3FBF2F505FB123311
:10620C0003F0FF03092B94BF30333733DBB2214645
:10621C0004F801392B46002DEED1FFF7B5FF0BB07A
:10622C0030BD0CB42DE9F04387B000AF07F1380452
:10623C00054654F8049B3C600E4623464A461421FE
:10624C00381DFFF7FBFC132805D8391D2846FFF72E
:10625C009BFF044613E000F1080323F00703E84614
:10626C00ADEB030D411C23464A4668463C60FFF7E4
:10627C00E5FC69462846FFF787FF0446C5461EB174
:10628C002846FFF798FF044420461C37BD46BDE85E
:10629C00F04302B070470000014B024A1A6070478D
:1062AC00B4E30320538C0D0008B50020FFF786FCE7
:1062BC0028B1FFF773FC80F00100C0B208BD0120CB
:1062CC0008BD0000FAEE087AB4EEE70AF1EE10FA17
:1062DC000FD4F2EE0C7AB4EEE70AF1EE10FA08DC09
:1062EC00DFED047A044B20EE270ABDEEC00A83EDE5
:1062FC00000A704700006145C0E3032037B50E4B20
:10630C001B6819440D4B1B68044602A8194440F83D
:10631C00041D01F003FA01F0B3F9054601F072FB1C
:10632C002844002300F8013C29462046FFF75EFE76
:10633C00204603B030BD00BFC0E30320BCE3032004
:10634C0010B50020FFF74EFA044668B9FFF79AFB28
:10635C0001280BD12046FFF7ADFB38B9FFF7A4FF9E
:10636C0030B9FFF713FCF9E7012010BD002010BD78
:10637C00FFF79AFF0020FFF735FA003018BF012015
:10638C0010BD08B5FFF7DCFFBDE80840FFF722BAE7
:10639C00024B1A68024B1A60704700BF18E10320C9
:1063AC00B8E303200021FFF77DBB10B583680446DA
:1063BC0013B1032201469847204610BD10B5044680
:1063CC00FFF7F3FF204610BD0348044A044900239D
:1063DC00836000F0EBBF00BFC4E30320D0E10320D7
:1063EC00C9630D0008B50C4B33B100F06DF90368AF
:1063FC001B699847002809DC084B63B100F0E6F9EB
:10640C0003681B699847002803DC08BDAFF30080C4
:10641C00F2E7AFF3008008BD0000000000000000B0
:10642C0008B5FFF7DFFFFFF7CDF9014B186008BD8A
:10643C0008E703200248034A0349121A01F07ABA0A
:10644C0000F4032004F4032040910D0007B5002351
:10645C0000931A466FF07701FFF73EFB03B05DF82F
:10646C0004FB000007B543880A2B08D0502B09D138
:10647C00094B1B683BB103B05DF804EB1847FFF701
:10648C00E5FF06E0002300931A466FF07701FFF753
:10649C0023FB03B05DF804FBD4E3032038B5104CA8
:1064AC00104D2368AB42104B0CBF012200221A7016
:1064BC0002D0FFF7BFFF2560FFF774F9044601F027
:1064CC0067FA0A4B13B12046AFF30080002107484E
:1064DC00FFF784FB00210648BDE83840FFF7F2BA0D
:1064EC0000F403201E1C279AD8E3032000000000B0
:1064FC0071640D00704710B51821044600F064FF5C
:10650C00204610BDF0B5037D062B8DB00E4600F174
:10651C0004074FF0000402D000F1080518E00CADA0
:10652C00394605F8304D2F232A460A20FFF78AF901
:10653C00284601F067FA33680246DB682946304684
:10654C0098470FE024B12E213046FFF731FE04446A
:10655C0015F8011D0A223046FFF743FEBD420444E4
:10656C00F0D120460DB0F0BD10B5054B04461122FC
:10657C0040F8043B002101F003FA204610BD00BF97
:10658C00E08C0D000346074A10B543F8042B01F1CB
:10659C00100251F8044B43F8044B9142F9D10A789C
:1065AC001A7010BDE08C0D00037D042B01D14068E6
:1065BC0008E0062B0AD1436853B9836843B9C36812
:1065CC0033B90069003018BF0120704700207047B4
:1065DC000120704710B59DF8084044EA032343EAB4
:1065EC00024242EA016104234160037510BD37B5D4
:1065FC000D788B784A78C97800912946FFF7EAFF25
:10660C0003B030BD41747047704708B50021007C61
:10661C00FFF710FA30EA200028BF4FF0FF3008BD1A
:10662C0008B50121007CFFF705FA30EA200028BFED
:10663C004FF0FF3008BD08B5007CFFF7F3F920EAF6
:10664C00E07008BD08B5007CFFF7E4F920EAE070C3
:10665C0008BD007CFFF7FEB910B51421044600F00C
:10666C00B3FE204610BD38B50446007C0D46FFF73E
:10667C00D9F9002801DC607C28B12946207CFFF781
:10668C00E1F920EAE07038BD10B5044600236360E0
:10669C004FF47A73A360054B2360012308462174E1
:1066AC0063741146FFF7A6F9204610BDF48C0D005B
:1066BC000022007CFFF7A6B910B514220446002175
:1066CC0001F05EF9204610BD30B50E4D87B001A823
:1066DC00FFF7F2FF296811F0010410D12846FDF7ED
:1066EC00E5FC60B101AA21460748FFF7CDFF28461B
:1066FC00FDF7E1FC054A0649034800F057FE024845
:10670C0007B030BDDCE30320E0E30320D0E103203D
:10671C0015660D0070474174704708B5007CFFF793
:10672C00E1F820EAE07008BD08B5007CFFF7B2F88C
:10673C0020EAE07008BD08B5007CFFF7BBF830EA32
:10674C00200028BF4FF0FF3008BD08B5007CFFF7D4
:10675C00A9F830EA200028BF4FF0FF3008BD007CBC
:10676C00FFF7B0B810B51421044600F02DFE2046FA
:10677C0010BD70B5457C04460E4625B9007CFFF76C
:10678C00B1F8002805DD3146207CBDE87040FFF7EC
:10679C0079B8284670BD000010B50446084611466D
:1067AC00002262604FF47A72A260054A22600122D4
:1067BC00207462741A46FFF75DF8204610BD00BFC6
:1067CC00248D0D00007CFFF785B8000038B50C4D0A
:1067DC00296811F0010411D12846FDF767FC68B156
:1067EC00084A094B09482146FFF7D6FF2846FDF712
:1067FC0062FC074A0749054800F0D8FD034838BD3C
:10680C008CE4032090E4032008E40320F4E3032049
:10681C00D0E1032021670D007047F8B506461546F8
:10682C000C468F18BC4206D0336814F8011B9B68C9
:10683C0030469847F6E72846F8BD0022007CFFF763
:10684C0071B80021007CFFF775B80021007CFFF7C0
:10685C0079B80021007CFFF77DB80021007CFFF7A0
:10686C0081B810B51421044600F0AEFD204610BDD1
:10687C0010B50446002363604FF47A73A360044B95
:10688C002174084623601146FFF77CF8204610BDA2
:10689C00548D0D0000231A461946007CFFF72AB8C8
:1068AC000022007CFFF72EB8C9B2FFF7F9BF002217
:1068BC00007CFFF72FB80121FFF7F9BF0021007C06
:1068CC00FFF758B8002211464068FFF747B900227D
:1068DC0011464068FFF752B900224068FFF746B9ED
:1068EC00002281F001014068FFF730B900231A46FD
:1068FC0001214068FFF722B900231A461946406867
:10690C00FFF714B9002211464068FFF707B90022BF
:10691C0011464068FFF7F2B8002202214068FFF7E9
:10692C00F5B800231A464068FFF7E0B838B50546BD
:10693C0088B104684CB1A3681BB1032221462046E0
:10694C0098471021204600F03FFD28461421BDE851
:10695C00384000F039BD38BD10B103685B6818478A
:10696C00704710B503680446BBB15868FEF742FF88
:10697C0078B923685A7C12B95868FEF743FF23682C
:10698C005868FEF747FF20680023236028B1FFF703
:10699C00CDFF206808B1FFF7C9FF204610BD38B500
:1069AC000446D0F8C40108B1FDF773FBD4F8C0015C
:1069BC0008B1FEF73FFFD4F8BC5135B12846FFF7BC
:1069CC00D0FF0421284600F0FFFC206808B1FFF737
:1069DC00C3FF204638BD000010B5044B044640F8F8
:1069EC00083BFFF7DCFF204610BD00BF7C8D0D007F
:1069FC0038B50E4C0E4B23600025022304F5E470D1
:106A0C006360A560C4F8C451C4F8C851FEF70AFF0E
:106A1C00084BC4F8CC5184F8D05123602046064A68
:106A2C000649BDE8384000F0C1BC00BF14E50320A6
:106A3C00648E0D007C8D0D00D0E10320E5690D0006
:106A4C0037B502AC036804F8011DDD6B01224FF071
:106A5C00FF332146A84703B030BD10B40368DC6B8C
:106A6C004FF0FF33A4465DF8044B604737B502ACDA
:106A7C00036804F8011DDD6B214613460122A8476B
:106A8C0003B030BD704738B543691A68002A044614
:106A9C0005DAB3F88620B3F884309A4201D0012588
:106AAC000BE003681B699847002814BF01250025DB
:106ABC0003D123682046DB6A9847284638BD4369D2
:106ACC001868C043C00F704770470020704710B55E
:106ADC001421044600F078FC204610BDFDF7D7BA0F
:106AEC007FB5164600224260029203925A1C04465D
:106AFC000D4608D04FF47A72B3FBF2F1029102FB0F
:106B0C0011314A43039260690823009341F2050254
:106B1C006B4440F6FF710068FEF73CFF002808DB71
:106B2C0060690023324629460068FEF753FF0028AF
:106B3C0004DAFFF793F803686360002004B070BDBB
:106B4C0010B5036804469B689847A368013BA36093
:106B5C002BB923682046DB68BDE81040184710BDF0
:106B6C0070B504464D69054B44F8043B8C3506461C
:106B7C000FCD0FC42B682370304670BDE08C0D0018
:106B8C0010B54369B3F88620B3F884309A420446B2
:106B9C0005D06269B2F884301344187910BD0368CB
:106BAC001B6998470028F4D14FF0FF3010BD10B589
:106BBC004369B3F88620B3F884309A42044608D06F
:106BCC006269B2F88430591C1344A2F88410187905
:106BDC0010BD03681B6998470028F1D14FF0FF30B6
:106BEC0010BDF8B543691746B3F88620B3F8843066
:106BFC009A4205460E4606D103681B69984710B9A0
:106C0C004FF0FF3414E06969B1F88430B1F8864074
:106C1C00E41ABC4228BF3C46194422460431304693
:106C2C0000F088FE6A69B2F884302344A2F88430FC
:106C3C002046F8BD2DE9F0439846036893B0DB6A13
:106C4C000D4606461746984712AB002443F8484DAC
:106C5C00224621462846FEF705FD814600283DD1F7
:106C6C00009B002B56D05B69002B53D006A8FFF776
:106C7C007BFC009B5C696378022B01D1211D13E026
:106C8C000A2B14D11122494601A800F079FEA36801
:106C9C0033BBE36823BB4FF6FF702569FEF7DAFDC3
:106CAC0085421DD104F1140106A8FFF7A0FC06A82B
:106CBC00FFF77AFC00282DD0336807ADD3F820906D
:106CCC00184B0C930FCD0DAC0FC42B6823703A46A8
:106CDC0043460CA93046C84781461BE0A14619E043
:106CEC0004F1080301AD1834186859682A4603C228
:106CFC000833A3421546F7D1062301A90CA80DAD04
:106D0C008DF81430FFF73EFC0FCD07AC0FC42B6889
:106D1C002370CCE70098FEF79DFC484613B0BDE805
:106D2C00F08300BFE08C0D0042690023A2F8843090
:106D3C004269A2F8863070472DE9F0411E4603687F
:106D4C000C468AB0DB6A054617469847237DD5F872
:106D5C001480042B0CBF02200A2006220121FEF70E
:106D6C0041FEC8F800006B691B68002B18DB284635
:106D7C00FFF7DAFFD6B1002303A9F0B20393ADF805
:106D8C001030FEF707FD58B968690623009341F2ED
:106D9C000B0203AB40F6FF710068FEF7FBFD28B158
:106DAC002B682846DB6A002498473BE01C263246B9
:106DBC00002103A800F0E4FD237D8DF80C60042B6A
:106DCC000CD1022338468DF80D30FEF74BFDADF893
:106DDC000E006068FEF73EFD049013E00A2338466F
:106DEC008DF80D30FEF73EFD05AEADF80E00231DFF
:106DFC0004F1140718685968324603C20833BB42C1
:106E0C001646F7D16B691C2203A91868FEF7D2FD50
:106E1C000028C5D104340FCC6D698C350FC523689F
:106E2C002B70012420460AB0BDE8F08110B54369EF
:106E3C0004461868002801DBFEF7B4FD63694FF0C7
:106E4C00FF321A606069112200218C3000F098FD2D
:106E5C002046BDE81040FFF767BF000030B542691F
:106E6C00B2F886308BB004461BB1B2F884209A423B
:106E7C0040D06369186800283FDBB3F886507F2D3B
:106E8C003BD8191DC5F1800208232944FEF79AFD51
:106E9C0000280CDD6369B3F886200AB9A3F88420B6
:106EAC006269B2F886301844A2F8860025E0FEF735
:106EBC00D5FE03680B2B20D0FEF7D0FE03680B2BFE
:106ECC001BD02023002502930395FEF7C7FE036811
:106EDC0001930E4B009302AA2B460D493220FEF76C
:106EEC00C9FD63691868FEF75DFD63694FF0FF32F9
:106EFC001A6002E0FFF718FFBBE76269B2F8863050
:106F0C00B2F88400181A0BB030BD00BF178E0D00FC
:106F1C00108E0D0010B5002304460160A0F88430DB
:106F2C00A0F886308830FFF71FFB204610BD00000C
:106F3C004FF47A7270B500238260144A4360026089
:106F4C00436183610446A0200E46FDF79EF805467A
:106F5C0010B13146FFF7DEFF1420FDF796F803461B
:106F6C0028B1012242608260094A02600561A06971
:106F7C006561A36128B14368013B43600BB9FFF71E
:106F8C00DFFD2046FFF7D0FE204670BDCC8D0D00F6
:106F9C00B08D0D0010B54FF0FF310446FFF7C8FF60
:106FAC00204610BD10B504460068002801DBFEF732
:106FBC00F9FC204610BD10B504692046FFF7F2FF1E
:106FCC0024B12046BDE81040FDF761B810BD002289
:106FDC0011464068FEF7A2BD002211464068FEF73C
:106FEC00BDBD002211464068FEF7C8BD00224068B6
:106FFC00FEF7BCBD002281F001014068FEF7A6BD82
:10700C0000231A4619464068FEF798BD00231A461D
:10701C0019464068FEF78ABD002211464068FEF70B
:10702C006DBD002202214068FEF770BD00231A4698
:10703C004068FEF75BBD0000024B04225A60024A16
:10704C001A607047E8E60320308E0D0000231A46C4
:10705C004068FEF74BBD002202214068FEF756BD8A
:10706C00002211464068FEF749BD002211464068D7
:10707C00FEF754BD00231A4619464068FEF756BD6C
:10708C0000231A4619464068FEF758BD002281F0CD
:10709C0001014068FEF75ABD00224068FEF766BD4C
:1070AC00002211464068FEF769BD00221146406877
:1070BC00FEF754BD2DE9F043002495B016460D465D
:1070CC000746FFF751FA214620220CA8009400F045
:1070DC0057FC40230C9321466B460CAA3046FEF716
:1070EC00C1FA0446002844D1024601216868FEF723
:1070FC0015FD0221804622466868FEF70FFD009EB2
:10710C0081462146002E34D0002932D17368022BDF
:10711C0002D00A2B09D02AE0B8F1000F27D07169F0
:10712C0038460431FFF763FA20E0B9F1000F1ED0A6
:10713C007469112201A800F023FC06238DF8143089
:10714C0001AD04F108031834186859682A4603C2C3
:10715C000833A3421546F7D101A906A807ADFFF7DE
:10716C0011FA0FCD3C1D0FC42B6823700121F66959
:10717C00C8E70098FEF76EFA384615B0BDE8F08304
:10718C00024B034A1A6000225A607047F0E6032053
:10719C00648E0D0010B5044600F0A8F8FEF773FEDF
:1071AC0028B1A4F10B03022B01D8002010BD00F074
:1071BC00D7F8FFF783FB08B1012CF6D9FFF706FBD4
:1071CC00FFF700FB18B1A4F10903012BEDD9232C17
:1071DC008CBF0020012010BD232838B504460D4675
:1071EC000AD8FF2908D0FFF7D5FF28B12946204639
:1071FC00BDE83840FEF74EBA38BD38B504460D46EA
:10720C00FEF750FAFF2810D0062804D84D2323FA95
:10721C0000F0C30709D42046FFF7BCFF28B129466C
:10722C002046BDE83840FEF745BA38BD0D2810B5EC
:10723C0004469CBF0E34A4B22046FFF7ABFF50B1FE
:10724C0003212046FEF71EFA032804D12046BDE890
:10725C001040FEF73FBA002010BD38B504460D466D
:10726C00FFF798FFF0B104212046FEF70BFA042833
:10727C0005D1A9B22046BDE83840FEF723BA022159
:10728C002046FEF7FFF902280CD12046FEF70AFA39
:10729C00012801D0042805D129462046BDE83840F4
:1072AC00FEF720BA38BD2DE9F04190461E46072462
:1072BC0007460D46B8F1000F04D1C4F1070146FA98
:1072CC0001F101E046FA04F101F001013846FFF743
:1072DC0094FF01212846FFF790FF00212846FFF775
:1072EC008CFF14F1FF34E5D2BDE8F08138B50B4DBD
:1072FC00296811F001040FD12846FCF7D7FE58B1CC
:10730C0021460748FEF7FEFC2846FCF7D4FE054A4A
:10731C000549034800F04AF8014838BD04E703204A
:10732C00F8E60320D0E10320F55C0D0070B50446AF
:10733C0014252A46094E002100F022FB2580202529
:10734C003146A5602561284600F040F83146606062
:10735C00284600F03BF8E060204670BD908E0D0092
:10736C0030B50E4D296811F0010487B013D12846B1
:10737C00FCF79CFE78B101A8FFF7D8FF01AA2146C3
:10738C000748FFF775FA2846FCF795FE054A0649AB
:10739C00034800F00BF8024807B030BD0CE703209F
:1073AC0010E70320D0E1032025680D000B460146B1
:1073BC00184600F0A5B90000024B1868BFF35F8FA8
:1073CC00704700BF24E70320FCF761BE00F000B853
:1073DC0010B5002814BF044601242046FEF706FC15
:1073EC0020B9FFF7E9FF08B18047F6E710BD0000B0
:1073FC00184B1A68D1075CBF01221A60164B1A6829
:10740C00D2075CBF01221A60144B1A68D0075CBF0C
:10741C0001221A60124B1A68D1075CBF01221A6054
:10742C00104B1A68D2075CBF01221A600E4B1A6807
:10743C00D0075CBF01221A600C4B1A68D1075CBFE5
:10744C0001221A600A4B1A68D2075CBF01221A602B
:10745C00704700BF44E7032040E703203CE70320CC
:10746C0038E7032034E7032030E703202CE7032020
:10747C0028E70320244B1A68D0075CBF01221A604E
:10748C00224B1A68D1075CBF01221A60204B1A6884
:10749C00D2075CBF01221A601E4B1A68D0075CBF72
:1074AC0001221A601C4B1A68D1075CBF01221A60BA
:1074BC001A4B1A68D2075CBF01221A60184B1A6863
:1074CC00D0075CBF01221A60164B1A68D1075CBF4B
:1074DC0001221A60144B1A68D2075CBF01221A6091
:1074EC00124B1A68D0075CBF01221A60104B1A6845
:1074FC00D1075CBF01221A600E4B1A68D2075CBF21
:10750C0001221A60704700BF74E7032070E7032064
:10751C006CE7032068E7032064E7032060E703209F
:10752C005CE7032058E7032054E7032050E70320CF
:10753C004CE7032048E70320244B1A68D0075CBFB4
:10754C0001221A60224B1A68D1075CBF01221A6013
:10755C00204B1A68D2075CBF01221A601E4B1A68B6
:10756C00D0075CBF01221A601C4B1A68D1075CBFA4
:10757C0001221A601A4B1A68D2075CBF01221A60EA
:10758C00184B1A68D0075CBF01221A60164B1A6898
:10759C00D1075CBF01221A60144B1A68D2075CBF7A
:1075AC0001221A60124B1A68D0075CBF01221A60C4
:1075BC00104B1A68D1075CBF01221A600E4B1A6877
:1075CC00D2075CBF01221A60704700BFA4E70320FA
:1075DC00A0E703209CE7032098E7032094E703200F
:1075EC0090E703208CE7032088E7032084E703203F
:1075FC0080E703207CE7032078E70320184B1A6808
:10760C00D1075CBF01221A60164B1A68D2075CBF07
:10761C0001221A60144B1A68D0075CBF01221A6051
:10762C00124B1A68D1075CBF01221A60104B1A6802
:10763C00D2075CBF01221A600E4B1A68D0075CBFE0
:10764C0001221A600C4B1A68D1075CBF01221A6028
:10765C000A4B1A68D2075CBF01221A60704700BF40
:10766C00C4E70320C0E70320BCE70320B8E70320EE
:10767C00B4E70320B0E70320ACE70320A8E703201E
:10768C00094B70B51C68256C06463DB91A20FEF7EF
:10769C00ADFA1A222064294600F072F9216C3046AA
:1076AC00BDE8704000F002B880E1032010B50C4634
:1076BC0041690369826986B001F26C7104910168B9
:1076CC0003914168029181680191C1680091074959
:1076DC0003EB43030B44064902EB42020A442046E7
:1076EC000449FEF79BFA204606B010BDA68E0D008D
:1076FC00918E0D00CA8E0D000A22002100F05CBA9A
:10770C0010B5054C13462CB10A4601460220AFF3C6
:10771C00008010BD204610BD0000000038B5074B9E
:10772C001C68E36B05461BB92420FEF75FFAE06387
:10773C00E16B2846BDE8384000F002B880E1032038
:10774C002DE9F0410C46804600F03CFD21460746F1
:10775C00404600F03BFD466906F26C76B3070446E2
:10776C0005D1642296FBF2F302FB13634BB94FF481
:10777C00C87596FBF5F305FB1365B5FA85F35B0944
:10778C0000E001235F4A302505FB032500F04EFB8A
:10779C0000F04EFB5C4B1B68F3B17B689E4205D13D
:1077AC003968D8F80030FA6941B90AE0304600F07F
:1077BC0095FA0028F4D14FF0FF330DE0934208DB2B
:1077CC0001E0934207DABA6B9342ACBF002301236A
:1077DC0002E0002300E001232362236A012B0CBF8B
:1077EC00F96B396A4FF461633C2091FBF3F603FBB0
:1077FC001613616893FBF0F200FB12302368891AB0
:10780C00A26861601B1A921B3B2B2360A26003DDF4
:10781C00013161603C3B04E0002B03DA013961600B
:10782C003C33236063683B2B03DD0132A2603C3B9D
:10783C0004E0002B03DA013AA2603C336360A368D6
:10784C00172B22DDE2690132E261A2690132062ABC
:10785C00C8BF0022A261E268183B0132A360236911
:10786C00E26055F823108A4246DD01330C2B0CBF25
:10787C0063692361A2EB0102E26001BF01330022C4
:10788C002261636108BFE26136E0002B34DAE26901
:10789C00013AE261A269013A48BF0622A261E2689C
:1078AC001833013AE260A36032BB2369013B01D477
:1078BC0023611DE00B23236163695A1E12F0030F31
:1078CC00626103F26B7305D1642193FBF1F201FB4E
:1078DC0012324AB94FF4C87193FBF1F201FB123327
:1078EC00B3FA83F35B0900E0012303F5B673E3619C
:1078FC00236955F82330E36000F099FA2046BDE87F
:10790C00F08100BF50900D00E4E70320002910B572
:10791C0091FBF2F402FB141304DB002B07DA0134A5
:10792C009B1A04E0002BC4BF04F1FF349B180460C5
:10793C00436010BD10B5431E0A44914204D011F8A7
:10794C00014B03F8014FF8E710BD884210B501EB6D
:10795C00020301D8421E0BE09842FBD28118D21AC6
:10796C00D34204D013F8014D01F8014DF8E710BDD6
:10797C00994204D011F8014B02F8014FF8E710BD01
:10798C0002440346934202D003F8011BFAE7704706
:10799C0038B5124B1C68A36B0546D3B91820FEF7FB
:1079AC0025F943F20E33A06303804AF6CD334380AE
:1079BC0041F2342383804EF26D63C3804DF6EC6349
:1079CC000381052343810B23838101220023C0E91A
:1079DC000423A36B00221D615A6138BD80E1032092
:1079EC0010F8012B11F8013B012A28BF9A42F7D05D
:1079FC00D01A7047034611F8012B03F8012B002A0B
:107A0C00F9D17047034613F8012B002AFBD1181A41
:107A1C0001387047104B70B51E680A44914217D05C
:107A2C0010F8013BF418647804F00304012C11F8ED
:107A3C00014B06EB040508BF20336D7805F00305F8
:107A4C00012D08BF20341B1B03D1002CE6D100E014
:107A5C000023184670BD00BF1CE1032030B582B175
:107A6C00451E013915F8013F11F8014FA34206D10B
:107A7C00EC431444E04201D0002BF3D11C46181BFC
:107A8C0030BD104630BD10B5034642B111F8014B64
:107A9C0003F8014B013A002CF7D11A4400E010BD59
:107AAC00934202D003F8014BFAE710BD2DE9F047E1
:107ABC0080464048D0F800900F463D4615F8014BE3
:107ACC0009EB0400407800F0080000F0FF0608B154
:107ADC002F46F2E72D2C03D1BD1C7C78012603E048
:107AEC002B2C04BF7C78BD1C13B1102B0AD15BE08E
:107AFC00302C57D1287800F0DF0058284DD16C7805
:107B0C0010230235002E14BF4FF0004C6FF0004CC8
:107B1C000027BCFBF3FA384603FB1ACC09EB040E26
:107B2C009EF801E01EF0040F01D0303C0BE01EF07B
:107B3C00030E1BD0BEF1010F0CBF4FF0370E4FF0F0
:107B4C00570ECEEB0404A34210DDB7F1FF3F0AD071
:107B5C00504506D801D1644503DC03FB00400127E6
:107B6C0001E04FF0FF3715F8014BD7E77B1C0CD128
:107B7C00002E4FF0220314BF4FF000406FF0004076
:107B8C00C8F800302AB9BDE8F08706B1404272B19E
:107B9C0007B1691E1160BDE8F0873024002BB1D10C
:107BAC000823AFE70A23ADE7302CA3D0AAE7BDE842
:107BBC00F08700BF1CE1032013460A460146024829
:107BCC000068FFF773BF00BF80E103202DE9F04789
:107BDC0080463C48D0F800900E46354615F8014BCF
:107BEC0009EB0400407800F0080000F0FF0708B132
:107BFC002E46F2E72D2C03D1B51C7478012703E037
:107C0C002B2C04BF7478B51C13B1102B0AD153E084
:107C1C00302C4FD1287800F0DF00582845D16C78F3
:107C2C00102302354FF0FF3C0026BCFBF3FC03FB9A
:107C3C000CFA6FEA0A0A304609EB040E9EF801E0D2
:107C4C001EF0040F01D0303C0BE01EF0030E1AD0D6
:107C5C00BEF1010F0CBF4FF0370E4FF0570ECEEBAD
:107C6C000404A3420FDD002E08DB604506D801D1C9
:107C7C00544503DC03FB0040012601E04FF0FF36C6
:107C8C0015F8014BD8E7002E07DA2223C8F800308C
:107C9C004FF0FF302AB9BDE8F08707B1404272B10E
:107CAC0006B1691E1160BDE8F0873024002BB9D1F4
:107CBC000823B7E70A23B5E7302CABD0B2E7BDE811
:107CCC00F08700BF1CE1032013460A460146024818
:107CDC000068FFF77BBF00BF80E103202DE9F74F61
:107CEC00044600F06FFA40F2B1739C4240F3968068
:107CFC006FF4F663E318A4F2B2729B1040F26D15A8
:107D0C0005FB0235A4F26D726FF0630392FBF3F383
:107D1C006FF4C8622B44A5184FF4C87295FBF2F5AA
:107D2C001D44642394FBF2F794FBF3F602FB174714
:107D3C0003FB164600F13803B7FA87FE019304F0F3
:107D4C00030344604FEA5E1E014600934FF0070C9C
:107D5C000B7A4A2B0ED14B69009AEC1802B906B972
:107D6C0027B93B2BD4BF0023012300E0002323447D
:107D7C00013B3FE0442B02D14B692B443AE0009B82
:107D8C002BB9002E0CBFF0464FF0010800E0F04676
:107D9C00244BCC68302202FB0838A8F1040AA9460F
:107DAC000123A34204DA5AF804BF0133D944F8E79B
:107DBC0009F1040393FBFCFBCBEBCB0A012CCAEBC4
:107DCC00030A4B69B8BF012404F18044B3EB0A0ADF
:107DDC000B6904F1FF3403F1FF3348BF0AF1070AC2
:107DEC00C3EBC30358F824405344A34201DB073BC5
:107DFC00FBE74B448C690C4A02FB03430C6A23449B
:107E0C0041F81C3F019B9942A2D1C369826B9342FA
:107E1C00ACBF002301230360012000E0002003B06D
:107E2C00BDE8F08F50900D008051010070477047F5
:107E3C00014B186800F002B880E103202DE9F04FE7
:107E4C008DB0074600F0BEF9B049B14E0446384635
:107E5C0000F0B0F9054660B9AE4BAF4A1860AF4BB5
:107E6C001860AF4B30681A605A60FDF7C7FE35607A
:107E7C0048E1316879B93068FDF7C0FE2846FFF754
:107E8C00C1FD411C3846FDF7E1FE306048B1294682
:107E9C00FFF7B0FD05E0FFF7A3FD002800F03281ED
:107EAC00E9E72B789F4AA0493A2B08BF01350AAE67
:107EBC0033462846FDF7BAFE002840F323810A9B7F
:107ECC00EF18EB5C2D2B03D101374FF0FF3503E09E
:107EDC002B2B08BF013701250DF1200A0DF11E0BCC
:107EEC004FF000080396CDF808A00196CDF800B02D
:107EFC00334607AA8D49ADF81E803846ADF8208070
:107F0C00FDF794FE404540F3FD80BDF81E20BDF802
:107F1C002030DFF824923C2101FB0233BDF81C20F9
:107F2C004FF4616101FB02335D4325627C4D7D4B57
:107F3C002B600A9B7C491F444A4633463846FDF762
:107F4C0075FE404508DC2B686B60724B226A1A6028
:107F5C00724BC3F80080D5E00A9BC5F80490FD185D
:107F6C00FB5C2D2B03D101354FF0FF3703E02B2B9E
:107F7C0008BF013501270023ADF81C30ADF81E30C9
:107F8C00ADF820300A930396CDF808A00196CDF8F1
:107F9C0000B0334607AA65492846FDF747FE00287E
:107FAC0004DC236AA3F56163E3630EE0BDF81E20D5
:107FBC00BDF820303C2101FB0233BDF81C204FF4EE
:107FCC00616101FB02335F43E7630A9B27461D4453
:107FDC004FF000092B782C2B08BF013595F8008049
:107FEC00B8F14D0F26D10DF12603029309AB009386
:107FFC000396019633460DF122024D492846FDF7B2
:10800C0015FE03287ED1BDF822104B1E0B2B79D800
:10801C00BDF82420531E042B74D8BDF82630062B33
:10802C0070D887F80880F9603A617B610A9B05EB90
:10803C0003082AE0B8F14A0F06BF01354346442332
:10804C000A220BA928460593FFF73EFEDDF82C808B
:10805C00ADF826004545059B14D14D23B9F1000F11
:10806C0007D123720323E36002232361C4F8149025
:10807C000BE084F824300B23A3620123E36200237A
:10808C00236302E080B23B7278610223ADF81C30AE
:10809C000023ADF81E30ADF820300A9398F800306C
:1080AC002F2B0BD10396CDF808A00196CDF800B07C
:1080BC00334607AA1F494046FDF7B8FDBDF81E2000
:1080CC00BDF820303C2101FB0233BDF81C204FF4DD
:1080DC00616101FB0233BB610A9D09F10109B9F130
:1080EC00020F454407F11C077FF474AF6068FFF77B
:1080FC00F5FD084B226A1A60E36B9B1A074A18BFFE
:10810C00012313600DB0BDE8F08F00BFB0900D00DF
:10811C00E0E70320E8E70320B3900D00E4E7032039
:10812C0084E10320D3E70320B7900D00DA900D0013
:10813C00C6900D00D9900D00C8E703202DE9F84F2B
:10814C0007468B46904600F0D9F8194B1D689A46A5
:10815C003DB15C46234613F8012B42B13D2A1C4627
:10816C00F8D1384600F0CBF80020BDE8F88FCBEB07
:10817C000404A94659F8040B0028F2D022465946AB
:10818C00FFF76CFC88B959F8043C1E191B5D3D2B9C
:10819C000BD1DAF80030ED1AAD103846C8F80050A3
:1081AC0000F0ADF8701CBDE8F88F4D46E1E700BF5C
:1081BC00CCE1032007B501AAFFF7C0FF03B05DF8BF
:1081CC0004FB0000004870478CE103200268474B19
:1081DC00F0B592FBF3F403FB1422002ABCBF02F5AA
:1081EC00A83202F5C0724FF4616004F52F2492FBA3
:1081FC00F0F300FB13224FF03C00ACBF04F66C24F0
:10820C0004F66B248B6092FBF0F300FB13224B60A3
:10821C000A600723E21C92FBF3F3C3EBC303D31AEC
:10822C008B61334B334D94FBF5F503FB054448F65A
:10823C00AC62B4FBF2F2224440F2B457B4FBF7F355
:10824C00D21A2D48B4FBF0F048F69466131AB3FB1F
:10825C00F6F6344440F26D12B3FBF2F0B3FBF7F3D5
:10826C00E31A02FB1033992403EB83020232B2FBB4
:10827C00F4F20A2A04FB02F404F102064FF005049E
:10828C00B6FBF4F434BF02266FF0090616444FF423
:10829C00C87202FB05055F1C012E98BF0135B3F5B2
:1082AC00997FA7EB040702D3A3F5997214E0820718
:1082BC0005D16424B0FBF4F204FB12024AB94FF46A
:1082CC00C872B0FBF2F402FB1400B0FA80F252094F
:1082DC0000E001223B331A44A5F26C750023CA61FD
:1082EC004D610E61CF600B620846F0BD80510100FC
:1082FC004FC5FDFFB13A0200B03A0200704770471B
:10830C001D400D0059400D0085400D0089400D00A9
:10831C00000000006D6F69737475726500437572AF
:10832C0072656E742074696D652069732025730005
:10833C004D6F697374757265203D00402000427565
:10834C0074746F6E20537461746520697320256991
:10835C00006A76616C64657A31353500696F2E611F
:10836C00646166727569742E636F6D0061696F5F0D
:10837C006C596C4B34306565434A433768483963F4
:10838C00653034653842726B79346444006A7661C6
:10839C006C64657A3135352F66656564732F3C4D99
:1083AC006F697374757265006A76616C64657A3195
:1083BC0035352F66656564732F3C54656D70657239
:1083CC0074757265006A76616C64657A3135352F27
:1083DC0066656564732F4C45445F4F6E000000006A
:1083EC000000000000000000C9400D00D5430D0046
:1083FC00014F0D0069610D00FD470D00014C0D0092
:10840C0085460D0011450D00C14C0D00574D0D005A
:10841C008F4D0D00AB4D0D00000000000000000062
:10842C000000000000000000014F0D0069610D000C
:10843C00A5400D00014C0D00214D0D003D4D0D00D2
:10844C00C14C0D00574D0D008F4D0D00AB4D0D0067
:10845C0000000000003E5B4F5B3E3E6B4F6B3E1CD2
:10846C003E7C3E1C183C7E3C181C577D571C1C5EE9
:10847C007F5E1C00183C1800FFE7C3E7FF001824C0
:10848C001800FFE7DBE7FF30483A060E262979296A
:10849C0026407F050507407F05253F5A3CE73C5A9F
:1084AC007F3E1C1C08081C1C3E7F14227F22145F7C
:1084BC005F005F5F06097F017F006689956A6060D7
:1084CC0060606094A2FFA29408047E040810207ED1
:1084DC00201008082A1C08081C2A08081E10101056
:1084EC00100C1E0C1E0C30383E3830060E3E0E069C
:1084FC00000000000000005F0000000700070014EF
:10850C007F147F14242A7F2A1223130864623649AD
:10851C005620500008070300001C22410000412295
:10852C001C002A1C7F1C2A08083E0808008070309A
:10853C000008080808080000606000201008040209
:10854C003E5149453E00427F40007249494946210F
:10855C0041494D331814127F1027454545393C4A83
:10856C00494931412111090736494949364649499A
:10857C00291E0000140000004034000000081422E2
:10858C004114141414140041221408020159090650
:10859C003E415D594E7C1211127C7F494949363E51
:1085AC00414141227F4141413E7F494949417F0937
:1085BC000909013E414151737F0808087F00417F42
:1085CC0041002040413F017F081422417F40404040
:1085DC00407F021C027F7F0408107F3E4141413ED8
:1085EC007F090909063E4151215E7F09192946265A
:1085FC004949493203017F01033F4040403F1F205E
:10860C0040201F3F4038403F631408146303047834
:10861C0004036159494D43007F4141410204081054
:10862C0020004141417F040201020440404040408F
:10863C00000307080020545478407F2844443838FD
:10864C0044444428384444287F385454541800086F
:10865C007E090218A4A49C787F0804047800447D49
:10866C0040002040403D007F1028440000417F40E6
:10867C00007C047804787C0804047838444444383A
:10868C00FC1824241818242418FC7C08040408481A
:10869C005454542404043F44243C4040207C1C206B
:1086AC0040201C3C4030403C44281028444C9090C6
:1086BC00907C4464544C4400083641000000770020
:1086CC0000004136080002010204023C2623263C2D
:1086DC001EA1A161123A4040207A385454555921B8
:1086EC0055557941215454784121555478402054A2
:1086FC005579400C1E5272123955555559395454EE
:10870C00545939555454580000457C410002457D5C
:10871C00420001457C40F0292429F0F0282528F05E
:10872C007C545545002054547C547C0A097F4932B2
:10873C00494949323248484832324A4848303A412D
:10874C0041217A3A42402078009DA0A07D394444D2
:10875C0044393D4040403D3C24FF2424487E49435D
:10876C00662B2FFC2F2BFF0929F620C0887E0903CE
:10877C0020545479410000447D413048484A3238F5
:10878C004040227A007A0A0A727D0D19317D262921
:10879C00292F28262929292630484D402038080819
:1087AC00080808080808382F10C8ACBA2F1028344D
:1087BC00FA00007B000008142A142222142A140840
:1087CC00AA005500AAAA55AA55AA000000FF00103D
:1087DC001010FF00141414FF001010FF00FF1010F5
:1087EC00F010F0141414FC001414F700FF0000FF38
:1087FC0000FF1414F404FC141417101F10101F1095
:10880C001F1414141F00101010F0000000001F1093
:10881C001010101F10101010F010000000FF10109E
:10882C0010101010101010FF10000000FF140000AA
:10883C00FF00FF00001F10170000FC04F4141417B5
:10884C0010171414F404F40000FF00F7141414149B
:10885C00141414F700F7141414171410101F101F0D
:10886C00141414F4141010F010F000001F101F005A
:10887C0000001F14000000FC140000F010F0101099
:10888C00FF10FF141414FF141010101F0000000030
:10889C00F010FFFFFFFFFFF0F0F0F0F0FFFFFF0024
:1088AC0000000000FFFF0F0F0F0F0F384444384437
:1088BC007C2A2A3E147E02020606027E027E026397
:1088CC00554941633844443C04407E201E20060236
:1088DC007E020299A5E7A5991C2A492A1C4C720113
:1088EC00724C304A4D4D303048784830BC625A4654
:1088FC003D3E494949007E0101017E2A2A2A2A2A45
:10890C0044445F444440514A444040444A5140002E
:10891C0000FF0103E080FF000008086B6B083612B3
:10892C00362436060F090F06000018180000001038
:10893C0010003040FF0101001F01011E00191D171E
:10894C0012003C3C3C3C0000000000000000000019
:10895C0000000000CB400D00E3430D00954F0D00CF
:10896C0041500D0073500D00A94F0D00E94F0D0043
:10897C0000000000000000000000000000000000EB
:10898C00A5400D00A5400D00A5400D00A5400D0013
:10899C00A5400D00205B30780030005D2C20000AD3
:1089AC00090044726F707065642061207061636BA4
:1089BC00657400556E6B6E6F776E206572726F7298
:1089CC00004D51545400252525642E25646600461F
:1089DC0061696C656420746F20737562736372696E
:1089EC00626500436F6E6E656374696F6E206661BD
:1089FC00696C6564005468652053657276657220F5
:108A0C00646F6573206E6F7420737570706F727401
:108A1C0020746865206C6576656C206F66207468C0
:108A2C0065204D5154542070726F746F636F6C20BD
:108A3C007265717565737465640054686520436C68
:108A4C0069656E74206964656E7469666965722007
:108A5C00697320636F7272656374205554462D38A8
:108A6C0020627574206E6F7420616C6C6F77656416
:108A7C0020627920746865205365727665720054A3
:108A8C006865204D51545420736572766963652076
:108A9C00697320756E617661696C61626C650054F6
:108AAC006865206461746120696E20746865207546
:108ABC00736572206E616D65206F722070617373C7
:108ACC00776F7264206973206D616C666F726D656F
:108ADC0064004E6F7420617574686F72697A656496
:108AEC0020746F20636F6E6E6563740045786365E8
:108AFC0065646564207265636F6E6E656374207265
:108B0C00617465206C696D69742E20506C6561739D
:108B1C00652074727920616761696E206C6174657F
:108B2C00722E00596F752068617665206265656EDE
:108B3C002062616E6E65642066726F6D20636F6E6D
:108B4C006E656374696E672E20506C656173652069
:108B5C00636F6E7461637420746865204D51545456
:108B6C00207365727665722061646D696E697374C9
:108B7C007261746F7220666F72206D6F7265206403
:108B8C00657461696C732E00000000000000000029
:108B9C00D75C0D00CD5C0D00C35C0D00B95C0D0005
:108BAC00AD5C0D00A15C0D00955C0D008D5C0D00A5
:108BBC00835C0D00795C0D00C1700D00000000009D
:108BCC0000000000F55C0D00F75C0D0000081018AB
:108BDC0020283038626175640053657269616C00DD
:108BEC0053657269616C31007479706500706172E3
:108BFC00616D00636D6400696400686E6400737479
:108C0C00726D0066696C74006C766C00616464480B
:108C1C00616E646C65720072656D6F766548616E2D
:108C2C00646C657200656E756D48616E646C65721E
:108C3C0073004A534F4E53747265616D4C6F6748A5
:108C4C00616E646C65720061707000253031307536
:108C5C0020005D200028293A2000205B00636F640F
:108C6C0065203D200064657461696C73203D2000B3
:108C7C000D0A006C6E00666E00636F6465006465BF
:108C8C007461696C006E6F6E65007472616365006F
:108C9C00696E666F007761726E0070616E69630059
:108CAC00616C6C00252B3033643A2530327500250D
:108CBC00592D256D2D25645425483A254D3A2553BB
:108CCC00257A0061736374696D6500000000000013
:108CDC000000000011650D0001650D0003650D001D
:108CEC00000000000000000015660D0065660D0018
:108CFC0073660D0069610D0051660D0017660D005D
:108D0C002D660D005F660D0043660D0011660D00AB
:108D1C00000000000000000021670D0071670D00CD
:108D2C007F670D0069610D0035670D0057670D00F9
:108D3C0043670D006B670D0023670D0027670D005F
:108D4C00000000000000000025680D006F680D0099
:108D5C0047680D0027680D004F680D0057680D001F
:108D6C005F680D0067680D00000000000000000047
:108D7C002F690D0025690D001B690D0011690D008F
:108D8C0005690D00F9680D00ED680D00E5680D0032
:108D9C00DB680D00D1680D00C1700D0000000000F3
:108DAC0000000000D56A0D00DB6A0D00C36F0D00DA
:108DBC00E96A0D00D76A0D000000000000000000F9
:108DCC00E9400D001D410D004D6A0D00676A0D0054
:108DDC00696E0D00BB6B0D008D6B0D00916A0D0063
:108DEC00456D0D00416C0D00EF6B0D00396E0D00E3
:108DFC00936A0D00CB6A0D00796A0D00ED6A0D00C7
:108E0C006D6B0D00776972696E6700726563762011
:108E1C006572726F72203D20256400000000000016
:108E2C000000000039700D002F700D0025700D0032
:108E3C00DB6F0D0019700D000D700D0001700D0031
:108E4C00F96F0D00EF6F0D00E56F0D00C1700D0097
:108E5C00000000000000000059700D0063700D0050
:108E6C006D700D0077700D0081700D008D700D0010
:108E7C0099700D00A5700D00AD700D00B7700D0050
:108E8C00C1700D000053756E4D6F6E54756557654E
:108E9C00645468754672695361744A616E466562C2
:108EAC004D61724170724D61794A756E4A756C41B3
:108EBC0075675365704F63744E6F76446563252EEA
:108ECC00337320252E337325336420252E32643AD8
:108EDC00252E32643A252E32642025640A000020A7
:108EEC00202020202020202028282828282020204E
:108EFC0020202020202020202020202020202088FE
:108F0C001010101010101010101010101010100461
:108F1C0004040404040404040410101010101010B1
:108F2C0041414141414101010101010101010101A5
:108F3C0001010101010101010101101010101010BB
:108F4C004242424242420202020202020202020275
:108F5C000202020202020202020210101010200091
:108F6C0000000000000000000000000000000000F5
:108F7C0000000000000000000000000000000000E5
:108F8C0000000000000000000000000000000000D5
:108F9C0000000000000000000000000000000000C5
:108FAC0000000000000000000000000000000000B5
:108FBC0000000000000000000000000000000000A5
:108FCC000000000000000000000000000000000095
:108FDC000000000000000000000000000000000085
:108FEC000000000000000000000000000000000075
:108FFC000000000000000000000000000000000065
:10900C000000000000000000000000000000000054
:10901C000000000000000000000000000000000044
:10902C000000000000000000000000000000000034
:10903C000000000000000000000000000000000024
:10904C00430000001F0000001C0000001F00000077
:10905C001E0000001F0000001E0000001F0000008A
:10906C001F0000001E0000001F0000001E0000007A
:10907C001F0000001F0000001D0000001F0000006A
:10908C001E0000001F0000001E0000001F0000005A
:10909C001F0000001E0000001F0000001E0000004A
:1090AC001F000000545A00474D54002531305B5EC0
:1090BC00302D392C2B2D5D256E004D256875256EB8
:1090CC002E256875256E2E256875256E002F256852
:1090DC0075256E3A256875256E3A256875256E00DE
:1090EC00F1430D00FD4B0D00914F0D00D3500D00C1
:1090FC005B560D00E15C0D00B95E0D0041610D0089
:10910C00A5620D009D630D00D5630D00FD690D007A
:10911C0045700D008D710D00FD730D0081740D00F7
:10912C0045750D0009760D000000000000000000E0
:04913C00000000002F
:04914000000000002B
:10914400E80300000E000000000103070F1F3F7F2B
:109154000080C0E0F0F8FCFE000000000000000009
:1091640000000000000000000000000000000000FB
:1091740000000000000000000000000000000000EB
:1091840000000000000000000000000000000000DB
:10919400000000000000008080800000000000004B
:1091A4000000000000000000008080C0C00000003B
:1091B40000000000000000000000000000000000AB
:1091C400000000000000000000000000000000009B
:1091D400000000000000000000000000000000008B
:1091E40000000000000000000000000080C0E0F06B
:1091F400F8FCF8E00000000000000000000000009F
:1092040000000000008080808080008080000000DA
:1092140000808080808000FFFFFF000000008080CD
:10922400808000008080000080FFFF8080008080BC
:10923400008080808000808000000000008080002A
:10924400008C8E84000080F8F8F880000000000094
:109254000000000000000000F0F0F0F0F0F0F0F08A
:10926400F0F0F0F0E0E0C08000E0FCFEFFFFFF7FE4
:10927400FFFFFFFFFF0000000000000000000000EF
:10928400000000FEFFC70101010183FFFF00007C15
:10929400FEC70101010183FFFFFF0038FEC7830100
:1092A400010183C7FFFF000001FFFF010100FFFF71
:1092B4000701010100007FFF80000000FFFF7F0025
:1092C40000FFFFFF000001FFFFFF0100000000009E
:1092D4000000000000000000030F3F7F7FFFFFFF3E
:1092E400FFFFFFFFE7C7C78F8F9FBFFFFFC3C0F01C
:1092F400FFFFFFFFFFFCFCFCFCFCFCFCFCF8F8F0AF
:10930400F0E0C000010303030303010303000000B2
:10931400000103030303010103010000000103032F
:10932400030301010303000000030300000003031F
:109334000000000000000001030303030301000018
:10934400000103010000000303010000000000000D
:10935400000000000000000000000080C0E0F0F900
:10936400FFFFFFFFFF3F1F0F87C7F7FFFF1F1F3DD3
:10937400FCF8F8F8F87C7DFFFFFFFFFFFFFFFF7F9D
:109384003F0F070030300000000000000000000024
:10939400000000000000000000000000FEFEFC00D1
:1093A40000000000000000000000000000000000B9
:1093B4000000000000E0C000000000000000000009
:1093C4000000303000000000000000000000000039
:1093D400000000000000000000C0FEFFFFFFFFFFD0
:1093E400FFFFFFFF7F7F3F1F0F071F7FFFFFF8F87F
:1093F400FFFFFFFFFFFEF8E0000000010000000097
:1094040000000000FEFE000000FCFEFC0C06060E40
:10941400FCF80000F0F81C0E0606060CFFFFFF0027
:1094240000FEFE00000000FCFEFC00183C7E66E628
:10943400CE84000006FFFF0606FCFEFC0C060606B2
:109444000000FEFE0000C0F8FC4E4646464E7C7806
:1094540040183C76E6CECC800000000000000000FE
:1094640000000000000000000000000001070F1FC2
:109474001F3F3F3F3F1F0F0300000000000000009C
:10948400000000000F0F0000000F0F0F000000008D
:109494000F0F000003070E0C18180C060F0F0F0017
:1094A40000010F0E0C180C0F070100040E0C180C11
:1094B4000F070000000F0F00000F0F0F0000000047
:1094C40000000F0F00000007070C0C181C0C060608
:1094D40000040E0C180C0F07000000000000000030
:1094E4000000000000000000000000000000000078
:1094F4000000000000000000000000000000000068
:109504000000000000000000000000000000000057
:109514000000000000000000000000000000000047
:109524000000000000000000000000000000000037
:109534000000000000000000000000000000000027
:109544000000000000000000000000000000000017
:109554000000000000000000CF8C0D00EA8E0D001A
:1095640000000000EC8F0D000C900D002C900D00FD
:1095740000000000000000000000000000000000E7
:109584004C900D00000000000000000000000000EE
:1095940000000000000000000000000000000000C7
:1095A40000000000000000000000000000000000B7
:1095B40000000000000000000000000000000000A7
:1095C40020E10320B3900D00B3900D0001000000D2
:1095D400000000004A00000000000000000000003D
:1095E4000000000000000000000000000000000077
:1095F4004A0000000000000000000000000000001D
:10960400000000000000000000000000ECE7032060
:10961400FFFFFFFF00000102030405060708090A13
:109624000B0C0D0E0F101112131415161718191A0E
:089634001B1C1D1E1F20280055
:04963C007856341216
:04000003D000401CCD
:00000001FF
